{
    "UncleIsBrother_Cancun" : {
        "_info" : {
            "comment" : "",
            "filling-rpc-server" : "evmone-t8n 0.13.0-82+commit.880ac821",
            "filling-tool-version" : "retesteth-0.3.2-legacy+commit.1d528976.Linux.g++",
            "generatedTestHash" : "ae6c969c5f452b98633e9f4a875af160c66e2304e9cf6bc2a7da3e3a328dcc9f",
            "lllcversion" : "Version: 0.5.14-develop.2024.11.5+commit.b2b86751.mod.Linux.g++",
            "solidity" : "Version: 0.8.24+commit.e11b9ed9.Linux.g++",
            "source" : "src/BlockchainTestsFiller/InvalidBlocks/bcUncleTest/UncleIsBrotherFiller.json",
            "sourceHash" : "508095c162cdc1fd31982f7479de9308de44958f4a443cd5625a59819ae63ba7"
        },
        "blocks" : [
            {
                "blockHeader" : {
                    "baseFeePerGas" : "0x0e",
                    "blobGasUsed" : "0x00",
                    "bloom" : "0x00000000000000000000000000000000000000000000000000000000000000000000000000000000000000000000000000000000000000000000000000000000000000000000000000000000000000000000000000000000000000000000000000000000000000000000000000000000000000000000000000000000000000000000000000000000000000000000000000000000000000000000000000000000000000000000000000000000000000000000000000000000000000000000000000000000000000000000000000000000000000000000000000000000000000000000000000000000000000000000000000000000000000000000000000000000",
                    "coinbase" : "0x8888f1f195afa192cfee860698584c030f4c9db1",
                    "difficulty" : "0x00",
                    "excessBlobGas" : "0x00",
                    "extraData" : "0x42",
                    "gasLimit" : "0x2fefd8",
                    "gasUsed" : "0x5208",
                    "hash" : "0xc5a489e9fa5b946aed40f09ed0074d3cfef7e28bddcc9f3996e2934155e79639",
                    "mixHash" : "0x0000000000000000000000000000000000000000000000000000000000020000",
                    "nonce" : "0x0000000000000000",
                    "number" : "0x01",
                    "parentBeaconBlockRoot" : "0x0000000000000000000000000000000000000000000000000000000000000000",
                    "parentHash" : "0xfc96de622c494ad156bddd8953449830246ebf75564ef37aaf9142db066497c0",
                    "receiptTrie" : "0x056b23fbba480696b65fe5a59b8f2148a1299103c4f57df839233af2cf4ca2d2",
                    "stateRoot" : "0x2fa1423842b5120b16df86e1ba1cc83d442f2b1c4d3338f37ce1e0b4d8836990",
                    "timestamp" : "0x54c99069",
                    "transactionsTrie" : "0xffaa3736dfb643087cb20308a8b016ebba03684b555114d6533b5c2f9951e252",
                    "uncleHash" : "0x1dcc4de8dec75d7aab85b567b6ccd41ad312451b948a7413f0a142fd40d49347",
                    "withdrawalsRoot" : "0x56e81f171bcc55a6ff8345e692c0f86e5b48e01b996cadc001622fb5e363b421"
                },
                "blocknumber" : "1",
                "chainname" : "default",
                "rlp" : "0xf902a5f9023ba0fc96de622c494ad156bddd8953449830246ebf75564ef37aaf9142db066497c0a01dcc4de8dec75d7aab85b567b6ccd41ad312451b948a7413f0a142fd40d49347948888f1f195afa192cfee860698584c030f4c9db1a02fa1423842b5120b16df86e1ba1cc83d442f2b1c4d3338f37ce1e0b4d8836990a0ffaa3736dfb643087cb20308a8b016ebba03684b555114d6533b5c2f9951e252a0056b23fbba480696b65fe5a59b8f2148a1299103c4f57df839233af2cf4ca2d2b90100000000000000000000000000000000000000000000000000000000000000000000000000000000000000000000000000000000000000000000000000000000000000000000000000000000000000000000000000000000000000000000000000000000000000000000000000000000000000000000000000000000000000000000000000000000000000000000000000000000000000000000000000000000000000000000000000000000000000000000000000000000000000000000000000000000000000000000000000000000000000000000000000000000000000000000000000000000000000000000000000000000000000000000000000000000008001832fefd88252088454c9906942a000000000000000000000000000000000000000000000000000000000000200008800000000000000000ea056e81f171bcc55a6ff8345e692c0f86e5b48e01b996cadc001622fb5e363b4218080a00000000000000000000000000000000000000000000000000000000000000000f863f861808203e88304cb2f94095e7baea6a6c7c4c2dfeb977efac326af552d870a801ba025d49a54362b5ae38cf895fa9a1d3ded6f7d5577e572c9a93cdebff6e33ceaf79f773806df18e22db29acde1dd96c0418e28738af7f520e5e2c5c673494029e5c0c0",
                "transactions" : [
                    {
                        "data" : "0x",
                        "gasLimit" : "0x04cb2f",
                        "gasPrice" : "0x03e8",
                        "nonce" : "0x00",
                        "r" : "0x25d49a54362b5ae38cf895fa9a1d3ded6f7d5577e572c9a93cdebff6e33ceaf7",
                        "s" : "0x773806df18e22db29acde1dd96c0418e28738af7f520e5e2c5c673494029e5",
                        "sender" : "0xa94f5374fce5edbc8e2a8697c15331677e6ebf0b",
                        "to" : "0x095e7baea6a6c7c4c2dfeb977efac326af552d87",
                        "v" : "0x1b",
                        "value" : "0x0a"
                    }
                ],
                "uncleHeaders" : [
                ],
                "withdrawals" : [
                ]
            },
            {
                "blockHeader" : {
                    "baseFeePerGas" : "0x0d",
                    "blobGasUsed" : "0x00",
                    "bloom" : "0x00000000000000000000000000000000000000000000000000000000000000000000000000000000000000000000000000000000000000000000000000000000000000000000000000000000000000000000000000000000000000000000000000000000000000000000000000000000000000000000000000000000000000000000000000000000000000000000000000000000000000000000000000000000000000000000000000000000000000000000000000000000000000000000000000000000000000000000000000000000000000000000000000000000000000000000000000000000000000000000000000000000000000000000000000000000",
                    "coinbase" : "0x8888f1f195afa192cfee860698584c030f4c9db1",
                    "difficulty" : "0x00",
                    "excessBlobGas" : "0x00",
                    "extraData" : "0x42",
                    "gasLimit" : "0x2fefd8",
                    "gasUsed" : "0x5208",
                    "hash" : "0x80e4651f299315849f1cfdfca1ddaee9f749857ad2fd21f23a0945881fe258c7",
                    "mixHash" : "0x0000000000000000000000000000000000000000000000000000000000020000",
                    "nonce" : "0x0000000000000000",
                    "number" : "0x02",
                    "parentBeaconBlockRoot" : "0x0000000000000000000000000000000000000000000000000000000000000000",
                    "parentHash" : "0xc5a489e9fa5b946aed40f09ed0074d3cfef7e28bddcc9f3996e2934155e79639",
                    "receiptTrie" : "0x056b23fbba480696b65fe5a59b8f2148a1299103c4f57df839233af2cf4ca2d2",
                    "stateRoot" : "0x05e96e55610e757da6230b680a9f8f3c09d714f2cd2e2f781cf850e7546ad3cc",
                    "timestamp" : "0x54c99451",
                    "transactionsTrie" : "0x1c83d6cff665d2addd1518b5e90a31b785d16bbe8d67c0da4d69c705f14b2587",
                    "uncleHash" : "0x1dcc4de8dec75d7aab85b567b6ccd41ad312451b948a7413f0a142fd40d49347",
                    "withdrawalsRoot" : "0x56e81f171bcc55a6ff8345e692c0f86e5b48e01b996cadc001622fb5e363b421"
                },
                "blocknumber" : "2",
                "chainname" : "default",
                "rlp" : "0xf902a6f9023ba0c5a489e9fa5b946aed40f09ed0074d3cfef7e28bddcc9f3996e2934155e79639a01dcc4de8dec75d7aab85b567b6ccd41ad312451b948a7413f0a142fd40d49347948888f1f195afa192cfee860698584c030f4c9db1a005e96e55610e757da6230b680a9f8f3c09d714f2cd2e2f781cf850e7546ad3cca01c83d6cff665d2addd1518b5e90a31b785d16bbe8d67c0da4d69c705f14b2587a0056b23fbba480696b65fe5a59b8f2148a1299103c4f57df839233af2cf4ca2d2b90100000000000000000000000000000000000000000000000000000000000000000000000000000000000000000000000000000000000000000000000000000000000000000000000000000000000000000000000000000000000000000000000000000000000000000000000000000000000000000000000000000000000000000000000000000000000000000000000000000000000000000000000000000000000000000000000000000000000000000000000000000000000000000000000000000000000000000000000000000000000000000000000000000000000000000000000000000000000000000000000000000000000000000000000000000000008002832fefd88252088454c9945142a000000000000000000000000000000000000000000000000000000000000200008800000000000000000da056e81f171bcc55a6ff8345e692c0f86e5b48e01b996cadc001622fb5e363b4218080a00000000000000000000000000000000000000000000000000000000000000000f864f862018203e88304cb2f94095e7baea6a6c7c4c2dfeb977efac326af552d870a801ba065cf104abe6db76c9030ee607e3c97cd5f4554939192c2fb5532d3adccebc002a07d88e05cf1a2573062e148921a76f7d4d0270fad075dc396ac79afad8fd5aaf8c0c0",
                "transactions" : [
                    {
                        "data" : "0x",
                        "gasLimit" : "0x04cb2f",
                        "gasPrice" : "0x03e8",
                        "nonce" : "0x01",
                        "r" : "0x65cf104abe6db76c9030ee607e3c97cd5f4554939192c2fb5532d3adccebc002",
                        "s" : "0x7d88e05cf1a2573062e148921a76f7d4d0270fad075dc396ac79afad8fd5aaf8",
                        "sender" : "0xa94f5374fce5edbc8e2a8697c15331677e6ebf0b",
                        "to" : "0x095e7baea6a6c7c4c2dfeb977efac326af552d87",
                        "v" : "0x1b",
                        "value" : "0x0a"
                    }
                ],
                "uncleHeaders" : [
                ],
                "withdrawals" : [
                ]
            },
            {
                "blocknumber" : "3",
                "chainname" : "default",
                "expectException" : "BlockException.IMPORT_IMPOSSIBLE_UNCLES_OVER_PARIS",
                "rlp" : "0xf9047df90239a080e4651f299315849f1cfdfca1ddaee9f749857ad2fd21f23a0945881fe258c7a03fa23655fe95157855a694c7b53ced6481b9645a7d86533de148090964a5ce76948888f1f195afa192cfee860698584c030f4c9db1a0eab6aae980b91a5f28cc8a4f710e84fe0b8dd754f05415cd8bb9b849dbbede8ea056e81f171bcc55a6ff8345e692c0f86e5b48e01b996cadc001622fb5e363b421a056e81f171bcc55a6ff8345e692c0f86e5b48e01b996cadc001622fb5e363b421b90100000000000000000000000000000000000000000000000000000000000000000000000000000000000000000000000000000000000000000000000000000000000000000000000000000000000000000000000000000000000000000000000000000000000000000000000000000000000000000000000000000000000000000000000000000000000000000000000000000000000000000000000000000000000000000000000000000000000000000000000000000000000000000000000000000000000000000000000000000000000000000000000000000000000000000000000000000000000000000000000000000000000000000000000000000000008003832fefd8808454c9983942a000000000000000000000000000000000000000000000000000000000000200008800000000000000000ca056e81f171bcc55a6ff8345e692c0f86e5b48e01b996cadc001622fb5e363b4218080a00000000000000000000000000000000000000000000000000000000000000000c0f9023cf90239a080e4651f299315849f1cfdfca1ddaee9f749857ad2fd21f23a0945881fe258c7a01dcc4de8dec75d7aab85b567b6ccd41ad312451b948a7413f0a142fd40d4934794b94f5374fce5ed0000000097c15331677e6ebf0ba0eab6aae980b91a5f28cc8a4f710e84fe0b8dd754f05415cd8bb9b849dbbede8ea056e81f171bcc55a6ff8345e692c0f86e5b48e01b996cadc001622fb5e363b421a056e81f171bcc55a6ff8345e692c0f86e5b48e01b996cadc001622fb5e363b421b90100000000000000000000000000000000000000000000000000000000000000000000000000000000000000000000000000000000000000000000000000000000000000000000000000000000000000000000000000000000000000000000000000000000000000000000000000000000000000000000000000000000000000000000000000000000000000000000000000000000000000000000000000000000000000000000000000000000000000000000000000000000000000000000000000000000000000000000000000000000000000000000000000000000000000000000000000000000000000000000000000000000000000000000000000000000008003832fefd8808454c9983942a000000000000000000000000000000000000000000000000000000000000200008800000000000000000ca056e81f171bcc55a6ff8345e692c0f86e5b48e01b996cadc001622fb5e363b4218080a00000000000000000000000000000000000000000000000000000000000000000c0",
                "rlp_decoded" : {
                    "blockHeader" : {
                        "baseFeePerGas" : "0x0c",
                        "blobGasUsed" : "0x00",
                        "bloom" : "0x00000000000000000000000000000000000000000000000000000000000000000000000000000000000000000000000000000000000000000000000000000000000000000000000000000000000000000000000000000000000000000000000000000000000000000000000000000000000000000000000000000000000000000000000000000000000000000000000000000000000000000000000000000000000000000000000000000000000000000000000000000000000000000000000000000000000000000000000000000000000000000000000000000000000000000000000000000000000000000000000000000000000000000000000000000000",
                        "coinbase" : "0x8888f1f195afa192cfee860698584c030f4c9db1",
                        "difficulty" : "0x00",
                        "excessBlobGas" : "0x00",
                        "extraData" : "0x42",
                        "gasLimit" : "0x2fefd8",
                        "gasUsed" : "0x00",
                        "hash" : "0x6bc4a7be0ed48308d843127050d2de6453444e9a159dd680792217b232a53efd",
                        "mixHash" : "0x0000000000000000000000000000000000000000000000000000000000020000",
                        "nonce" : "0x0000000000000000",
                        "number" : "0x03",
                        "parentBeaconBlockRoot" : "0x0000000000000000000000000000000000000000000000000000000000000000",
                        "parentHash" : "0x80e4651f299315849f1cfdfca1ddaee9f749857ad2fd21f23a0945881fe258c7",
                        "receiptTrie" : "0x56e81f171bcc55a6ff8345e692c0f86e5b48e01b996cadc001622fb5e363b421",
                        "stateRoot" : "0xeab6aae980b91a5f28cc8a4f710e84fe0b8dd754f05415cd8bb9b849dbbede8e",
                        "timestamp" : "0x54c99839",
                        "transactionsTrie" : "0x56e81f171bcc55a6ff8345e692c0f86e5b48e01b996cadc001622fb5e363b421",
                        "uncleHash" : "0x3fa23655fe95157855a694c7b53ced6481b9645a7d86533de148090964a5ce76",
                        "withdrawalsRoot" : "0x56e81f171bcc55a6ff8345e692c0f86e5b48e01b996cadc001622fb5e363b421"
                    },
                    "transactions" : [
                    ],
                    "uncleHeaders" : [
                        {
                            "baseFeePerGas" : "0x0c",
                            "blobGasUsed" : "0x00",
                            "bloom" : "0x00000000000000000000000000000000000000000000000000000000000000000000000000000000000000000000000000000000000000000000000000000000000000000000000000000000000000000000000000000000000000000000000000000000000000000000000000000000000000000000000000000000000000000000000000000000000000000000000000000000000000000000000000000000000000000000000000000000000000000000000000000000000000000000000000000000000000000000000000000000000000000000000000000000000000000000000000000000000000000000000000000000000000000000000000000000",
                            "coinbase" : "0xb94f5374fce5ed0000000097c15331677e6ebf0b",
                            "difficulty" : "0x00",
                            "excessBlobGas" : "0x00",
                            "extraData" : "0x42",
                            "gasLimit" : "0x2fefd8",
                            "gasUsed" : "0x00",
                            "hash" : "0x7f49c2b90372ac9fba4b1879d9acbbe00fb30e4304c0f2c751c365cbe7539bbb",
                            "mixHash" : "0x0000000000000000000000000000000000000000000000000000000000020000",
                            "nonce" : "0x0000000000000000",
                            "number" : "0x03",
                            "parentBeaconBlockRoot" : "0x0000000000000000000000000000000000000000000000000000000000000000",
                            "parentHash" : "0x80e4651f299315849f1cfdfca1ddaee9f749857ad2fd21f23a0945881fe258c7",
                            "receiptTrie" : "0x56e81f171bcc55a6ff8345e692c0f86e5b48e01b996cadc001622fb5e363b421",
                            "stateRoot" : "0xeab6aae980b91a5f28cc8a4f710e84fe0b8dd754f05415cd8bb9b849dbbede8e",
                            "timestamp" : "0x54c99839",
                            "transactionsTrie" : "0x56e81f171bcc55a6ff8345e692c0f86e5b48e01b996cadc001622fb5e363b421",
                            "uncleHash" : "0x1dcc4de8dec75d7aab85b567b6ccd41ad312451b948a7413f0a142fd40d49347",
                            "withdrawalsRoot" : "0x56e81f171bcc55a6ff8345e692c0f86e5b48e01b996cadc001622fb5e363b421"
                        }
                    ],
                    "withdrawals" : [
                    ]
                }
            }
        ],
        "config" : {
            "blobSchedule" : {
                "Cancun" : {
                    "baseFeeUpdateFraction" : "0x32f0ed",
                    "max" : "0x06",
                    "target" : "0x03"
                }
            },
            "chainid" : "0x01",
            "network" : "Cancun"
        },
        "genesisBlockHeader" : {
            "baseFeePerGas" : "0x10",
            "blobGasUsed" : "0x00",
            "bloom" : "0x00000000000000000000000000000000000000000000000000000000000000000000000000000000000000000000000000000000000000000000000000000000000000000000000000000000000000000000000000000000000000000000000000000000000000000000000000000000000000000000000000000000000000000000000000000000000000000000000000000000000000000000000000000000000000000000000000000000000000000000000000000000000000000000000000000000000000000000000000000000000000000000000000000000000000000000000000000000000000000000000000000000000000000000000000000000",
            "coinbase" : "0x8888f1f195afa192cfee860698584c030f4c9db1",
            "difficulty" : "0x00",
            "excessBlobGas" : "0x00",
            "extraData" : "0x42",
            "gasLimit" : "0x2fefd8",
            "gasUsed" : "0x00",
            "hash" : "0xfc96de622c494ad156bddd8953449830246ebf75564ef37aaf9142db066497c0",
            "mixHash" : "0x0000000000000000000000000000000000000000000000000000000000020000",
            "nonce" : "0x0000000000000000",
            "number" : "0x00",
            "parentBeaconBlockRoot" : "0x0000000000000000000000000000000000000000000000000000000000000000",
            "parentHash" : "0x0000000000000000000000000000000000000000000000000000000000000000",
            "receiptTrie" : "0x56e81f171bcc55a6ff8345e692c0f86e5b48e01b996cadc001622fb5e363b421",
            "stateRoot" : "0x5fc38a0c9f4d4df3e0db7e905d6737fa029d9949848831534a245e1121bb2dba",
            "timestamp" : "0x54c98c81",
            "transactionsTrie" : "0x56e81f171bcc55a6ff8345e692c0f86e5b48e01b996cadc001622fb5e363b421",
            "uncleHash" : "0x1dcc4de8dec75d7aab85b567b6ccd41ad312451b948a7413f0a142fd40d49347",
            "withdrawalsRoot" : "0x56e81f171bcc55a6ff8345e692c0f86e5b48e01b996cadc001622fb5e363b421"
        },
        "genesisRLP" : "0xf9023ff90239a00000000000000000000000000000000000000000000000000000000000000000a01dcc4de8dec75d7aab85b567b6ccd41ad312451b948a7413f0a142fd40d49347948888f1f195afa192cfee860698584c030f4c9db1a05fc38a0c9f4d4df3e0db7e905d6737fa029d9949848831534a245e1121bb2dbaa056e81f171bcc55a6ff8345e692c0f86e5b48e01b996cadc001622fb5e363b421a056e81f171bcc55a6ff8345e692c0f86e5b48e01b996cadc001622fb5e363b421b90100000000000000000000000000000000000000000000000000000000000000000000000000000000000000000000000000000000000000000000000000000000000000000000000000000000000000000000000000000000000000000000000000000000000000000000000000000000000000000000000000000000000000000000000000000000000000000000000000000000000000000000000000000000000000000000000000000000000000000000000000000000000000000000000000000000000000000000000000000000000000000000000000000000000000000000000000000000000000000000000000000000000000000000000000000000008080832fefd8808454c98c8142a0000000000000000000000000000000000000000000000000000000000002000088000000000000000010a056e81f171bcc55a6ff8345e692c0f86e5b48e01b996cadc001622fb5e363b4218080a00000000000000000000000000000000000000000000000000000000000000000c0c0c0",
        "lastblockhash" : "0x80e4651f299315849f1cfdfca1ddaee9f749857ad2fd21f23a0945881fe258c7",
        "network" : "Cancun",
        "postState" : {
            "0x000f3df6d732807ef1319fb7b8bb8522d0beac02" : {
                "balance" : "0x00",
                "code" : "0x3373fffffffffffffffffffffffffffffffffffffffe14604d57602036146024575f5ffd5b5f35801560495762001fff810690815414603c575f5ffd5b62001fff01545f5260205ff35b5f5ffd5b62001fff42064281555f359062001fff015500",
                "nonce" : "0x01",
                "storage" : {
                    "0x12e2" : "0x54c98c81",
                    "0x16ca" : "0x54c99069",
                    "0x1ab2" : "0x54c99451"
                }
            },
            "0x095e7baea6a6c7c4c2dfeb977efac326af552d87" : {
                "balance" : "0x14",
                "code" : "0x",
                "nonce" : "0x00",
                "storage" : {
                }
            },
            "0x8888f1f195afa192cfee860698584c030f4c9db1" : {
                "balance" : "0x027837a8",
                "code" : "0x",
                "nonce" : "0x00",
                "storage" : {
                }
            },
            "0xa94f5374fce5edbc8e2a8697c15331677e6ebf0b" : {
                "balance" : "0x09184bf1c16c",
                "code" : "0x",
                "nonce" : "0x02",
                "storage" : {
                }
            }
        },
        "pre" : {
            "0x000f3df6d732807ef1319fb7b8bb8522d0beac02" : {
                "balance" : "0x00",
                "code" : "0x3373fffffffffffffffffffffffffffffffffffffffe14604d57602036146024575f5ffd5b5f35801560495762001fff810690815414603c575f5ffd5b62001fff01545f5260205ff35b5f5ffd5b62001fff42064281555f359062001fff015500",
                "nonce" : "0x01",
                "storage" : {
                    "0x12e2" : "0x54c98c81"
                }
            },
            "0xa94f5374fce5edbc8e2a8697c15331677e6ebf0b" : {
                "balance" : "0x09184e72a000",
                "code" : "0x",
                "nonce" : "0x00",
                "storage" : {
                }
            }
        },
        "sealEngine" : "NoProof"
    },
    "UncleIsBrother_Prague" : {
        "_info" : {
            "comment" : "",
            "filling-rpc-server" : "evmone-t8n 0.13.0-82+commit.880ac821",
            "filling-tool-version" : "retesteth-0.3.2-legacy+commit.1d528976.Linux.g++",
            "generatedTestHash" : "cadb1843ed965e23503aa70931b65dc6c32c9c5e268d5b6ea738daec9f5484c8",
            "lllcversion" : "Version: 0.5.14-develop.2024.11.5+commit.b2b86751.mod.Linux.g++",
            "solidity" : "Version: 0.8.24+commit.e11b9ed9.Linux.g++",
            "source" : "src/BlockchainTestsFiller/InvalidBlocks/bcUncleTest/UncleIsBrotherFiller.json",
            "sourceHash" : "508095c162cdc1fd31982f7479de9308de44958f4a443cd5625a59819ae63ba7"
        },
        "blocks" : [
            {
                "blockHeader" : {
                    "baseFeePerGas" : "0x0e",
                    "blobGasUsed" : "0x00",
                    "bloom" : "0x00000000000000000000000000000000000000000000000000000000000000000000000000000000000000000000000000000000000000000000000000000000000000000000000000000000000000000000000000000000000000000000000000000000000000000000000000000000000000000000000000000000000000000000000000000000000000000000000000000000000000000000000000000000000000000000000000000000000000000000000000000000000000000000000000000000000000000000000000000000000000000000000000000000000000000000000000000000000000000000000000000000000000000000000000000000",
                    "coinbase" : "0x8888f1f195afa192cfee860698584c030f4c9db1",
                    "difficulty" : "0x00",
                    "excessBlobGas" : "0x00",
                    "extraData" : "0x42",
                    "gasLimit" : "0x2fefd8",
                    "gasUsed" : "0x5208",
                    "hash" : "0x6fe62a45ed895494a5ecd10fcb0dcc0a46f3e48d16de0a9038b3b2c4da01aec2",
                    "mixHash" : "0x0000000000000000000000000000000000000000000000000000000000020000",
                    "nonce" : "0x0000000000000000",
                    "number" : "0x01",
                    "parentBeaconBlockRoot" : "0x0000000000000000000000000000000000000000000000000000000000000000",
                    "parentHash" : "0xa0b67d4a405b6f8b26657d958a45e06cfc9d27885594434beb91c9902d5a687e",
                    "receiptTrie" : "0x056b23fbba480696b65fe5a59b8f2148a1299103c4f57df839233af2cf4ca2d2",
                    "requestsHash" : "0xe3b0c44298fc1c149afbf4c8996fb92427ae41e4649b934ca495991b7852b855",
                    "stateRoot" : "0x2fa1423842b5120b16df86e1ba1cc83d442f2b1c4d3338f37ce1e0b4d8836990",
                    "timestamp" : "0x54c99069",
                    "transactionsTrie" : "0xffaa3736dfb643087cb20308a8b016ebba03684b555114d6533b5c2f9951e252",
                    "uncleHash" : "0x1dcc4de8dec75d7aab85b567b6ccd41ad312451b948a7413f0a142fd40d49347",
                    "withdrawalsRoot" : "0x56e81f171bcc55a6ff8345e692c0f86e5b48e01b996cadc001622fb5e363b421"
                },
                "blocknumber" : "1",
                "chainname" : "default",
                "rlp" : "0xf902c6f9025ca0a0b67d4a405b6f8b26657d958a45e06cfc9d27885594434beb91c9902d5a687ea01dcc4de8dec75d7aab85b567b6ccd41ad312451b948a7413f0a142fd40d49347948888f1f195afa192cfee860698584c030f4c9db1a02fa1423842b5120b16df86e1ba1cc83d442f2b1c4d3338f37ce1e0b4d8836990a0ffaa3736dfb643087cb20308a8b016ebba03684b555114d6533b5c2f9951e252a0056b23fbba480696b65fe5a59b8f2148a1299103c4f57df839233af2cf4ca2d2b90100000000000000000000000000000000000000000000000000000000000000000000000000000000000000000000000000000000000000000000000000000000000000000000000000000000000000000000000000000000000000000000000000000000000000000000000000000000000000000000000000000000000000000000000000000000000000000000000000000000000000000000000000000000000000000000000000000000000000000000000000000000000000000000000000000000000000000000000000000000000000000000000000000000000000000000000000000000000000000000000000000000000000000000000000000000008001832fefd88252088454c9906942a000000000000000000000000000000000000000000000000000000000000200008800000000000000000ea056e81f171bcc55a6ff8345e692c0f86e5b48e01b996cadc001622fb5e363b4218080a00000000000000000000000000000000000000000000000000000000000000000a0e3b0c44298fc1c149afbf4c8996fb92427ae41e4649b934ca495991b7852b855f863f861808203e88304cb2f94095e7baea6a6c7c4c2dfeb977efac326af552d870a801ba025d49a54362b5ae38cf895fa9a1d3ded6f7d5577e572c9a93cdebff6e33ceaf79f773806df18e22db29acde1dd96c0418e28738af7f520e5e2c5c673494029e5c0c0",
                "transactions" : [
                    {
                        "data" : "0x",
                        "gasLimit" : "0x04cb2f",
                        "gasPrice" : "0x03e8",
                        "nonce" : "0x00",
                        "r" : "0x25d49a54362b5ae38cf895fa9a1d3ded6f7d5577e572c9a93cdebff6e33ceaf7",
                        "s" : "0x773806df18e22db29acde1dd96c0418e28738af7f520e5e2c5c673494029e5",
                        "sender" : "0xa94f5374fce5edbc8e2a8697c15331677e6ebf0b",
                        "to" : "0x095e7baea6a6c7c4c2dfeb977efac326af552d87",
                        "v" : "0x1b",
                        "value" : "0x0a"
                    }
                ],
                "uncleHeaders" : [
                ],
                "withdrawals" : [
                ]
            },
            {
                "blockHeader" : {
                    "baseFeePerGas" : "0x0d",
                    "blobGasUsed" : "0x00",
                    "bloom" : "0x00000000000000000000000000000000000000000000000000000000000000000000000000000000000000000000000000000000000000000000000000000000000000000000000000000000000000000000000000000000000000000000000000000000000000000000000000000000000000000000000000000000000000000000000000000000000000000000000000000000000000000000000000000000000000000000000000000000000000000000000000000000000000000000000000000000000000000000000000000000000000000000000000000000000000000000000000000000000000000000000000000000000000000000000000000000",
                    "coinbase" : "0x8888f1f195afa192cfee860698584c030f4c9db1",
                    "difficulty" : "0x00",
                    "excessBlobGas" : "0x00",
                    "extraData" : "0x42",
                    "gasLimit" : "0x2fefd8",
                    "gasUsed" : "0x5208",
                    "hash" : "0x38745b779e1cf66afa9c49c17f8d1ea5183cc85e978f5d3096e5be982db0d985",
                    "mixHash" : "0x0000000000000000000000000000000000000000000000000000000000020000",
                    "nonce" : "0x0000000000000000",
                    "number" : "0x02",
                    "parentBeaconBlockRoot" : "0x0000000000000000000000000000000000000000000000000000000000000000",
                    "parentHash" : "0x6fe62a45ed895494a5ecd10fcb0dcc0a46f3e48d16de0a9038b3b2c4da01aec2",
                    "receiptTrie" : "0x056b23fbba480696b65fe5a59b8f2148a1299103c4f57df839233af2cf4ca2d2",
                    "requestsHash" : "0xe3b0c44298fc1c149afbf4c8996fb92427ae41e4649b934ca495991b7852b855",
                    "stateRoot" : "0x05e96e55610e757da6230b680a9f8f3c09d714f2cd2e2f781cf850e7546ad3cc",
                    "timestamp" : "0x54c99451",
                    "transactionsTrie" : "0x1c83d6cff665d2addd1518b5e90a31b785d16bbe8d67c0da4d69c705f14b2587",
                    "uncleHash" : "0x1dcc4de8dec75d7aab85b567b6ccd41ad312451b948a7413f0a142fd40d49347",
                    "withdrawalsRoot" : "0x56e81f171bcc55a6ff8345e692c0f86e5b48e01b996cadc001622fb5e363b421"
                },
                "blocknumber" : "2",
                "chainname" : "default",
                "rlp" : "0xf902c7f9025ca06fe62a45ed895494a5ecd10fcb0dcc0a46f3e48d16de0a9038b3b2c4da01aec2a01dcc4de8dec75d7aab85b567b6ccd41ad312451b948a7413f0a142fd40d49347948888f1f195afa192cfee860698584c030f4c9db1a005e96e55610e757da6230b680a9f8f3c09d714f2cd2e2f781cf850e7546ad3cca01c83d6cff665d2addd1518b5e90a31b785d16bbe8d67c0da4d69c705f14b2587a0056b23fbba480696b65fe5a59b8f2148a1299103c4f57df839233af2cf4ca2d2b90100000000000000000000000000000000000000000000000000000000000000000000000000000000000000000000000000000000000000000000000000000000000000000000000000000000000000000000000000000000000000000000000000000000000000000000000000000000000000000000000000000000000000000000000000000000000000000000000000000000000000000000000000000000000000000000000000000000000000000000000000000000000000000000000000000000000000000000000000000000000000000000000000000000000000000000000000000000000000000000000000000000000000000000000000000000008002832fefd88252088454c9945142a000000000000000000000000000000000000000000000000000000000000200008800000000000000000da056e81f171bcc55a6ff8345e692c0f86e5b48e01b996cadc001622fb5e363b4218080a00000000000000000000000000000000000000000000000000000000000000000a0e3b0c44298fc1c149afbf4c8996fb92427ae41e4649b934ca495991b7852b855f864f862018203e88304cb2f94095e7baea6a6c7c4c2dfeb977efac326af552d870a801ba065cf104abe6db76c9030ee607e3c97cd5f4554939192c2fb5532d3adccebc002a07d88e05cf1a2573062e148921a76f7d4d0270fad075dc396ac79afad8fd5aaf8c0c0",
                "transactions" : [
                    {
                        "data" : "0x",
                        "gasLimit" : "0x04cb2f",
                        "gasPrice" : "0x03e8",
                        "nonce" : "0x01",
                        "r" : "0x65cf104abe6db76c9030ee607e3c97cd5f4554939192c2fb5532d3adccebc002",
                        "s" : "0x7d88e05cf1a2573062e148921a76f7d4d0270fad075dc396ac79afad8fd5aaf8",
                        "sender" : "0xa94f5374fce5edbc8e2a8697c15331677e6ebf0b",
                        "to" : "0x095e7baea6a6c7c4c2dfeb977efac326af552d87",
                        "v" : "0x1b",
                        "value" : "0x0a"
                    }
                ],
                "uncleHeaders" : [
                ],
                "withdrawals" : [
                ]
            },
            {
                "blocknumber" : "3",
                "chainname" : "default",
                "expectException" : "BlockException.IMPORT_IMPOSSIBLE_UNCLES_OVER_PARIS",
                "rlp" : "0xf904bff9025aa038745b779e1cf66afa9c49c17f8d1ea5183cc85e978f5d3096e5be982db0d985a08d3597cf7802eac67d399d3a221a512edafed324a4ebf99114ad1f1218321a7e948888f1f195afa192cfee860698584c030f4c9db1a0eab6aae980b91a5f28cc8a4f710e84fe0b8dd754f05415cd8bb9b849dbbede8ea056e81f171bcc55a6ff8345e692c0f86e5b48e01b996cadc001622fb5e363b421a056e81f171bcc55a6ff8345e692c0f86e5b48e01b996cadc001622fb5e363b421b90100000000000000000000000000000000000000000000000000000000000000000000000000000000000000000000000000000000000000000000000000000000000000000000000000000000000000000000000000000000000000000000000000000000000000000000000000000000000000000000000000000000000000000000000000000000000000000000000000000000000000000000000000000000000000000000000000000000000000000000000000000000000000000000000000000000000000000000000000000000000000000000000000000000000000000000000000000000000000000000000000000000000000000000000000000000008003832fefd8808454c9983942a000000000000000000000000000000000000000000000000000000000000200008800000000000000000ca056e81f171bcc55a6ff8345e692c0f86e5b48e01b996cadc001622fb5e363b4218080a00000000000000000000000000000000000000000000000000000000000000000a0e3b0c44298fc1c149afbf4c8996fb92427ae41e4649b934ca495991b7852b855c0f9025df9025aa038745b779e1cf66afa9c49c17f8d1ea5183cc85e978f5d3096e5be982db0d985a01dcc4de8dec75d7aab85b567b6ccd41ad312451b948a7413f0a142fd40d4934794b94f5374fce5ed0000000097c15331677e6ebf0ba0eab6aae980b91a5f28cc8a4f710e84fe0b8dd754f05415cd8bb9b849dbbede8ea056e81f171bcc55a6ff8345e692c0f86e5b48e01b996cadc001622fb5e363b421a056e81f171bcc55a6ff8345e692c0f86e5b48e01b996cadc001622fb5e363b421b90100000000000000000000000000000000000000000000000000000000000000000000000000000000000000000000000000000000000000000000000000000000000000000000000000000000000000000000000000000000000000000000000000000000000000000000000000000000000000000000000000000000000000000000000000000000000000000000000000000000000000000000000000000000000000000000000000000000000000000000000000000000000000000000000000000000000000000000000000000000000000000000000000000000000000000000000000000000000000000000000000000000000000000000000000000000008003832fefd8808454c9983942a000000000000000000000000000000000000000000000000000000000000200008800000000000000000ca056e81f171bcc55a6ff8345e692c0f86e5b48e01b996cadc001622fb5e363b4218080a00000000000000000000000000000000000000000000000000000000000000000a0e3b0c44298fc1c149afbf4c8996fb92427ae41e4649b934ca495991b7852b855c0",
                "rlp_decoded" : {
                    "blockHeader" : {
                        "baseFeePerGas" : "0x0c",
                        "blobGasUsed" : "0x00",
                        "bloom" : "0x00000000000000000000000000000000000000000000000000000000000000000000000000000000000000000000000000000000000000000000000000000000000000000000000000000000000000000000000000000000000000000000000000000000000000000000000000000000000000000000000000000000000000000000000000000000000000000000000000000000000000000000000000000000000000000000000000000000000000000000000000000000000000000000000000000000000000000000000000000000000000000000000000000000000000000000000000000000000000000000000000000000000000000000000000000000",
                        "coinbase" : "0x8888f1f195afa192cfee860698584c030f4c9db1",
                        "difficulty" : "0x00",
                        "excessBlobGas" : "0x00",
                        "extraData" : "0x42",
                        "gasLimit" : "0x2fefd8",
                        "gasUsed" : "0x00",
                        "hash" : "0xcedb97705732aa0bfe5320a7c6eb1b790071d4494192ace6b0887bda068601e2",
                        "mixHash" : "0x0000000000000000000000000000000000000000000000000000000000020000",
                        "nonce" : "0x0000000000000000",
                        "number" : "0x03",
                        "parentBeaconBlockRoot" : "0x0000000000000000000000000000000000000000000000000000000000000000",
                        "parentHash" : "0x38745b779e1cf66afa9c49c17f8d1ea5183cc85e978f5d3096e5be982db0d985",
                        "receiptTrie" : "0x56e81f171bcc55a6ff8345e692c0f86e5b48e01b996cadc001622fb5e363b421",
                        "requestsHash" : "0xe3b0c44298fc1c149afbf4c8996fb92427ae41e4649b934ca495991b7852b855",
                        "stateRoot" : "0xeab6aae980b91a5f28cc8a4f710e84fe0b8dd754f05415cd8bb9b849dbbede8e",
                        "timestamp" : "0x54c99839",
                        "transactionsTrie" : "0x56e81f171bcc55a6ff8345e692c0f86e5b48e01b996cadc001622fb5e363b421",
                        "uncleHash" : "0x8d3597cf7802eac67d399d3a221a512edafed324a4ebf99114ad1f1218321a7e",
                        "withdrawalsRoot" : "0x56e81f171bcc55a6ff8345e692c0f86e5b48e01b996cadc001622fb5e363b421"
                    },
                    "transactions" : [
                    ],
                    "uncleHeaders" : [
                        {
                            "baseFeePerGas" : "0x0c",
                            "blobGasUsed" : "0x00",
                            "bloom" : "0x00000000000000000000000000000000000000000000000000000000000000000000000000000000000000000000000000000000000000000000000000000000000000000000000000000000000000000000000000000000000000000000000000000000000000000000000000000000000000000000000000000000000000000000000000000000000000000000000000000000000000000000000000000000000000000000000000000000000000000000000000000000000000000000000000000000000000000000000000000000000000000000000000000000000000000000000000000000000000000000000000000000000000000000000000000000",
                            "coinbase" : "0xb94f5374fce5ed0000000097c15331677e6ebf0b",
                            "difficulty" : "0x00",
                            "excessBlobGas" : "0x00",
                            "extraData" : "0x42",
                            "gasLimit" : "0x2fefd8",
                            "gasUsed" : "0x00",
                            "hash" : "0x66029ad622ab85a91b5f23bdaa442883722d5516c43de3e0325c100b8796b2df",
                            "mixHash" : "0x0000000000000000000000000000000000000000000000000000000000020000",
                            "nonce" : "0x0000000000000000",
                            "number" : "0x03",
                            "parentBeaconBlockRoot" : "0x0000000000000000000000000000000000000000000000000000000000000000",
                            "parentHash" : "0x38745b779e1cf66afa9c49c17f8d1ea5183cc85e978f5d3096e5be982db0d985",
                            "receiptTrie" : "0x56e81f171bcc55a6ff8345e692c0f86e5b48e01b996cadc001622fb5e363b421",
                            "requestsHash" : "0xe3b0c44298fc1c149afbf4c8996fb92427ae41e4649b934ca495991b7852b855",
                            "stateRoot" : "0xeab6aae980b91a5f28cc8a4f710e84fe0b8dd754f05415cd8bb9b849dbbede8e",
                            "timestamp" : "0x54c99839",
                            "transactionsTrie" : "0x56e81f171bcc55a6ff8345e692c0f86e5b48e01b996cadc001622fb5e363b421",
                            "uncleHash" : "0x1dcc4de8dec75d7aab85b567b6ccd41ad312451b948a7413f0a142fd40d49347",
                            "withdrawalsRoot" : "0x56e81f171bcc55a6ff8345e692c0f86e5b48e01b996cadc001622fb5e363b421"
                        }
                    ],
                    "withdrawals" : [
                    ]
                }
            }
        ],
        "config" : {
            "blobSchedule" : {
                "Prague" : {
                    "baseFeeUpdateFraction" : "0x4c6964",
                    "max" : "0x09",
                    "target" : "0x06"
                }
            },
            "chainid" : "0x01",
            "network" : "Prague"
        },
        "genesisBlockHeader" : {
            "baseFeePerGas" : "0x10",
            "blobGasUsed" : "0x00",
            "bloom" : "0x00000000000000000000000000000000000000000000000000000000000000000000000000000000000000000000000000000000000000000000000000000000000000000000000000000000000000000000000000000000000000000000000000000000000000000000000000000000000000000000000000000000000000000000000000000000000000000000000000000000000000000000000000000000000000000000000000000000000000000000000000000000000000000000000000000000000000000000000000000000000000000000000000000000000000000000000000000000000000000000000000000000000000000000000000000000",
            "coinbase" : "0x8888f1f195afa192cfee860698584c030f4c9db1",
            "difficulty" : "0x00",
            "excessBlobGas" : "0x00",
            "extraData" : "0x42",
            "gasLimit" : "0x2fefd8",
            "gasUsed" : "0x00",
            "hash" : "0xa0b67d4a405b6f8b26657d958a45e06cfc9d27885594434beb91c9902d5a687e",
            "mixHash" : "0x0000000000000000000000000000000000000000000000000000000000020000",
            "nonce" : "0x0000000000000000",
            "number" : "0x00",
            "parentBeaconBlockRoot" : "0x0000000000000000000000000000000000000000000000000000000000000000",
            "parentHash" : "0x0000000000000000000000000000000000000000000000000000000000000000",
            "receiptTrie" : "0x56e81f171bcc55a6ff8345e692c0f86e5b48e01b996cadc001622fb5e363b421",
            "requestsHash" : "0xe3b0c44298fc1c149afbf4c8996fb92427ae41e4649b934ca495991b7852b855",
            "stateRoot" : "0x5fc38a0c9f4d4df3e0db7e905d6737fa029d9949848831534a245e1121bb2dba",
            "timestamp" : "0x54c98c81",
            "transactionsTrie" : "0x56e81f171bcc55a6ff8345e692c0f86e5b48e01b996cadc001622fb5e363b421",
            "uncleHash" : "0x1dcc4de8dec75d7aab85b567b6ccd41ad312451b948a7413f0a142fd40d49347",
            "withdrawalsRoot" : "0x56e81f171bcc55a6ff8345e692c0f86e5b48e01b996cadc001622fb5e363b421"
        },
        "genesisRLP" : "0xf90260f9025aa00000000000000000000000000000000000000000000000000000000000000000a01dcc4de8dec75d7aab85b567b6ccd41ad312451b948a7413f0a142fd40d49347948888f1f195afa192cfee860698584c030f4c9db1a05fc38a0c9f4d4df3e0db7e905d6737fa029d9949848831534a245e1121bb2dbaa056e81f171bcc55a6ff8345e692c0f86e5b48e01b996cadc001622fb5e363b421a056e81f171bcc55a6ff8345e692c0f86e5b48e01b996cadc001622fb5e363b421b90100000000000000000000000000000000000000000000000000000000000000000000000000000000000000000000000000000000000000000000000000000000000000000000000000000000000000000000000000000000000000000000000000000000000000000000000000000000000000000000000000000000000000000000000000000000000000000000000000000000000000000000000000000000000000000000000000000000000000000000000000000000000000000000000000000000000000000000000000000000000000000000000000000000000000000000000000000000000000000000000000000000000000000000000000000000008080832fefd8808454c98c8142a0000000000000000000000000000000000000000000000000000000000002000088000000000000000010a056e81f171bcc55a6ff8345e692c0f86e5b48e01b996cadc001622fb5e363b4218080a00000000000000000000000000000000000000000000000000000000000000000a0e3b0c44298fc1c149afbf4c8996fb92427ae41e4649b934ca495991b7852b855c0c0c0",
        "lastblockhash" : "0x38745b779e1cf66afa9c49c17f8d1ea5183cc85e978f5d3096e5be982db0d985",
        "network" : "Prague",
        "postState" : {
            "0x000f3df6d732807ef1319fb7b8bb8522d0beac02" : {
                "balance" : "0x00",
                "code" : "0x3373fffffffffffffffffffffffffffffffffffffffe14604d57602036146024575f5ffd5b5f35801560495762001fff810690815414603c575f5ffd5b62001fff01545f5260205ff35b5f5ffd5b62001fff42064281555f359062001fff015500",
                "nonce" : "0x01",
                "storage" : {
                    "0x12e2" : "0x54c98c81",
                    "0x16ca" : "0x54c99069",
                    "0x1ab2" : "0x54c99451"
                }
            },
            "0x095e7baea6a6c7c4c2dfeb977efac326af552d87" : {
                "balance" : "0x14",
                "code" : "0x",
                "nonce" : "0x00",
                "storage" : {
                }
            },
            "0x8888f1f195afa192cfee860698584c030f4c9db1" : {
                "balance" : "0x027837a8",
                "code" : "0x",
                "nonce" : "0x00",
                "storage" : {
                }
            },
            "0xa94f5374fce5edbc8e2a8697c15331677e6ebf0b" : {
                "balance" : "0x09184bf1c16c",
                "code" : "0x",
                "nonce" : "0x02",
                "storage" : {
                }
            }
        },
        "pre" : {
            "0x000f3df6d732807ef1319fb7b8bb8522d0beac02" : {
                "balance" : "0x00",
                "code" : "0x3373fffffffffffffffffffffffffffffffffffffffe14604d57602036146024575f5ffd5b5f35801560495762001fff810690815414603c575f5ffd5b62001fff01545f5260205ff35b5f5ffd5b62001fff42064281555f359062001fff015500",
                "nonce" : "0x01",
                "storage" : {
                    "0x12e2" : "0x54c98c81"
                }
            },
            "0xa94f5374fce5edbc8e2a8697c15331677e6ebf0b" : {
                "balance" : "0x09184e72a000",
                "code" : "0x",
                "nonce" : "0x00",
                "storage" : {
                }
            }
        },
        "sealEngine" : "NoProof"
    }
}