{
    "test_mcopy_contexts_5": {
        "_info": {
            "comment": "`execution-spec-tests` generated test",
            "description": "Test function documentation:\n\n    Perform a subcall with any of the following opcodes, which uses MCOPY during its execution,\n    and verify that the caller's memory is unaffected:\n      - `CALL`\n      - `CALLCODE`\n      - `DELEGATECALL`\n      - `STATICCALL`\n      - `CREATE`\n      - `CREATE2`",
            "filling-rpc-server": "evm version 1.14.4-unstable-3d8028a6-20240513",
            "filling-tool-version": "retesteth-0.3.2-cancun+commit.2a41f237.Linux.g++",
            "filling-transition-tool": "evm version 1.14.4-unstable-3d8028a6-20240513",
            "generatedTestHash": "364c40171260d0fc87f2361953963283f0a38f134fa3ded203746fdaa2b23ec7",
            "hash": "0x79e928f09e67eda1066106a85d59559fce423b21a930b1809aad52415e67a1f3",
            "lllcversion": "Version: 0.5.14-develop.2023.7.11+commit.c58ab2c6.mod.Linux.g++",
            "solidity": "Version: 0.8.21+commit.d9974bed.Linux.g++",
            "source": "src/GeneralStateTestsFiller/Pyspecs/cancun/eip5656_mcopy/test_mcopy_contextsFiller_5.json",
            "sourceHash": "8483b97c8f78bef7eef3ee4d82749178258777b02ea85679be2894a1dab29658",
            "url": "https://github.com/ethereum/execution-spec-tests/blob/87ef9bee36585b5b9f72d6eaafeeb1999b641d3c/tests/tmp/tmptest_bd56bffe_5d87_45c6_8995_42fb05c5b3af/test_mcopy_contexts.py#L184"
        },
        "env": {
            "currentBaseFee": "0x07",
            "currentCoinbase": "0x2adc25665018aa1fe0e6bc666dac8fc2697ff9ba",
            "currentDifficulty": "0x00",
            "currentExcessBlobGas": "0x00",
            "currentGasLimit": "0x016345785d8a0000",
            "currentNumber": "0x01",
            "currentRandom": "0x0000000000000000000000000000000000000000000000000000000000000000",
            "currentTimestamp": "0x03e8"
        },
        "post": {
            "Cancun": [
                {
                    "hash": "0xa5288a1355431ceeaeb7e5b7efd5560780f266f58e5ed27928fc5d7f7700ad5c",
                    "indexes": {
                        "data": 0,
                        "gas": 0,
                        "value": 0
                    },
                    "logs": "0x1dcc4de8dec75d7aab85b567b6ccd41ad312451b948a7413f0a142fd40d49347",
                    "txbytes": "0xf860800a830f4240940000000000000000000000000000000000000100808025a06ed8419ab28c42e73d2f147ebdddfd5de4fb1eb6b4f332d0c5fab55da6ee7eaaa05930cef304a571952dbcc5d64ddb799bba262cfe26fcdded394288f1999164ce"
                }
            ]
        },
        "pre": {
            "0x0000000000000000000000000000000000000100": {
                "balance": "0x00",
                "code": "0x7f0102030405060708090a0b0c0d0e0f101112131415161718191a1b1c1d1e1f206000527f2122232425262728292a2b2c2d2e2f303132333435363738393a3b3c3d3e3f406020527f4142434445464748494a4b4c4d4e4f505152535455565758595a5b5c5d5e5f606040527f6162636465666768696a6b6c6d6e6f707172737475767778797a7b7c7d7e7f806060527f8182838485868788898a8b8c8d8e8f909192939495969798999a9b9c9d9e9fa06080527fa1a2a3a4a5a6a7a8a9aaabacadaeafb0b1b2b3b4b5b6b7b8b9babbbcbdbebfc060a0527fc1c2c3c4c5c6c7c8c9cacbcccdcecfd0d1d2d3d4d5d6d7d8d9dadbdcdddedfe060c0527fe1e2e3e4e5e6e7e8e9eaebecedeeeff0f1f2f3f4f5f6f7f8f9fafbfcfdfeff0160e0527f02030405060708090a0b0c0d0e0f101112131415161718191a1b1c1d1e1f2021610100527f22232425262728292a2b2c2d2e2f303132333435363738393a3b3c3d3e3f4041610120527f42434445464748494a4b4c4d4e4f505152535455565758595a5b5c5d5e5f6061610140527f62636465666768696a6b6c6d6e6f707172737475767778797a7b7c7d7e7f8081610160527f82838485868788898a8b8c8d8e8f909192939495969798999a9b9c9d9e9fa0a1610180527fa2a3a4a5a6a7a8a9aaabacadaeafb0b1b2b3b4b5b6b7b8b9babbbcbdbebfc0c16101a0527fc2c3c4c5c6c7c8c9cacbcccdcecfd0d1d2d3d4d5d6d7d8d9dadbdcdddedfe0e16101c0527fe2e3e4e5e6e7e8e9eaebecedeeeff0f1f2f3f4f5f6f7f8f9fafbfcfdfeff01026101e0527f030405060708090a0b0c0d0e0f101112131415161718191a1b1c1d1e1f202122610200527f232425262728292a2b2c2d2e2f303132333435363738393a3b3c3d3e3f404142610220527f434445464748494a4b4c4d4e4f505152535455565758595a5b5c5d5e5f606162610240527f636465666768696a6b6c6d6e6f707172737475767778797a7b7c7d7e7f808182610260527f838485868788898a8b8c8d8e8f909192939495969798999a9b9c9d9e9fa0a1a2610280527fa3a4a5a6a7a8a9aaabacadaeafb0b1b2b3b4b5b6b7b8b9babbbcbdbebfc0c1c26102a0527fc3c4c5c6c7c8c9cacbcccdcecfd0d1d2d3d4d5d6d7d8d9dadbdcdddedfe0e1e26102c0527fe3e4e5e6e7e8e9eaebecedeeeff0f1f2f3f4f5f6f7f8f9fafbfcfdfeff0102036102e0527f0405060708090a0b0c0d0e0f101112131415161718191a1b1c1d1e1f20212223610300527f2425262728292a2b2c2d2e2f303132333435363738393a3b3c3d3e3f40414243610320527f4445464748494a4b4c4d4e4f505152535455565758595a5b5c5d5e5f60616263610340527f6465666768696a6b6c6d6e6f707172737475767778797a7b7c7d7e7f80818283610360527f8485868788898a8b8c8d8e8f909192939495969798999a9b9c9d9e9fa0a1a2a3610380527fa4a5a6a7a8a9aaabacadaeafb0b1b2b3b4b5b6b7b8b9babbbcbdbebfc0c1c2c36103a0527fc4c5c6c7c8c9cacbcccdcecfd0d1d2d3d4d5d6d7d8d9dadbdcdddedfe0e1e2e36103c0527fe4e5e6e7e8e9eaebecedeeeff0f1f2f3f4f5f6f7f8f9fafbfcfdfeff010203046103e05260006000600060006102005afa59620186a05560005160005560205160015560405160025560605160035560805160045560a05160055560c05160065560e051600755610100516008556101205160095561014051600a5561016051600b5561018051600c556101a051600d556101c051600e556101e051600f5561020051601055610220516011556102405160125561026051601355610280516014556102a0516015556102c0516016556102e051601755610300516018556103205160195561034051601a5561036051601b5561038051601c556103a051601d556103c051601e556103e051601f55",
                "nonce": "0x00",
                "storage": {}
            },
            "0x0000000000000000000000000000000000000200": {
                "balance": "0x00",
                "code": "0x6001600160005e6001600060015e6020600060015e61040061040060005e600161080060005e600160006108005e60006000f3",
                "nonce": "0x00",
                "storage": {}
            },
            "0xa94f5374fce5edbc8e2a8697c15331677e6ebf0b": {
                "balance": "0x1d6329f1c35ca4bfabb9f5610000000000",
                "code": "0x",
                "nonce": "0x00",
                "storage": {}
            }
        },
        "transaction": {
            "data": [
                "0x"
            ],
            "gasLimit": [
                "0x0f4240"
            ],
            "gasPrice": "0x0a",
            "nonce": "0x00",
            "secretKey": "0x45a915e4d060149eb4365960e6a7a45f334393093061116b197e3240065ff2d8",
            "sender": "0xa94f5374fce5edbc8e2a8697c15331677e6ebf0b",
            "to": "0x0000000000000000000000000000000000000100",
            "value": [
                "0x00"
            ]
        }
    }
}