{
    "test_mcopy_memory_expansion_1": {
        "_info": {
            "comment": "`execution-spec-tests` generated test",
            "description": "Test function documentation:\n\n    Perform MCOPY operations that expand the memory, and verify the gas it costs to do so.",
            "filling-rpc-server": "evm version 1.14.4-unstable-3d8028a6-20240513",
            "filling-tool-version": "retesteth-0.3.2-cancun+commit.2a41f237.Linux.g++",
            "filling-transition-tool": "evm version 1.14.4-unstable-3d8028a6-20240513",
            "generatedTestHash": "5d1481f5ff9f4e00383bf634e4993ecb3769ee1d997c385326a90ce7717de9bf",
            "hash": "0xe2beb605bb4fdfd9e1b1d3121d34bea744aa43899f8488761cf6a04a14c0d03f",
            "lllcversion": "Version: 0.5.14-develop.2023.7.11+commit.c58ab2c6.mod.Linux.g++",
            "solidity": "Version: 0.8.21+commit.d9974bed.Linux.g++",
            "source": "src/GeneralStateTestsFiller/Pyspecs/cancun/eip5656_mcopy/test_mcopy_memory_expansionFiller_1.json",
            "sourceHash": "aa6911701ec28c6c7997e7bd82916483fbde772a1a9de663e049343378e23484",
            "url": "https://github.com/ethereum/execution-spec-tests/blob/87ef9bee36585b5b9f72d6eaafeeb1999b641d3c/tests/tmp/tmptest_0cf7c744_3edf_4222_98de_26b4f015ef78/test_mcopy_memory_expansion.py#L164"
        },
        "env": {
            "currentBaseFee": "0x07",
            "currentCoinbase": "0x2adc25665018aa1fe0e6bc666dac8fc2697ff9ba",
            "currentDifficulty": "0x00",
            "currentExcessBlobGas": "0x00",
            "currentGasLimit": "0x05f5e100",
            "currentNumber": "0x01",
            "currentRandom": "0x0000000000000000000000000000000000000000000000000000000000000000",
            "currentTimestamp": "0x03e8"
        },
        "post": {
            "Cancun": [
                {
                    "hash": "0x16a2dc65e56082357d3c5938562eaa06699fe6ebefe0d8d005690b40cd6dd167",
                    "indexes": {
                        "data": 0,
                        "gas": 0,
                        "value": 0
                    },
                    "logs": "0x1dcc4de8dec75d7aab85b567b6ccd41ad312451b948a7413f0a142fd40d49347",
                    "txbytes": "0x02f863018080078307a1209400000000000000000000000000000000000001008080c001a02377a34de7c8959d5422de9e45db6706278cbab53bad8e0811f36cc66314fea9a077708c5af841710bd2d0af800dd38af7bdd990dbe638e02d37793544243025fc"
                }
            ]
        },
        "pre": {
            "0x0000000000000000000000000000000000000100": {
                "balance": "0x00",
                "code": "0x3660006000376001600060003660006000610200601cf155",
                "nonce": "0x00",
                "storage": {}
            },
            "0x0000000000000000000000000000000000000200": {
                "balance": "0x00",
                "code": "0x36600060003760006000600060007fffffffffffffffffffffffffffffffffffffffffffffffffffffffffffffffff5ef3",
                "nonce": "0x00",
                "storage": {}
            },
            "0xa94f5374fce5edbc8e2a8697c15331677e6ebf0b": {
                "balance": "0x3567e0",
                "code": "0x",
                "nonce": "0x00",
                "storage": {}
            }
        },
        "transaction": {
            "accessLists": [
                []
            ],
            "data": [
                "0x"
            ],
            "gasLimit": [
                "0x07a120"
            ],
            "maxFeePerGas": "0x07",
            "maxPriorityFeePerGas": "0x00",
            "nonce": "0x00",
            "secretKey": "0x45a915e4d060149eb4365960e6a7a45f334393093061116b197e3240065ff2d8",
            "sender": "0xa94f5374fce5edbc8e2a8697c15331677e6ebf0b",
            "to": "0x0000000000000000000000000000000000000100",
            "value": [
                "0x00"
            ]
        }
    }
}