{
    "test_mcopy_12": {
        "_info": {
            "comment": "`execution-spec-tests` generated test",
            "description": "Test function documentation:\n\n    Perform MCOPY operations using different offsets and lengths:\n      - Zero inputs\n      - Memory rewrites (copy from and to the same location)\n      - Memory overwrites (copy from and to different locations)\n      - Memory extensions (copy to a location that is out of bounds)\n      - Memory clear (copy from a location that is out of bounds)",
            "filling-rpc-server": "evm version 1.14.4-unstable-3d8028a6-20240513",
            "filling-tool-version": "retesteth-0.3.2-cancun+commit.2a41f237.Linux.g++",
            "filling-transition-tool": "evm version 1.14.4-unstable-3d8028a6-20240513",
            "generatedTestHash": "69801debc4f98b29ea1c6e6d73f469e0224a2500d3fd63ccf9171d46845ed7f7",
            "hash": "0x4c8db907c56ac3f362e9147effb7c9997c8638150021ca974796d2d63eccc7b8",
            "lllcversion": "Version: 0.5.14-develop.2023.7.11+commit.c58ab2c6.mod.Linux.g++",
            "solidity": "Version: 0.8.21+commit.d9974bed.Linux.g++",
            "source": "src/GeneralStateTestsFiller/Pyspecs/cancun/eip5656_mcopy/test_mcopyFiller_12.json",
            "sourceHash": "68742703e7075a64e5354bc3baac73f4a1a82e77e4a7489d039d0a4901926da5",
            "url": "https://github.com/ethereum/execution-spec-tests/blob/87ef9bee36585b5b9f72d6eaafeeb1999b641d3c/tests/tmp/tmptest_6093e644_d8db_4775_8618_f5dc306aeb2c/test_mcopy.py#L130"
        },
        "env": {
            "currentBaseFee": "0x07",
            "currentCoinbase": "0x2adc25665018aa1fe0e6bc666dac8fc2697ff9ba",
            "currentDifficulty": "0x00",
            "currentExcessBlobGas": "0x00",
            "currentGasLimit": "0x016345785d8a0000",
            "currentNumber": "0x01",
            "currentRandom": "0x0000000000000000000000000000000000000000000000000000000000000000",
            "currentTimestamp": "0x03e8"
        },
        "post": {
            "Cancun": [
                {
                    "hash": "0xe9e0bd867b6f60aec4cba5ecc82c2c3fa37dc3cafcaa6d0d601c4b800e08793c",
                    "indexes": {
                        "data": 0,
                        "gas": 0,
                        "value": 0
                    },
                    "logs": "0x1dcc4de8dec75d7aab85b567b6ccd41ad312451b948a7413f0a142fd40d49347",
                    "txbytes": "0xf8c1800a830f424094000000000000000000000000000000000000010080b86000000000000000000000000000000000000000000000000000000000000000000000000000000000000000000000000000000000000000000000000000000000000000000000000000000000000000000000000000000000000000000000000125a0a7c1e9f4593d5d5d55714a71455212987b11ce014c41abfd875a03e94af37622a001a23b2d379ad108df2e1995691a53163d591fc1103a4e368999e61f3f75a12b"
                }
            ]
        },
        "pre": {
            "0x0000000000000000000000000000000000000100": {
                "balance": "0x00",
                "code": "0x7f000102030405060708090a0b0c0d0e0f101112131415161718191a1b1c1d1e1f6000527f202122232425262728292a2b2c2d2e2f303132333435363738393a3b3c3d3e3f6020527f404142434445464748494a4b4c4d4e4f505152535455565758595a5b5c5d5e5f6040527f606162636465666768696a6b6c6d6e6f707172737475767778797a7b7c7d7e7f6060527f808182838485868788898a8b8c8d8e8f909192939495969798999a9b9c9d9e9f6080527fa0a1a2a3a4a5a6a7a8a9aaabacadaeafb0b1b2b3b4b5b6b7b8b9babbbcbdbebf60a0527fc0c1c2c3c4c5c6c7c8c9cacbcccdcecfd0d1d2d3d4d5d6d7d8d9dadbdcdddedf60c0527fe0e1e2e3e4e5e6e7e8e9eaebecedeeeff0f1f2f3f4f5f6f7f8f9fafbfcfdfeff60e0526040356020356000355e596000555960002060015560005160025560205160035560405160045560605160055560805160065560a05160075560c05160085560e051600955",
                "nonce": "0x00",
                "storage": {}
            },
            "0xa94f5374fce5edbc8e2a8697c15331677e6ebf0b": {
                "balance": "0x1d6329f1c35ca4bfabb9f5610000000000",
                "code": "0x",
                "nonce": "0x00",
                "storage": {}
            }
        },
        "transaction": {
            "data": [
                "0x000000000000000000000000000000000000000000000000000000000000000000000000000000000000000000000000000000000000000000000000000000000000000000000000000000000000000000000000000000000000000000000001"
            ],
            "gasLimit": [
                "0x0f4240"
            ],
            "gasPrice": "0x0a",
            "nonce": "0x00",
            "secretKey": "0x45a915e4d060149eb4365960e6a7a45f334393093061116b197e3240065ff2d8",
            "sender": "0xa94f5374fce5edbc8e2a8697c15331677e6ebf0b",
            "to": "0x0000000000000000000000000000000000000100",
            "value": [
                "0x00"
            ]
        }
    }
}