{
    "StoreClearsAndInternalCallStoreClearsOOG_d0g0v0_Cancun" : {
        "_info" : {
            "comment" : "",
            "filling-rpc-server" : "evmone-t8n 0.13.0-82+commit.880ac821",
            "filling-tool-version" : "retesteth-0.3.2-legacy+commit.1d528976.Linux.g++",
            "generatedTestHash" : "e4b60ce4ed7937fa81d4cb2e76e407ed168c406a501e6cc3c0eb48b73bdcbd00",
            "lllcversion" : "Version: 0.5.14-develop.2024.11.5+commit.b2b86751.mod.Linux.g++",
            "solidity" : "Version: 0.8.24+commit.e11b9ed9.Linux.g++",
            "source" : "src/GeneralStateTestsFiller/stTransactionTest/StoreClearsAndInternalCallStoreClearsOOGFiller.json",
            "sourceHash" : "5f4356b1e5ef0ce419d6ccafaf7b5b65f5775d92092ed5fc04efa64edb89973c"
        },
        "blocks" : [
            {
                "blockHeader" : {
                    "baseFeePerGas" : "0x0a",
                    "blobGasUsed" : "0x00",
                    "bloom" : "0x00000000000000000000000000000000000000000000000000000000000000000000000000000000000000000000000000000000000000000000000000000000000000000000000000000000000000000000000000000000000000000000000000000000000000000000000000000000000000000000000000000000000000000000000000000000000000000000000000000000000000000000000000000000000000000000000000000000000000000000000000000000000000000000000000000000000000000000000000000000000000000000000000000000000000000000000000000000000000000000000000000000000000000000000000000000",
                    "coinbase" : "0xb94f5374fce5edbc8e2a8697c15331677e6ebf0b",
                    "difficulty" : "0x00",
                    "excessBlobGas" : "0x00",
                    "extraData" : "0x00",
                    "gasLimit" : "0x989680",
                    "gasUsed" : "0xe304",
                    "hash" : "0xea399cfa6aaddddbc37f6533d394700e2afabc2cd262d3fe90e9358afb732efd",
                    "mixHash" : "0x0000000000000000000000000000000000000000000000000000000000020000",
                    "nonce" : "0x0000000000000000",
                    "number" : "0x01",
                    "parentBeaconBlockRoot" : "0x0000000000000000000000000000000000000000000000000000000000000000",
                    "parentHash" : "0x56e8463158dd3b1ad8248aa6bfd7538f3aab966ebedb7c63c3e2b4e0b5832415",
                    "receiptTrie" : "0xca8466f97a8127433226782fac995e54a5992c455374c45ef0b158bac8778b60",
                    "stateRoot" : "0xd8342bd40f676b860b5962b72885e64a5e950903db9425a225e794ce617e512b",
                    "timestamp" : "0x03e8",
                    "transactionsTrie" : "0x899733514e0e054e738e315424dbc53e62cc0c6c0ed68f1cd3d4e26d9250044d",
                    "uncleHash" : "0x1dcc4de8dec75d7aab85b567b6ccd41ad312451b948a7413f0a142fd40d49347",
                    "withdrawalsRoot" : "0x56e81f171bcc55a6ff8345e692c0f86e5b48e01b996cadc001622fb5e363b421"
                },
                "rlp" : "0xf902a2f90239a056e8463158dd3b1ad8248aa6bfd7538f3aab966ebedb7c63c3e2b4e0b5832415a01dcc4de8dec75d7aab85b567b6ccd41ad312451b948a7413f0a142fd40d4934794b94f5374fce5edbc8e2a8697c15331677e6ebf0ba0d8342bd40f676b860b5962b72885e64a5e950903db9425a225e794ce617e512ba0899733514e0e054e738e315424dbc53e62cc0c6c0ed68f1cd3d4e26d9250044da0ca8466f97a8127433226782fac995e54a5992c455374c45ef0b158bac8778b60b901000000000000000000000000000000000000000000000000000000000000000000000000000000000000000000000000000000000000000000000000000000000000000000000000000000000000000000000000000000000000000000000000000000000000000000000000000000000000000000000000000000000000000000000000000000000000000000000000000000000000000000000000000000000000000000000000000000000000000000000000000000000000000000000000000000000000000000000000000000000000000000000000000000000000000000000000000000000000000000000000000000000000000000000000000000000080018398968082e3048203e800a000000000000000000000000000000000000000000000000000000000000200008800000000000000000aa056e81f171bcc55a6ff8345e692c0f86e5b48e01b996cadc001622fb5e363b4218080a00000000000000000000000000000000000000000000000000000000000000000f862f860800a83030d4094c94f5374fce5edbc8e2a8697c15331677e6ebf0b0a801ca0c9291e5983826f6d4d7cc91d0c22bf9e8079174ade181f2312bbef40d7f7dfc3a01670558c27459ba78b92ad368f4f6e15a84275da139a10c3c602d4baf61ebdbfc0c0",
                "transactions" : [
                    {
                        "data" : "0x",
                        "gasLimit" : "0x030d40",
                        "gasPrice" : "0x0a",
                        "nonce" : "0x00",
                        "r" : "0xc9291e5983826f6d4d7cc91d0c22bf9e8079174ade181f2312bbef40d7f7dfc3",
                        "s" : "0x1670558c27459ba78b92ad368f4f6e15a84275da139a10c3c602d4baf61ebdbf",
                        "sender" : "0xa94f5374fce5edbc8e2a8697c15331677e6ebf0b",
                        "to" : "0xc94f5374fce5edbc8e2a8697c15331677e6ebf0b",
                        "v" : "0x1c",
                        "value" : "0x0a"
                    }
                ],
                "uncleHeaders" : [
                ],
                "withdrawals" : [
                ]
            }
        ],
        "config" : {
            "blobSchedule" : {
                "Cancun" : {
                    "baseFeeUpdateFraction" : "0x32f0ed",
                    "max" : "0x06",
                    "target" : "0x03"
                }
            },
            "chainid" : "0x01",
            "network" : "Cancun"
        },
        "genesisBlockHeader" : {
            "baseFeePerGas" : "0x0b",
            "blobGasUsed" : "0x00",
            "bloom" : "0x00000000000000000000000000000000000000000000000000000000000000000000000000000000000000000000000000000000000000000000000000000000000000000000000000000000000000000000000000000000000000000000000000000000000000000000000000000000000000000000000000000000000000000000000000000000000000000000000000000000000000000000000000000000000000000000000000000000000000000000000000000000000000000000000000000000000000000000000000000000000000000000000000000000000000000000000000000000000000000000000000000000000000000000000000000000",
            "coinbase" : "0xb94f5374fce5edbc8e2a8697c15331677e6ebf0b",
            "difficulty" : "0x00",
            "excessBlobGas" : "0x060000",
            "extraData" : "0x00",
            "gasLimit" : "0x989680",
            "gasUsed" : "0x00",
            "hash" : "0x56e8463158dd3b1ad8248aa6bfd7538f3aab966ebedb7c63c3e2b4e0b5832415",
            "mixHash" : "0x0000000000000000000000000000000000000000000000000000000000020000",
            "nonce" : "0x0000000000000000",
            "number" : "0x00",
            "parentBeaconBlockRoot" : "0x0000000000000000000000000000000000000000000000000000000000000000",
            "parentHash" : "0x0000000000000000000000000000000000000000000000000000000000000000",
            "receiptTrie" : "0x56e81f171bcc55a6ff8345e692c0f86e5b48e01b996cadc001622fb5e363b421",
            "stateRoot" : "0x2818dca8b84071c33e5d0187145a5fa41fb3ae0c6e592ca54c0c82b95e82679c",
            "timestamp" : "0x00",
            "transactionsTrie" : "0x56e81f171bcc55a6ff8345e692c0f86e5b48e01b996cadc001622fb5e363b421",
            "uncleHash" : "0x1dcc4de8dec75d7aab85b567b6ccd41ad312451b948a7413f0a142fd40d49347",
            "withdrawalsRoot" : "0x56e81f171bcc55a6ff8345e692c0f86e5b48e01b996cadc001622fb5e363b421"
        },
        "genesisRLP" : "0xf9023ef90238a00000000000000000000000000000000000000000000000000000000000000000a01dcc4de8dec75d7aab85b567b6ccd41ad312451b948a7413f0a142fd40d4934794b94f5374fce5edbc8e2a8697c15331677e6ebf0ba02818dca8b84071c33e5d0187145a5fa41fb3ae0c6e592ca54c0c82b95e82679ca056e81f171bcc55a6ff8345e692c0f86e5b48e01b996cadc001622fb5e363b421a056e81f171bcc55a6ff8345e692c0f86e5b48e01b996cadc001622fb5e363b421b9010000000000000000000000000000000000000000000000000000000000000000000000000000000000000000000000000000000000000000000000000000000000000000000000000000000000000000000000000000000000000000000000000000000000000000000000000000000000000000000000000000000000000000000000000000000000000000000000000000000000000000000000000000000000000000000000000000000000000000000000000000000000000000000000000000000000000000000000000000000000000000000000000000000000000000000000000000000000000000000000000000000000000000000000000000000000808083989680808000a000000000000000000000000000000000000000000000000000000000000200008800000000000000000ba056e81f171bcc55a6ff8345e692c0f86e5b48e01b996cadc001622fb5e363b4218083060000a00000000000000000000000000000000000000000000000000000000000000000c0c0c0",
        "lastblockhash" : "0xea399cfa6aaddddbc37f6533d394700e2afabc2cd262d3fe90e9358afb732efd",
        "network" : "Cancun",
        "postState" : {
            "0x0000000000000000000000000000000000000000" : {
                "balance" : "0x00",
                "code" : "0x600060005560006001556000600255600060035560006004556000600555600060065560006007556000600855600060095500",
                "nonce" : "0x00",
                "storage" : {
                    "0x00" : "0x0c",
                    "0x01" : "0x0c",
                    "0x02" : "0x0c",
                    "0x03" : "0x0c",
                    "0x04" : "0x0c",
                    "0x05" : "0x0c",
                    "0x06" : "0x0c",
                    "0x07" : "0x0c",
                    "0x08" : "0x0c",
                    "0x09" : "0x0c"
                }
            },
            "0x000f3df6d732807ef1319fb7b8bb8522d0beac02" : {
                "balance" : "0x00",
                "code" : "0x3373fffffffffffffffffffffffffffffffffffffffe14604d57602036146024575f5ffd5b5f35801560495762001fff810690815414603c575f5ffd5b62001fff01545f5260205ff35b5f5ffd5b62001fff42064281555f359062001fff015500",
                "nonce" : "0x01",
                "storage" : {
                    "0x03e8" : "0x03e8"
                }
            },
            "0xa94f5374fce5edbc8e2a8697c15331677e6ebf0b" : {
                "balance" : "0x1dc486ce",
                "code" : "0x",
                "nonce" : "0x01",
                "storage" : {
                }
            },
            "0xc94f5374fce5edbc8e2a8697c15331677e6ebf0b" : {
                "balance" : "0x14",
                "code" : "0x6000600055600060015560006002556000600355600060006000600060016000614e20f100",
                "nonce" : "0x00",
                "storage" : {
                    "0x04" : "0x0c"
                }
            }
        },
        "pre" : {
            "0x0000000000000000000000000000000000000000" : {
                "balance" : "0x00",
                "code" : "0x600060005560006001556000600255600060035560006004556000600555600060065560006007556000600855600060095500",
                "nonce" : "0x00",
                "storage" : {
                    "0x00" : "0x0c",
                    "0x01" : "0x0c",
                    "0x02" : "0x0c",
                    "0x03" : "0x0c",
                    "0x04" : "0x0c",
                    "0x05" : "0x0c",
                    "0x06" : "0x0c",
                    "0x07" : "0x0c",
                    "0x08" : "0x0c",
                    "0x09" : "0x0c"
                }
            },
            "0x000f3df6d732807ef1319fb7b8bb8522d0beac02" : {
                "balance" : "0x00",
                "code" : "0x3373fffffffffffffffffffffffffffffffffffffffe14604d57602036146024575f5ffd5b5f35801560495762001fff810690815414603c575f5ffd5b62001fff01545f5260205ff35b5f5ffd5b62001fff42064281555f359062001fff015500",
                "nonce" : "0x01",
                "storage" : {
                }
            },
            "0xa94f5374fce5edbc8e2a8697c15331677e6ebf0b" : {
                "balance" : "0x1dcd6500",
                "code" : "0x",
                "nonce" : "0x00",
                "storage" : {
                }
            },
            "0xc94f5374fce5edbc8e2a8697c15331677e6ebf0b" : {
                "balance" : "0x0a",
                "code" : "0x6000600055600060015560006002556000600355600060006000600060016000614e20f100",
                "nonce" : "0x00",
                "storage" : {
                    "0x00" : "0x0c",
                    "0x01" : "0x0c",
                    "0x02" : "0x0c",
                    "0x03" : "0x0c",
                    "0x04" : "0x0c"
                }
            }
        },
        "sealEngine" : "NoProof"
    },
    "StoreClearsAndInternalCallStoreClearsOOG_d0g0v0_Prague" : {
        "_info" : {
            "comment" : "",
            "filling-rpc-server" : "evmone-t8n 0.13.0-82+commit.880ac821",
            "filling-tool-version" : "retesteth-0.3.2-legacy+commit.1d528976.Linux.g++",
            "generatedTestHash" : "8c1d1453aa00dea67e8789ed654b0c1dd9a6edcd4938054039b365a0ba487bdc",
            "lllcversion" : "Version: 0.5.14-develop.2024.11.5+commit.b2b86751.mod.Linux.g++",
            "solidity" : "Version: 0.8.24+commit.e11b9ed9.Linux.g++",
            "source" : "src/GeneralStateTestsFiller/stTransactionTest/StoreClearsAndInternalCallStoreClearsOOGFiller.json",
            "sourceHash" : "5f4356b1e5ef0ce419d6ccafaf7b5b65f5775d92092ed5fc04efa64edb89973c"
        },
        "blocks" : [
            {
                "blockHeader" : {
                    "baseFeePerGas" : "0x0a",
                    "blobGasUsed" : "0x00",
                    "bloom" : "0x00000000000000000000000000000000000000000000000000000000000000000000000000000000000000000000000000000000000000000000000000000000000000000000000000000000000000000000000000000000000000000000000000000000000000000000000000000000000000000000000000000000000000000000000000000000000000000000000000000000000000000000000000000000000000000000000000000000000000000000000000000000000000000000000000000000000000000000000000000000000000000000000000000000000000000000000000000000000000000000000000000000000000000000000000000000",
                    "coinbase" : "0xb94f5374fce5edbc8e2a8697c15331677e6ebf0b",
                    "difficulty" : "0x00",
                    "excessBlobGas" : "0x00",
                    "extraData" : "0x00",
                    "gasLimit" : "0x989680",
                    "gasUsed" : "0xe304",
                    "hash" : "0x2345d933d120bf9f9cf47da2756ab99cdba27598b56c15ad09237b46f3b57485",
                    "mixHash" : "0x0000000000000000000000000000000000000000000000000000000000020000",
                    "nonce" : "0x0000000000000000",
                    "number" : "0x01",
                    "parentBeaconBlockRoot" : "0x0000000000000000000000000000000000000000000000000000000000000000",
                    "parentHash" : "0x0c1a9d1bfdea66471ae474f7a06b988bb821105bece2cd472500244ab7b4f2e4",
                    "receiptTrie" : "0xca8466f97a8127433226782fac995e54a5992c455374c45ef0b158bac8778b60",
                    "requestsHash" : "0xe3b0c44298fc1c149afbf4c8996fb92427ae41e4649b934ca495991b7852b855",
                    "stateRoot" : "0xd8342bd40f676b860b5962b72885e64a5e950903db9425a225e794ce617e512b",
                    "timestamp" : "0x03e8",
                    "transactionsTrie" : "0x899733514e0e054e738e315424dbc53e62cc0c6c0ed68f1cd3d4e26d9250044d",
                    "uncleHash" : "0x1dcc4de8dec75d7aab85b567b6ccd41ad312451b948a7413f0a142fd40d49347",
                    "withdrawalsRoot" : "0x56e81f171bcc55a6ff8345e692c0f86e5b48e01b996cadc001622fb5e363b421"
                },
                "rlp" : "0xf902c3f9025aa00c1a9d1bfdea66471ae474f7a06b988bb821105bece2cd472500244ab7b4f2e4a01dcc4de8dec75d7aab85b567b6ccd41ad312451b948a7413f0a142fd40d4934794b94f5374fce5edbc8e2a8697c15331677e6ebf0ba0d8342bd40f676b860b5962b72885e64a5e950903db9425a225e794ce617e512ba0899733514e0e054e738e315424dbc53e62cc0c6c0ed68f1cd3d4e26d9250044da0ca8466f97a8127433226782fac995e54a5992c455374c45ef0b158bac8778b60b901000000000000000000000000000000000000000000000000000000000000000000000000000000000000000000000000000000000000000000000000000000000000000000000000000000000000000000000000000000000000000000000000000000000000000000000000000000000000000000000000000000000000000000000000000000000000000000000000000000000000000000000000000000000000000000000000000000000000000000000000000000000000000000000000000000000000000000000000000000000000000000000000000000000000000000000000000000000000000000000000000000000000000000000000000000000080018398968082e3048203e800a000000000000000000000000000000000000000000000000000000000000200008800000000000000000aa056e81f171bcc55a6ff8345e692c0f86e5b48e01b996cadc001622fb5e363b4218080a00000000000000000000000000000000000000000000000000000000000000000a0e3b0c44298fc1c149afbf4c8996fb92427ae41e4649b934ca495991b7852b855f862f860800a83030d4094c94f5374fce5edbc8e2a8697c15331677e6ebf0b0a801ca0c9291e5983826f6d4d7cc91d0c22bf9e8079174ade181f2312bbef40d7f7dfc3a01670558c27459ba78b92ad368f4f6e15a84275da139a10c3c602d4baf61ebdbfc0c0",
                "transactions" : [
                    {
                        "data" : "0x",
                        "gasLimit" : "0x030d40",
                        "gasPrice" : "0x0a",
                        "nonce" : "0x00",
                        "r" : "0xc9291e5983826f6d4d7cc91d0c22bf9e8079174ade181f2312bbef40d7f7dfc3",
                        "s" : "0x1670558c27459ba78b92ad368f4f6e15a84275da139a10c3c602d4baf61ebdbf",
                        "sender" : "0xa94f5374fce5edbc8e2a8697c15331677e6ebf0b",
                        "to" : "0xc94f5374fce5edbc8e2a8697c15331677e6ebf0b",
                        "v" : "0x1c",
                        "value" : "0x0a"
                    }
                ],
                "uncleHeaders" : [
                ],
                "withdrawals" : [
                ]
            }
        ],
        "config" : {
            "blobSchedule" : {
                "Prague" : {
                    "baseFeeUpdateFraction" : "0x4c6964",
                    "max" : "0x09",
                    "target" : "0x06"
                }
            },
            "chainid" : "0x01",
            "network" : "Prague"
        },
        "genesisBlockHeader" : {
            "baseFeePerGas" : "0x0b",
            "blobGasUsed" : "0x00",
            "bloom" : "0x00000000000000000000000000000000000000000000000000000000000000000000000000000000000000000000000000000000000000000000000000000000000000000000000000000000000000000000000000000000000000000000000000000000000000000000000000000000000000000000000000000000000000000000000000000000000000000000000000000000000000000000000000000000000000000000000000000000000000000000000000000000000000000000000000000000000000000000000000000000000000000000000000000000000000000000000000000000000000000000000000000000000000000000000000000000",
            "coinbase" : "0xb94f5374fce5edbc8e2a8697c15331677e6ebf0b",
            "difficulty" : "0x00",
            "excessBlobGas" : "0x060000",
            "extraData" : "0x00",
            "gasLimit" : "0x989680",
            "gasUsed" : "0x00",
            "hash" : "0x0c1a9d1bfdea66471ae474f7a06b988bb821105bece2cd472500244ab7b4f2e4",
            "mixHash" : "0x0000000000000000000000000000000000000000000000000000000000020000",
            "nonce" : "0x0000000000000000",
            "number" : "0x00",
            "parentBeaconBlockRoot" : "0x0000000000000000000000000000000000000000000000000000000000000000",
            "parentHash" : "0x0000000000000000000000000000000000000000000000000000000000000000",
            "receiptTrie" : "0x56e81f171bcc55a6ff8345e692c0f86e5b48e01b996cadc001622fb5e363b421",
            "requestsHash" : "0xe3b0c44298fc1c149afbf4c8996fb92427ae41e4649b934ca495991b7852b855",
            "stateRoot" : "0x2818dca8b84071c33e5d0187145a5fa41fb3ae0c6e592ca54c0c82b95e82679c",
            "timestamp" : "0x00",
            "transactionsTrie" : "0x56e81f171bcc55a6ff8345e692c0f86e5b48e01b996cadc001622fb5e363b421",
            "uncleHash" : "0x1dcc4de8dec75d7aab85b567b6ccd41ad312451b948a7413f0a142fd40d49347",
            "withdrawalsRoot" : "0x56e81f171bcc55a6ff8345e692c0f86e5b48e01b996cadc001622fb5e363b421"
        },
        "genesisRLP" : "0xf9025ff90259a00000000000000000000000000000000000000000000000000000000000000000a01dcc4de8dec75d7aab85b567b6ccd41ad312451b948a7413f0a142fd40d4934794b94f5374fce5edbc8e2a8697c15331677e6ebf0ba02818dca8b84071c33e5d0187145a5fa41fb3ae0c6e592ca54c0c82b95e82679ca056e81f171bcc55a6ff8345e692c0f86e5b48e01b996cadc001622fb5e363b421a056e81f171bcc55a6ff8345e692c0f86e5b48e01b996cadc001622fb5e363b421b9010000000000000000000000000000000000000000000000000000000000000000000000000000000000000000000000000000000000000000000000000000000000000000000000000000000000000000000000000000000000000000000000000000000000000000000000000000000000000000000000000000000000000000000000000000000000000000000000000000000000000000000000000000000000000000000000000000000000000000000000000000000000000000000000000000000000000000000000000000000000000000000000000000000000000000000000000000000000000000000000000000000000000000000000000000000000808083989680808000a000000000000000000000000000000000000000000000000000000000000200008800000000000000000ba056e81f171bcc55a6ff8345e692c0f86e5b48e01b996cadc001622fb5e363b4218083060000a00000000000000000000000000000000000000000000000000000000000000000a0e3b0c44298fc1c149afbf4c8996fb92427ae41e4649b934ca495991b7852b855c0c0c0",
        "lastblockhash" : "0x2345d933d120bf9f9cf47da2756ab99cdba27598b56c15ad09237b46f3b57485",
        "network" : "Prague",
        "postState" : {
            "0x0000000000000000000000000000000000000000" : {
                "balance" : "0x00",
                "code" : "0x600060005560006001556000600255600060035560006004556000600555600060065560006007556000600855600060095500",
                "nonce" : "0x00",
                "storage" : {
                    "0x00" : "0x0c",
                    "0x01" : "0x0c",
                    "0x02" : "0x0c",
                    "0x03" : "0x0c",
                    "0x04" : "0x0c",
                    "0x05" : "0x0c",
                    "0x06" : "0x0c",
                    "0x07" : "0x0c",
                    "0x08" : "0x0c",
                    "0x09" : "0x0c"
                }
            },
            "0x000f3df6d732807ef1319fb7b8bb8522d0beac02" : {
                "balance" : "0x00",
                "code" : "0x3373fffffffffffffffffffffffffffffffffffffffe14604d57602036146024575f5ffd5b5f35801560495762001fff810690815414603c575f5ffd5b62001fff01545f5260205ff35b5f5ffd5b62001fff42064281555f359062001fff015500",
                "nonce" : "0x01",
                "storage" : {
                    "0x03e8" : "0x03e8"
                }
            },
            "0xa94f5374fce5edbc8e2a8697c15331677e6ebf0b" : {
                "balance" : "0x1dc486ce",
                "code" : "0x",
                "nonce" : "0x01",
                "storage" : {
                }
            },
            "0xc94f5374fce5edbc8e2a8697c15331677e6ebf0b" : {
                "balance" : "0x14",
                "code" : "0x6000600055600060015560006002556000600355600060006000600060016000614e20f100",
                "nonce" : "0x00",
                "storage" : {
                    "0x04" : "0x0c"
                }
            }
        },
        "pre" : {
            "0x0000000000000000000000000000000000000000" : {
                "balance" : "0x00",
                "code" : "0x600060005560006001556000600255600060035560006004556000600555600060065560006007556000600855600060095500",
                "nonce" : "0x00",
                "storage" : {
                    "0x00" : "0x0c",
                    "0x01" : "0x0c",
                    "0x02" : "0x0c",
                    "0x03" : "0x0c",
                    "0x04" : "0x0c",
                    "0x05" : "0x0c",
                    "0x06" : "0x0c",
                    "0x07" : "0x0c",
                    "0x08" : "0x0c",
                    "0x09" : "0x0c"
                }
            },
            "0x000f3df6d732807ef1319fb7b8bb8522d0beac02" : {
                "balance" : "0x00",
                "code" : "0x3373fffffffffffffffffffffffffffffffffffffffe14604d57602036146024575f5ffd5b5f35801560495762001fff810690815414603c575f5ffd5b62001fff01545f5260205ff35b5f5ffd5b62001fff42064281555f359062001fff015500",
                "nonce" : "0x01",
                "storage" : {
                }
            },
            "0xa94f5374fce5edbc8e2a8697c15331677e6ebf0b" : {
                "balance" : "0x1dcd6500",
                "code" : "0x",
                "nonce" : "0x00",
                "storage" : {
                }
            },
            "0xc94f5374fce5edbc8e2a8697c15331677e6ebf0b" : {
                "balance" : "0x0a",
                "code" : "0x6000600055600060015560006002556000600355600060006000600060016000614e20f100",
                "nonce" : "0x00",
                "storage" : {
                    "0x00" : "0x0c",
                    "0x01" : "0x0c",
                    "0x02" : "0x0c",
                    "0x03" : "0x0c",
                    "0x04" : "0x0c"
                }
            }
        },
        "sealEngine" : "NoProof"
    }
}