{
    "10_revertUndoesStoreAfterReturn_d0g0v0_Cancun" : {
        "_info" : {
            "comment" : "Revert undoes the transient storage writes after a successful call.",
            "filling-rpc-server" : "evmone-t8n 0.13.0-82+commit.880ac821",
            "filling-tool-version" : "retesteth-0.3.2-legacy+commit.1d528976.Linux.g++",
            "generatedTestHash" : "bce9f84ab5523841bce145d8f66a1707124033b538637d96f1c1c6fdde3daad5",
            "lllcversion" : "Version: 0.5.14-develop.2024.11.5+commit.b2b86751.mod.Linux.g++",
            "solidity" : "Version: 0.8.24+commit.e11b9ed9.Linux.g++",
            "source" : "src/GeneralStateTestsFiller/Cancun/stEIP1153-transientStorage/10_revertUndoesStoreAfterReturnFiller.yml",
            "sourceHash" : "5138279197c12e7d349cb50a0f3d9c8ceaef4310463fb11af9b6a346ad5a5918"
        },
        "blocks" : [
            {
                "blockHeader" : {
                    "baseFeePerGas" : "0x0a",
                    "blobGasUsed" : "0x00",
                    "bloom" : "0x00000000000000000000000000000000000000000000000000000000000000000000000000000000000000000000000000000000000000000000000000000000000000000000000000000000000000000000000000000000000000000000000000000000000000000000000000000000000000000000000000000000000000000000000000000000000000000000000000000000000000000000000000000000000000000000000000000000000000000000000000000000000000000000000000000000000000000000000000000000000000000000000000000000000000000000000000000000000000000000000000000000000000000000000000000000",
                    "coinbase" : "0x2adc25665018aa1fe0e6bc666dac8fc2697ff9ba",
                    "difficulty" : "0x00",
                    "excessBlobGas" : "0x00",
                    "extraData" : "0x00",
                    "gasLimit" : "0x10000000000000",
                    "gasUsed" : "0x0159a9",
                    "hash" : "0xca2e5143a2384414736a32c898f032d835feb43dec9cd6a77f7e2b2695e4cf14",
                    "mixHash" : "0x0000000000000000000000000000000000000000000000000000000000020000",
                    "nonce" : "0x0000000000000000",
                    "number" : "0x01",
                    "parentBeaconBlockRoot" : "0x0000000000000000000000000000000000000000000000000000000000000000",
                    "parentHash" : "0x1bd8cc1b182ec860a1042ad2e1c130fd5e56cb050b9f1fe368de36725cf2e792",
                    "receiptTrie" : "0xb4c87f24354d08cf9236e562c41d084f952ebe2eeaebbda7c7dc37b7e8250960",
                    "stateRoot" : "0x269d8105e39aab8ff4d4905b1cb2b2c391d38283d460c5d29d4fceec2f1ba9fb",
                    "timestamp" : "0x03e8",
                    "transactionsTrie" : "0xf6e12dfc6046d92745b723eb0f5d0504e20053c75d6e78d8f2deeb464d9e24b1",
                    "uncleHash" : "0x1dcc4de8dec75d7aab85b567b6ccd41ad312451b948a7413f0a142fd40d49347",
                    "withdrawalsRoot" : "0x56e81f171bcc55a6ff8345e692c0f86e5b48e01b996cadc001622fb5e363b421"
                },
                "rlp" : "0xf902b3f9023ea01bd8cc1b182ec860a1042ad2e1c130fd5e56cb050b9f1fe368de36725cf2e792a01dcc4de8dec75d7aab85b567b6ccd41ad312451b948a7413f0a142fd40d49347942adc25665018aa1fe0e6bc666dac8fc2697ff9baa0269d8105e39aab8ff4d4905b1cb2b2c391d38283d460c5d29d4fceec2f1ba9fba0f6e12dfc6046d92745b723eb0f5d0504e20053c75d6e78d8f2deeb464d9e24b1a0b4c87f24354d08cf9236e562c41d084f952ebe2eeaebbda7c7dc37b7e8250960b901000000000000000000000000000000000000000000000000000000000000000000000000000000000000000000000000000000000000000000000000000000000000000000000000000000000000000000000000000000000000000000000000000000000000000000000000000000000000000000000000000000000000000000000000000000000000000000000000000000000000000000000000000000000000000000000000000000000000000000000000000000000000000000000000000000000000000000000000000000000000000000000000000000000000000000000000000000000000000000000000000000000000000000000000000000000080018710000000000000830159a98203e800a000000000000000000000000000000000000000000000000000000000000200008800000000000000000aa056e81f171bcc55a6ff8345e692c0f86e5b48e01b996cadc001622fb5e363b4218080a00000000000000000000000000000000000000000000000000000000000000000f86eb86c02f8690180808207d083061a8094a00000000000000000000000000000000000000a808470ac643ec001a0d291a8b33b4d2414a921a32715b55846147d0a6ffe6c5992a115e0fa60ab4d57a02f5701d3d33d024aa80b46ed86dba7bfbd825b2172f4c5c6aeeadb1c28685d57c0c0",
                "transactions" : [
                    {
                        "accessList" : [
                        ],
                        "chainId" : "0x01",
                        "data" : "0x70ac643e",
                        "gasLimit" : "0x061a80",
                        "maxFeePerGas" : "0x07d0",
                        "maxPriorityFeePerGas" : "0x00",
                        "nonce" : "0x00",
                        "r" : "0xd291a8b33b4d2414a921a32715b55846147d0a6ffe6c5992a115e0fa60ab4d57",
                        "s" : "0x2f5701d3d33d024aa80b46ed86dba7bfbd825b2172f4c5c6aeeadb1c28685d57",
                        "sender" : "0xa94f5374fce5edbc8e2a8697c15331677e6ebf0b",
                        "to" : "0xa00000000000000000000000000000000000000a",
                        "type" : "0x02",
                        "v" : "0x01",
                        "value" : "0x00"
                    }
                ],
                "uncleHeaders" : [
                ],
                "withdrawals" : [
                ]
            }
        ],
        "config" : {
            "blobSchedule" : {
                "Cancun" : {
                    "baseFeeUpdateFraction" : "0x32f0ed",
                    "max" : "0x06",
                    "target" : "0x03"
                }
            },
            "chainid" : "0x01",
            "network" : "Cancun"
        },
        "genesisBlockHeader" : {
            "baseFeePerGas" : "0x0b",
            "blobGasUsed" : "0x00",
            "bloom" : "0x00000000000000000000000000000000000000000000000000000000000000000000000000000000000000000000000000000000000000000000000000000000000000000000000000000000000000000000000000000000000000000000000000000000000000000000000000000000000000000000000000000000000000000000000000000000000000000000000000000000000000000000000000000000000000000000000000000000000000000000000000000000000000000000000000000000000000000000000000000000000000000000000000000000000000000000000000000000000000000000000000000000000000000000000000000000",
            "coinbase" : "0x2adc25665018aa1fe0e6bc666dac8fc2697ff9ba",
            "difficulty" : "0x00",
            "excessBlobGas" : "0x060000",
            "extraData" : "0x00",
            "gasLimit" : "0x10000000000000",
            "gasUsed" : "0x00",
            "hash" : "0x1bd8cc1b182ec860a1042ad2e1c130fd5e56cb050b9f1fe368de36725cf2e792",
            "mixHash" : "0x0000000000000000000000000000000000000000000000000000000000020000",
            "nonce" : "0x0000000000000000",
            "number" : "0x00",
            "parentBeaconBlockRoot" : "0x0000000000000000000000000000000000000000000000000000000000000000",
            "parentHash" : "0x0000000000000000000000000000000000000000000000000000000000000000",
            "receiptTrie" : "0x56e81f171bcc55a6ff8345e692c0f86e5b48e01b996cadc001622fb5e363b421",
            "stateRoot" : "0x2a811ce0d14d5a7bf86b3b588cd50f6cf28184f9fd15612699d78b5890611979",
            "timestamp" : "0x00",
            "transactionsTrie" : "0x56e81f171bcc55a6ff8345e692c0f86e5b48e01b996cadc001622fb5e363b421",
            "uncleHash" : "0x1dcc4de8dec75d7aab85b567b6ccd41ad312451b948a7413f0a142fd40d49347",
            "withdrawalsRoot" : "0x56e81f171bcc55a6ff8345e692c0f86e5b48e01b996cadc001622fb5e363b421"
        },
        "genesisRLP" : "0xf90242f9023ca00000000000000000000000000000000000000000000000000000000000000000a01dcc4de8dec75d7aab85b567b6ccd41ad312451b948a7413f0a142fd40d49347942adc25665018aa1fe0e6bc666dac8fc2697ff9baa02a811ce0d14d5a7bf86b3b588cd50f6cf28184f9fd15612699d78b5890611979a056e81f171bcc55a6ff8345e692c0f86e5b48e01b996cadc001622fb5e363b421a056e81f171bcc55a6ff8345e692c0f86e5b48e01b996cadc001622fb5e363b421b901000000000000000000000000000000000000000000000000000000000000000000000000000000000000000000000000000000000000000000000000000000000000000000000000000000000000000000000000000000000000000000000000000000000000000000000000000000000000000000000000000000000000000000000000000000000000000000000000000000000000000000000000000000000000000000000000000000000000000000000000000000000000000000000000000000000000000000000000000000000000000000000000000000000000000000000000000000000000000000000000000000000000000000000000000000000080808710000000000000808000a000000000000000000000000000000000000000000000000000000000000200008800000000000000000ba056e81f171bcc55a6ff8345e692c0f86e5b48e01b996cadc001622fb5e363b4218083060000a00000000000000000000000000000000000000000000000000000000000000000c0c0c0",
        "lastblockhash" : "0xca2e5143a2384414736a32c898f032d835feb43dec9cd6a77f7e2b2695e4cf14",
        "network" : "Cancun",
        "postState" : {
            "0x000f3df6d732807ef1319fb7b8bb8522d0beac02" : {
                "balance" : "0x00",
                "code" : "0x3373fffffffffffffffffffffffffffffffffffffffe14604d57602036146024575f5ffd5b5f35801560495762001fff810690815414603c575f5ffd5b62001fff01545f5260205ff35b5f5ffd5b62001fff42064281555f359062001fff015500",
                "nonce" : "0x01",
                "storage" : {
                    "0x03e8" : "0x03e8"
                }
            },
            "0xa00000000000000000000000000000000000000a" : {
                "balance" : "0x0de0b6b3a7640000",
                "code" : "0x5f3560e01c806370ac643e14602f57806376b85d2314602b57634ccca55314602357005b60296076565b005b605c565b50602960055f5d5f5c5f556376b85d2360e01b5f5260205f818180305af16001555f516002555f5c600355565b634ccca55360e01b5f525f8060208180305af15f5260205ffd5b60065f5d56",
                "nonce" : "0x00",
                "storage" : {
                    "0x00" : "0x05",
                    "0x02" : "0x01",
                    "0x03" : "0x05"
                }
            },
            "0xa94f5374fce5edbc8e2a8697c15331677e6ebf0b" : {
                "balance" : "0x3635c9adc5de927f66",
                "code" : "0x",
                "nonce" : "0x01",
                "storage" : {
                }
            }
        },
        "pre" : {
            "0x000f3df6d732807ef1319fb7b8bb8522d0beac02" : {
                "balance" : "0x00",
                "code" : "0x3373fffffffffffffffffffffffffffffffffffffffe14604d57602036146024575f5ffd5b5f35801560495762001fff810690815414603c575f5ffd5b62001fff01545f5260205ff35b5f5ffd5b62001fff42064281555f359062001fff015500",
                "nonce" : "0x01",
                "storage" : {
                }
            },
            "0xa00000000000000000000000000000000000000a" : {
                "balance" : "0x0de0b6b3a7640000",
                "code" : "0x5f3560e01c806370ac643e14602f57806376b85d2314602b57634ccca55314602357005b60296076565b005b605c565b50602960055f5d5f5c5f556376b85d2360e01b5f5260205f818180305af16001555f516002555f5c600355565b634ccca55360e01b5f525f8060208180305af15f5260205ffd5b60065f5d56",
                "nonce" : "0x00",
                "storage" : {
                    "0x01" : "0xffff"
                }
            },
            "0xa94f5374fce5edbc8e2a8697c15331677e6ebf0b" : {
                "balance" : "0x3635c9adc5dea00000",
                "code" : "0x",
                "nonce" : "0x00",
                "storage" : {
                }
            }
        },
        "sealEngine" : "NoProof"
    },
    "10_revertUndoesStoreAfterReturn_d0g0v0_Prague" : {
        "_info" : {
            "comment" : "Revert undoes the transient storage writes after a successful call.",
            "filling-rpc-server" : "evmone-t8n 0.13.0-82+commit.880ac821",
            "filling-tool-version" : "retesteth-0.3.2-legacy+commit.1d528976.Linux.g++",
            "generatedTestHash" : "7763c694a8d60cd53d40c2bef3f5693f03fc4177a986b0471832d7acb58e0ed0",
            "lllcversion" : "Version: 0.5.14-develop.2024.11.5+commit.b2b86751.mod.Linux.g++",
            "solidity" : "Version: 0.8.24+commit.e11b9ed9.Linux.g++",
            "source" : "src/GeneralStateTestsFiller/Cancun/stEIP1153-transientStorage/10_revertUndoesStoreAfterReturnFiller.yml",
            "sourceHash" : "5138279197c12e7d349cb50a0f3d9c8ceaef4310463fb11af9b6a346ad5a5918"
        },
        "blocks" : [
            {
                "blockHeader" : {
                    "baseFeePerGas" : "0x0a",
                    "blobGasUsed" : "0x00",
                    "bloom" : "0x00000000000000000000000000000000000000000000000000000000000000000000000000000000000000000000000000000000000000000000000000000000000000000000000000000000000000000000000000000000000000000000000000000000000000000000000000000000000000000000000000000000000000000000000000000000000000000000000000000000000000000000000000000000000000000000000000000000000000000000000000000000000000000000000000000000000000000000000000000000000000000000000000000000000000000000000000000000000000000000000000000000000000000000000000000000",
                    "coinbase" : "0x2adc25665018aa1fe0e6bc666dac8fc2697ff9ba",
                    "difficulty" : "0x00",
                    "excessBlobGas" : "0x00",
                    "extraData" : "0x00",
                    "gasLimit" : "0x10000000000000",
                    "gasUsed" : "0x0159a9",
                    "hash" : "0xd66fcfcdfe214b2ee3b171185f3a60afadf9b1e0ad1d6574183c411d82abdffa",
                    "mixHash" : "0x0000000000000000000000000000000000000000000000000000000000020000",
                    "nonce" : "0x0000000000000000",
                    "number" : "0x01",
                    "parentBeaconBlockRoot" : "0x0000000000000000000000000000000000000000000000000000000000000000",
                    "parentHash" : "0x891ecdade6c296bbf26f361dedda94b94033e97d39b6ee9e0d8fcbbdc49e232c",
                    "receiptTrie" : "0xb4c87f24354d08cf9236e562c41d084f952ebe2eeaebbda7c7dc37b7e8250960",
                    "requestsHash" : "0xe3b0c44298fc1c149afbf4c8996fb92427ae41e4649b934ca495991b7852b855",
                    "stateRoot" : "0x269d8105e39aab8ff4d4905b1cb2b2c391d38283d460c5d29d4fceec2f1ba9fb",
                    "timestamp" : "0x03e8",
                    "transactionsTrie" : "0xf6e12dfc6046d92745b723eb0f5d0504e20053c75d6e78d8f2deeb464d9e24b1",
                    "uncleHash" : "0x1dcc4de8dec75d7aab85b567b6ccd41ad312451b948a7413f0a142fd40d49347",
                    "withdrawalsRoot" : "0x56e81f171bcc55a6ff8345e692c0f86e5b48e01b996cadc001622fb5e363b421"
                },
                "rlp" : "0xf902d4f9025fa0891ecdade6c296bbf26f361dedda94b94033e97d39b6ee9e0d8fcbbdc49e232ca01dcc4de8dec75d7aab85b567b6ccd41ad312451b948a7413f0a142fd40d49347942adc25665018aa1fe0e6bc666dac8fc2697ff9baa0269d8105e39aab8ff4d4905b1cb2b2c391d38283d460c5d29d4fceec2f1ba9fba0f6e12dfc6046d92745b723eb0f5d0504e20053c75d6e78d8f2deeb464d9e24b1a0b4c87f24354d08cf9236e562c41d084f952ebe2eeaebbda7c7dc37b7e8250960b901000000000000000000000000000000000000000000000000000000000000000000000000000000000000000000000000000000000000000000000000000000000000000000000000000000000000000000000000000000000000000000000000000000000000000000000000000000000000000000000000000000000000000000000000000000000000000000000000000000000000000000000000000000000000000000000000000000000000000000000000000000000000000000000000000000000000000000000000000000000000000000000000000000000000000000000000000000000000000000000000000000000000000000000000000000000080018710000000000000830159a98203e800a000000000000000000000000000000000000000000000000000000000000200008800000000000000000aa056e81f171bcc55a6ff8345e692c0f86e5b48e01b996cadc001622fb5e363b4218080a00000000000000000000000000000000000000000000000000000000000000000a0e3b0c44298fc1c149afbf4c8996fb92427ae41e4649b934ca495991b7852b855f86eb86c02f8690180808207d083061a8094a00000000000000000000000000000000000000a808470ac643ec001a0d291a8b33b4d2414a921a32715b55846147d0a6ffe6c5992a115e0fa60ab4d57a02f5701d3d33d024aa80b46ed86dba7bfbd825b2172f4c5c6aeeadb1c28685d57c0c0",
                "transactions" : [
                    {
                        "accessList" : [
                        ],
                        "chainId" : "0x01",
                        "data" : "0x70ac643e",
                        "gasLimit" : "0x061a80",
                        "maxFeePerGas" : "0x07d0",
                        "maxPriorityFeePerGas" : "0x00",
                        "nonce" : "0x00",
                        "r" : "0xd291a8b33b4d2414a921a32715b55846147d0a6ffe6c5992a115e0fa60ab4d57",
                        "s" : "0x2f5701d3d33d024aa80b46ed86dba7bfbd825b2172f4c5c6aeeadb1c28685d57",
                        "sender" : "0xa94f5374fce5edbc8e2a8697c15331677e6ebf0b",
                        "to" : "0xa00000000000000000000000000000000000000a",
                        "type" : "0x02",
                        "v" : "0x01",
                        "value" : "0x00"
                    }
                ],
                "uncleHeaders" : [
                ],
                "withdrawals" : [
                ]
            }
        ],
        "config" : {
            "blobSchedule" : {
                "Prague" : {
                    "baseFeeUpdateFraction" : "0x4c6964",
                    "max" : "0x09",
                    "target" : "0x06"
                }
            },
            "chainid" : "0x01",
            "network" : "Prague"
        },
        "genesisBlockHeader" : {
            "baseFeePerGas" : "0x0b",
            "blobGasUsed" : "0x00",
            "bloom" : "0x00000000000000000000000000000000000000000000000000000000000000000000000000000000000000000000000000000000000000000000000000000000000000000000000000000000000000000000000000000000000000000000000000000000000000000000000000000000000000000000000000000000000000000000000000000000000000000000000000000000000000000000000000000000000000000000000000000000000000000000000000000000000000000000000000000000000000000000000000000000000000000000000000000000000000000000000000000000000000000000000000000000000000000000000000000000",
            "coinbase" : "0x2adc25665018aa1fe0e6bc666dac8fc2697ff9ba",
            "difficulty" : "0x00",
            "excessBlobGas" : "0x060000",
            "extraData" : "0x00",
            "gasLimit" : "0x10000000000000",
            "gasUsed" : "0x00",
            "hash" : "0x891ecdade6c296bbf26f361dedda94b94033e97d39b6ee9e0d8fcbbdc49e232c",
            "mixHash" : "0x0000000000000000000000000000000000000000000000000000000000020000",
            "nonce" : "0x0000000000000000",
            "number" : "0x00",
            "parentBeaconBlockRoot" : "0x0000000000000000000000000000000000000000000000000000000000000000",
            "parentHash" : "0x0000000000000000000000000000000000000000000000000000000000000000",
            "receiptTrie" : "0x56e81f171bcc55a6ff8345e692c0f86e5b48e01b996cadc001622fb5e363b421",
            "requestsHash" : "0xe3b0c44298fc1c149afbf4c8996fb92427ae41e4649b934ca495991b7852b855",
            "stateRoot" : "0x2a811ce0d14d5a7bf86b3b588cd50f6cf28184f9fd15612699d78b5890611979",
            "timestamp" : "0x00",
            "transactionsTrie" : "0x56e81f171bcc55a6ff8345e692c0f86e5b48e01b996cadc001622fb5e363b421",
            "uncleHash" : "0x1dcc4de8dec75d7aab85b567b6ccd41ad312451b948a7413f0a142fd40d49347",
            "withdrawalsRoot" : "0x56e81f171bcc55a6ff8345e692c0f86e5b48e01b996cadc001622fb5e363b421"
        },
        "genesisRLP" : "0xf90263f9025da00000000000000000000000000000000000000000000000000000000000000000a01dcc4de8dec75d7aab85b567b6ccd41ad312451b948a7413f0a142fd40d49347942adc25665018aa1fe0e6bc666dac8fc2697ff9baa02a811ce0d14d5a7bf86b3b588cd50f6cf28184f9fd15612699d78b5890611979a056e81f171bcc55a6ff8345e692c0f86e5b48e01b996cadc001622fb5e363b421a056e81f171bcc55a6ff8345e692c0f86e5b48e01b996cadc001622fb5e363b421b901000000000000000000000000000000000000000000000000000000000000000000000000000000000000000000000000000000000000000000000000000000000000000000000000000000000000000000000000000000000000000000000000000000000000000000000000000000000000000000000000000000000000000000000000000000000000000000000000000000000000000000000000000000000000000000000000000000000000000000000000000000000000000000000000000000000000000000000000000000000000000000000000000000000000000000000000000000000000000000000000000000000000000000000000000000000080808710000000000000808000a000000000000000000000000000000000000000000000000000000000000200008800000000000000000ba056e81f171bcc55a6ff8345e692c0f86e5b48e01b996cadc001622fb5e363b4218083060000a00000000000000000000000000000000000000000000000000000000000000000a0e3b0c44298fc1c149afbf4c8996fb92427ae41e4649b934ca495991b7852b855c0c0c0",
        "lastblockhash" : "0xd66fcfcdfe214b2ee3b171185f3a60afadf9b1e0ad1d6574183c411d82abdffa",
        "network" : "Prague",
        "postState" : {
            "0x000f3df6d732807ef1319fb7b8bb8522d0beac02" : {
                "balance" : "0x00",
                "code" : "0x3373fffffffffffffffffffffffffffffffffffffffe14604d57602036146024575f5ffd5b5f35801560495762001fff810690815414603c575f5ffd5b62001fff01545f5260205ff35b5f5ffd5b62001fff42064281555f359062001fff015500",
                "nonce" : "0x01",
                "storage" : {
                    "0x03e8" : "0x03e8"
                }
            },
            "0xa00000000000000000000000000000000000000a" : {
                "balance" : "0x0de0b6b3a7640000",
                "code" : "0x5f3560e01c806370ac643e14602f57806376b85d2314602b57634ccca55314602357005b60296076565b005b605c565b50602960055f5d5f5c5f556376b85d2360e01b5f5260205f818180305af16001555f516002555f5c600355565b634ccca55360e01b5f525f8060208180305af15f5260205ffd5b60065f5d56",
                "nonce" : "0x00",
                "storage" : {
                    "0x00" : "0x05",
                    "0x02" : "0x01",
                    "0x03" : "0x05"
                }
            },
            "0xa94f5374fce5edbc8e2a8697c15331677e6ebf0b" : {
                "balance" : "0x3635c9adc5de927f66",
                "code" : "0x",
                "nonce" : "0x01",
                "storage" : {
                }
            }
        },
        "pre" : {
            "0x000f3df6d732807ef1319fb7b8bb8522d0beac02" : {
                "balance" : "0x00",
                "code" : "0x3373fffffffffffffffffffffffffffffffffffffffe14604d57602036146024575f5ffd5b5f35801560495762001fff810690815414603c575f5ffd5b62001fff01545f5260205ff35b5f5ffd5b62001fff42064281555f359062001fff015500",
                "nonce" : "0x01",
                "storage" : {
                }
            },
            "0xa00000000000000000000000000000000000000a" : {
                "balance" : "0x0de0b6b3a7640000",
                "code" : "0x5f3560e01c806370ac643e14602f57806376b85d2314602b57634ccca55314602357005b60296076565b005b605c565b50602960055f5d5f5c5f556376b85d2360e01b5f5260205f818180305af16001555f516002555f5c600355565b634ccca55360e01b5f525f8060208180305af15f5260205ffd5b60065f5d56",
                "nonce" : "0x00",
                "storage" : {
                    "0x01" : "0xffff"
                }
            },
            "0xa94f5374fce5edbc8e2a8697c15331677e6ebf0b" : {
                "balance" : "0x3635c9adc5dea00000",
                "code" : "0x",
                "nonce" : "0x00",
                "storage" : {
                }
            }
        },
        "sealEngine" : "NoProof"
    }
}