{
    "call_ecrec_success_empty_then_returndatasize_d0g0v0_Cancun" : {
        "_info" : {
            "comment" : "",
            "filling-rpc-server" : "evmone-t8n 0.13.0-82+commit.880ac821",
            "filling-tool-version" : "retesteth-0.3.2-legacy+commit.1d528976.Linux.g++",
            "generatedTestHash" : "58224a6195d1c2fd2388c0345e6c8d02cb9cf3d694a1af8e63c02bb61b91924c",
            "lllcversion" : "Version: 0.5.14-develop.2024.11.5+commit.b2b86751.mod.Linux.g++",
            "solidity" : "Version: 0.8.24+commit.e11b9ed9.Linux.g++",
            "source" : "src/GeneralStateTestsFiller/stReturnDataTest/call_ecrec_success_empty_then_returndatasizeFiller.json",
            "sourceHash" : "da7c21cd2923387509d20f58551ec596506389f0d65d0714034f5454d8928eef"
        },
        "blocks" : [
            {
                "blockHeader" : {
                    "baseFeePerGas" : "0x0a",
                    "blobGasUsed" : "0x00",
                    "bloom" : "0x00000000000000000000000000000000000000000000000000000000000000000000000000000000000000000000000000000000000000000000000000000000000000000000000000000000000000000000000000000000000000000000000000000000000000000000000000000000000000000000000000000000000000000000000000000000000000000000000000000000000000000000000000000000000000000000000000000000000000000000000000000000000000000000000000000000000000000000000000000000000000000000000000000000000000000000000000000000000000000000000000000000000000000000000000000000",
                    "coinbase" : "0x2adc25665018aa1fe0e6bc666dac8fc2697ff9ba",
                    "difficulty" : "0x00",
                    "excessBlobGas" : "0x00",
                    "extraData" : "0x00",
                    "gasLimit" : "0x1a00000000",
                    "gasUsed" : "0x5f1a",
                    "hash" : "0x729ea55fa709202c4b342b647037981f13fd2f654903104ef3fbcba8f222cee9",
                    "mixHash" : "0x0000000000000000000000000000000000000000000000000000000000020000",
                    "nonce" : "0x0000000000000000",
                    "number" : "0x01",
                    "parentBeaconBlockRoot" : "0x0000000000000000000000000000000000000000000000000000000000000000",
                    "parentHash" : "0xd72ef13379190d14323a16a7bf59a2f33144821eb31b99f59f9f16c135f41c01",
                    "receiptTrie" : "0x726e098f3ca9c98504c40bd1b49f7a0af351a4d860f3840382d35767caeb578d",
                    "stateRoot" : "0xf21428af1d269117f8510f61503fd11dcbfd01cebb4900ec3b98995b93b0b293",
                    "timestamp" : "0x03e8",
                    "transactionsTrie" : "0x3d2502c9090ceb3253140d96a5fa1b0f699a26c70aa798e7eb219c15571bef31",
                    "uncleHash" : "0x1dcc4de8dec75d7aab85b567b6ccd41ad312451b948a7413f0a142fd40d49347",
                    "withdrawalsRoot" : "0x56e81f171bcc55a6ff8345e692c0f86e5b48e01b996cadc001622fb5e363b421"
                },
                "rlp" : "0xf902a6f9023ba0d72ef13379190d14323a16a7bf59a2f33144821eb31b99f59f9f16c135f41c01a01dcc4de8dec75d7aab85b567b6ccd41ad312451b948a7413f0a142fd40d49347942adc25665018aa1fe0e6bc666dac8fc2697ff9baa0f21428af1d269117f8510f61503fd11dcbfd01cebb4900ec3b98995b93b0b293a03d2502c9090ceb3253140d96a5fa1b0f699a26c70aa798e7eb219c15571bef31a0726e098f3ca9c98504c40bd1b49f7a0af351a4d860f3840382d35767caeb578db90100000000000000000000000000000000000000000000000000000000000000000000000000000000000000000000000000000000000000000000000000000000000000000000000000000000000000000000000000000000000000000000000000000000000000000000000000000000000000000000000000000000000000000000000000000000000000000000000000000000000000000000000000000000000000000000000000000000000000000000000000000000000000000000000000000000000000000000000000000000000000000000000000000000000000000000000000000000000000000000000000000000000000000000000000000000008001851a00000000825f1a8203e800a000000000000000000000000000000000000000000000000000000000000200008800000000000000000aa056e81f171bcc55a6ff8345e692c0f86e5b48e01b996cadc001622fb5e363b4218080a00000000000000000000000000000000000000000000000000000000000000000f864f862800a850a00000000940f572e5295c57f15886f9b263e2f6d2d6c7b5ec680801ba0be56d61b678ad2c41b294c70b5213913b9a6f17753ba7aadc171c9a2474f66a8a04814800401028ca339e8af9f4a6253bddd3f9df8f1dc6da275d19862e9f28642c0c0",
                "transactions" : [
                    {
                        "data" : "0x",
                        "gasLimit" : "0x0a00000000",
                        "gasPrice" : "0x0a",
                        "nonce" : "0x00",
                        "r" : "0xbe56d61b678ad2c41b294c70b5213913b9a6f17753ba7aadc171c9a2474f66a8",
                        "s" : "0x4814800401028ca339e8af9f4a6253bddd3f9df8f1dc6da275d19862e9f28642",
                        "sender" : "0xa94f5374fce5edbc8e2a8697c15331677e6ebf0b",
                        "to" : "0x0f572e5295c57f15886f9b263e2f6d2d6c7b5ec6",
                        "v" : "0x1b",
                        "value" : "0x00"
                    }
                ],
                "uncleHeaders" : [
                ],
                "withdrawals" : [
                ]
            }
        ],
        "config" : {
            "blobSchedule" : {
                "Cancun" : {
                    "baseFeeUpdateFraction" : "0x32f0ed",
                    "max" : "0x06",
                    "target" : "0x03"
                }
            },
            "chainid" : "0x01",
            "network" : "Cancun"
        },
        "genesisBlockHeader" : {
            "baseFeePerGas" : "0x0b",
            "blobGasUsed" : "0x00",
            "bloom" : "0x00000000000000000000000000000000000000000000000000000000000000000000000000000000000000000000000000000000000000000000000000000000000000000000000000000000000000000000000000000000000000000000000000000000000000000000000000000000000000000000000000000000000000000000000000000000000000000000000000000000000000000000000000000000000000000000000000000000000000000000000000000000000000000000000000000000000000000000000000000000000000000000000000000000000000000000000000000000000000000000000000000000000000000000000000000000",
            "coinbase" : "0x2adc25665018aa1fe0e6bc666dac8fc2697ff9ba",
            "difficulty" : "0x00",
            "excessBlobGas" : "0x060000",
            "extraData" : "0x00",
            "gasLimit" : "0x1a00000000",
            "gasUsed" : "0x00",
            "hash" : "0xd72ef13379190d14323a16a7bf59a2f33144821eb31b99f59f9f16c135f41c01",
            "mixHash" : "0x0000000000000000000000000000000000000000000000000000000000020000",
            "nonce" : "0x0000000000000000",
            "number" : "0x00",
            "parentBeaconBlockRoot" : "0x0000000000000000000000000000000000000000000000000000000000000000",
            "parentHash" : "0x0000000000000000000000000000000000000000000000000000000000000000",
            "receiptTrie" : "0x56e81f171bcc55a6ff8345e692c0f86e5b48e01b996cadc001622fb5e363b421",
            "stateRoot" : "0x04d796c0b8b9c27cfd2d26a76ad1358f79bbdf908ae521f5916d761c41a93f49",
            "timestamp" : "0x00",
            "transactionsTrie" : "0x56e81f171bcc55a6ff8345e692c0f86e5b48e01b996cadc001622fb5e363b421",
            "uncleHash" : "0x1dcc4de8dec75d7aab85b567b6ccd41ad312451b948a7413f0a142fd40d49347",
            "withdrawalsRoot" : "0x56e81f171bcc55a6ff8345e692c0f86e5b48e01b996cadc001622fb5e363b421"
        },
        "genesisRLP" : "0xf90240f9023aa00000000000000000000000000000000000000000000000000000000000000000a01dcc4de8dec75d7aab85b567b6ccd41ad312451b948a7413f0a142fd40d49347942adc25665018aa1fe0e6bc666dac8fc2697ff9baa004d796c0b8b9c27cfd2d26a76ad1358f79bbdf908ae521f5916d761c41a93f49a056e81f171bcc55a6ff8345e692c0f86e5b48e01b996cadc001622fb5e363b421a056e81f171bcc55a6ff8345e692c0f86e5b48e01b996cadc001622fb5e363b421b90100000000000000000000000000000000000000000000000000000000000000000000000000000000000000000000000000000000000000000000000000000000000000000000000000000000000000000000000000000000000000000000000000000000000000000000000000000000000000000000000000000000000000000000000000000000000000000000000000000000000000000000000000000000000000000000000000000000000000000000000000000000000000000000000000000000000000000000000000000000000000000000000000000000000000000000000000000000000000000000000000000000000000000000000000000000008080851a00000000808000a000000000000000000000000000000000000000000000000000000000000200008800000000000000000ba056e81f171bcc55a6ff8345e692c0f86e5b48e01b996cadc001622fb5e363b4218083060000a00000000000000000000000000000000000000000000000000000000000000000c0c0c0",
        "lastblockhash" : "0x729ea55fa709202c4b342b647037981f13fd2f654903104ef3fbcba8f222cee9",
        "network" : "Cancun",
        "postState" : {
            "0x000f3df6d732807ef1319fb7b8bb8522d0beac02" : {
                "balance" : "0x00",
                "code" : "0x3373fffffffffffffffffffffffffffffffffffffffe14604d57602036146024575f5ffd5b5f35801560495762001fff810690815414603c575f5ffd5b62001fff01545f5260205ff35b5f5ffd5b62001fff42064281555f359062001fff015500",
                "nonce" : "0x01",
                "storage" : {
                    "0x03e8" : "0x03e8"
                }
            },
            "0x0f572e5295c57f15886f9b263e2f6d2d6c7b5ec6" : {
                "balance" : "0x00",
                "code" : "0x60aa60006000600060006001619000f1503d60005500",
                "nonce" : "0x00",
                "storage" : {
                }
            },
            "0xa94f5374fce5edbc8e2a8697c15331677e6ebf0b" : {
                "balance" : "0x63fffc48fc",
                "code" : "0x",
                "nonce" : "0x01",
                "storage" : {
                }
            }
        },
        "pre" : {
            "0x000f3df6d732807ef1319fb7b8bb8522d0beac02" : {
                "balance" : "0x00",
                "code" : "0x3373fffffffffffffffffffffffffffffffffffffffe14604d57602036146024575f5ffd5b5f35801560495762001fff810690815414603c575f5ffd5b62001fff01545f5260205ff35b5f5ffd5b62001fff42064281555f359062001fff015500",
                "nonce" : "0x01",
                "storage" : {
                }
            },
            "0x0f572e5295c57f15886f9b263e2f6d2d6c7b5ec6" : {
                "balance" : "0x00",
                "code" : "0x60aa60006000600060006001619000f1503d60005500",
                "nonce" : "0x00",
                "storage" : {
                    "0x00" : "0x60a7"
                }
            },
            "0xa94f5374fce5edbc8e2a8697c15331677e6ebf0b" : {
                "balance" : "0x6400000000",
                "code" : "0x",
                "nonce" : "0x00",
                "storage" : {
                }
            }
        },
        "sealEngine" : "NoProof"
    },
    "call_ecrec_success_empty_then_returndatasize_d0g0v0_Prague" : {
        "_info" : {
            "comment" : "",
            "filling-rpc-server" : "evmone-t8n 0.13.0-82+commit.880ac821",
            "filling-tool-version" : "retesteth-0.3.2-legacy+commit.1d528976.Linux.g++",
            "generatedTestHash" : "8388189d14600b766b1460ebaf22d2bd45050d9fcff5e50ff4855e6216298a66",
            "lllcversion" : "Version: 0.5.14-develop.2024.11.5+commit.b2b86751.mod.Linux.g++",
            "solidity" : "Version: 0.8.24+commit.e11b9ed9.Linux.g++",
            "source" : "src/GeneralStateTestsFiller/stReturnDataTest/call_ecrec_success_empty_then_returndatasizeFiller.json",
            "sourceHash" : "da7c21cd2923387509d20f58551ec596506389f0d65d0714034f5454d8928eef"
        },
        "blocks" : [
            {
                "blockHeader" : {
                    "baseFeePerGas" : "0x0a",
                    "blobGasUsed" : "0x00",
                    "bloom" : "0x00000000000000000000000000000000000000000000000000000000000000000000000000000000000000000000000000000000000000000000000000000000000000000000000000000000000000000000000000000000000000000000000000000000000000000000000000000000000000000000000000000000000000000000000000000000000000000000000000000000000000000000000000000000000000000000000000000000000000000000000000000000000000000000000000000000000000000000000000000000000000000000000000000000000000000000000000000000000000000000000000000000000000000000000000000000",
                    "coinbase" : "0x2adc25665018aa1fe0e6bc666dac8fc2697ff9ba",
                    "difficulty" : "0x00",
                    "excessBlobGas" : "0x00",
                    "extraData" : "0x00",
                    "gasLimit" : "0x1a00000000",
                    "gasUsed" : "0x5f1a",
                    "hash" : "0x5bd22433c941e6f131291e50ba7222d32802fb0475c5d0691928926675c6370d",
                    "mixHash" : "0x0000000000000000000000000000000000000000000000000000000000020000",
                    "nonce" : "0x0000000000000000",
                    "number" : "0x01",
                    "parentBeaconBlockRoot" : "0x0000000000000000000000000000000000000000000000000000000000000000",
                    "parentHash" : "0x548c3c7b67c22cb7b71bd4091ad86d15ed32e845f27ecef9ec819ff1e7734ef1",
                    "receiptTrie" : "0x726e098f3ca9c98504c40bd1b49f7a0af351a4d860f3840382d35767caeb578d",
                    "requestsHash" : "0xe3b0c44298fc1c149afbf4c8996fb92427ae41e4649b934ca495991b7852b855",
                    "stateRoot" : "0xf21428af1d269117f8510f61503fd11dcbfd01cebb4900ec3b98995b93b0b293",
                    "timestamp" : "0x03e8",
                    "transactionsTrie" : "0x3d2502c9090ceb3253140d96a5fa1b0f699a26c70aa798e7eb219c15571bef31",
                    "uncleHash" : "0x1dcc4de8dec75d7aab85b567b6ccd41ad312451b948a7413f0a142fd40d49347",
                    "withdrawalsRoot" : "0x56e81f171bcc55a6ff8345e692c0f86e5b48e01b996cadc001622fb5e363b421"
                },
                "rlp" : "0xf902c7f9025ca0548c3c7b67c22cb7b71bd4091ad86d15ed32e845f27ecef9ec819ff1e7734ef1a01dcc4de8dec75d7aab85b567b6ccd41ad312451b948a7413f0a142fd40d49347942adc25665018aa1fe0e6bc666dac8fc2697ff9baa0f21428af1d269117f8510f61503fd11dcbfd01cebb4900ec3b98995b93b0b293a03d2502c9090ceb3253140d96a5fa1b0f699a26c70aa798e7eb219c15571bef31a0726e098f3ca9c98504c40bd1b49f7a0af351a4d860f3840382d35767caeb578db90100000000000000000000000000000000000000000000000000000000000000000000000000000000000000000000000000000000000000000000000000000000000000000000000000000000000000000000000000000000000000000000000000000000000000000000000000000000000000000000000000000000000000000000000000000000000000000000000000000000000000000000000000000000000000000000000000000000000000000000000000000000000000000000000000000000000000000000000000000000000000000000000000000000000000000000000000000000000000000000000000000000000000000000000000000000008001851a00000000825f1a8203e800a000000000000000000000000000000000000000000000000000000000000200008800000000000000000aa056e81f171bcc55a6ff8345e692c0f86e5b48e01b996cadc001622fb5e363b4218080a00000000000000000000000000000000000000000000000000000000000000000a0e3b0c44298fc1c149afbf4c8996fb92427ae41e4649b934ca495991b7852b855f864f862800a850a00000000940f572e5295c57f15886f9b263e2f6d2d6c7b5ec680801ba0be56d61b678ad2c41b294c70b5213913b9a6f17753ba7aadc171c9a2474f66a8a04814800401028ca339e8af9f4a6253bddd3f9df8f1dc6da275d19862e9f28642c0c0",
                "transactions" : [
                    {
                        "data" : "0x",
                        "gasLimit" : "0x0a00000000",
                        "gasPrice" : "0x0a",
                        "nonce" : "0x00",
                        "r" : "0xbe56d61b678ad2c41b294c70b5213913b9a6f17753ba7aadc171c9a2474f66a8",
                        "s" : "0x4814800401028ca339e8af9f4a6253bddd3f9df8f1dc6da275d19862e9f28642",
                        "sender" : "0xa94f5374fce5edbc8e2a8697c15331677e6ebf0b",
                        "to" : "0x0f572e5295c57f15886f9b263e2f6d2d6c7b5ec6",
                        "v" : "0x1b",
                        "value" : "0x00"
                    }
                ],
                "uncleHeaders" : [
                ],
                "withdrawals" : [
                ]
            }
        ],
        "config" : {
            "blobSchedule" : {
                "Prague" : {
                    "baseFeeUpdateFraction" : "0x4c6964",
                    "max" : "0x09",
                    "target" : "0x06"
                }
            },
            "chainid" : "0x01",
            "network" : "Prague"
        },
        "genesisBlockHeader" : {
            "baseFeePerGas" : "0x0b",
            "blobGasUsed" : "0x00",
            "bloom" : "0x00000000000000000000000000000000000000000000000000000000000000000000000000000000000000000000000000000000000000000000000000000000000000000000000000000000000000000000000000000000000000000000000000000000000000000000000000000000000000000000000000000000000000000000000000000000000000000000000000000000000000000000000000000000000000000000000000000000000000000000000000000000000000000000000000000000000000000000000000000000000000000000000000000000000000000000000000000000000000000000000000000000000000000000000000000000",
            "coinbase" : "0x2adc25665018aa1fe0e6bc666dac8fc2697ff9ba",
            "difficulty" : "0x00",
            "excessBlobGas" : "0x060000",
            "extraData" : "0x00",
            "gasLimit" : "0x1a00000000",
            "gasUsed" : "0x00",
            "hash" : "0x548c3c7b67c22cb7b71bd4091ad86d15ed32e845f27ecef9ec819ff1e7734ef1",
            "mixHash" : "0x0000000000000000000000000000000000000000000000000000000000020000",
            "nonce" : "0x0000000000000000",
            "number" : "0x00",
            "parentBeaconBlockRoot" : "0x0000000000000000000000000000000000000000000000000000000000000000",
            "parentHash" : "0x0000000000000000000000000000000000000000000000000000000000000000",
            "receiptTrie" : "0x56e81f171bcc55a6ff8345e692c0f86e5b48e01b996cadc001622fb5e363b421",
            "requestsHash" : "0xe3b0c44298fc1c149afbf4c8996fb92427ae41e4649b934ca495991b7852b855",
            "stateRoot" : "0x04d796c0b8b9c27cfd2d26a76ad1358f79bbdf908ae521f5916d761c41a93f49",
            "timestamp" : "0x00",
            "transactionsTrie" : "0x56e81f171bcc55a6ff8345e692c0f86e5b48e01b996cadc001622fb5e363b421",
            "uncleHash" : "0x1dcc4de8dec75d7aab85b567b6ccd41ad312451b948a7413f0a142fd40d49347",
            "withdrawalsRoot" : "0x56e81f171bcc55a6ff8345e692c0f86e5b48e01b996cadc001622fb5e363b421"
        },
        "genesisRLP" : "0xf90261f9025ba00000000000000000000000000000000000000000000000000000000000000000a01dcc4de8dec75d7aab85b567b6ccd41ad312451b948a7413f0a142fd40d49347942adc25665018aa1fe0e6bc666dac8fc2697ff9baa004d796c0b8b9c27cfd2d26a76ad1358f79bbdf908ae521f5916d761c41a93f49a056e81f171bcc55a6ff8345e692c0f86e5b48e01b996cadc001622fb5e363b421a056e81f171bcc55a6ff8345e692c0f86e5b48e01b996cadc001622fb5e363b421b90100000000000000000000000000000000000000000000000000000000000000000000000000000000000000000000000000000000000000000000000000000000000000000000000000000000000000000000000000000000000000000000000000000000000000000000000000000000000000000000000000000000000000000000000000000000000000000000000000000000000000000000000000000000000000000000000000000000000000000000000000000000000000000000000000000000000000000000000000000000000000000000000000000000000000000000000000000000000000000000000000000000000000000000000000000000008080851a00000000808000a000000000000000000000000000000000000000000000000000000000000200008800000000000000000ba056e81f171bcc55a6ff8345e692c0f86e5b48e01b996cadc001622fb5e363b4218083060000a00000000000000000000000000000000000000000000000000000000000000000a0e3b0c44298fc1c149afbf4c8996fb92427ae41e4649b934ca495991b7852b855c0c0c0",
        "lastblockhash" : "0x5bd22433c941e6f131291e50ba7222d32802fb0475c5d0691928926675c6370d",
        "network" : "Prague",
        "postState" : {
            "0x000f3df6d732807ef1319fb7b8bb8522d0beac02" : {
                "balance" : "0x00",
                "code" : "0x3373fffffffffffffffffffffffffffffffffffffffe14604d57602036146024575f5ffd5b5f35801560495762001fff810690815414603c575f5ffd5b62001fff01545f5260205ff35b5f5ffd5b62001fff42064281555f359062001fff015500",
                "nonce" : "0x01",
                "storage" : {
                    "0x03e8" : "0x03e8"
                }
            },
            "0x0f572e5295c57f15886f9b263e2f6d2d6c7b5ec6" : {
                "balance" : "0x00",
                "code" : "0x60aa60006000600060006001619000f1503d60005500",
                "nonce" : "0x00",
                "storage" : {
                }
            },
            "0xa94f5374fce5edbc8e2a8697c15331677e6ebf0b" : {
                "balance" : "0x63fffc48fc",
                "code" : "0x",
                "nonce" : "0x01",
                "storage" : {
                }
            }
        },
        "pre" : {
            "0x000f3df6d732807ef1319fb7b8bb8522d0beac02" : {
                "balance" : "0x00",
                "code" : "0x3373fffffffffffffffffffffffffffffffffffffffe14604d57602036146024575f5ffd5b5f35801560495762001fff810690815414603c575f5ffd5b62001fff01545f5260205ff35b5f5ffd5b62001fff42064281555f359062001fff015500",
                "nonce" : "0x01",
                "storage" : {
                }
            },
            "0x0f572e5295c57f15886f9b263e2f6d2d6c7b5ec6" : {
                "balance" : "0x00",
                "code" : "0x60aa60006000600060006001619000f1503d60005500",
                "nonce" : "0x00",
                "storage" : {
                    "0x00" : "0x60a7"
                }
            },
            "0xa94f5374fce5edbc8e2a8697c15331677e6ebf0b" : {
                "balance" : "0x6400000000",
                "code" : "0x",
                "nonce" : "0x00",
                "storage" : {
                }
            }
        },
        "sealEngine" : "NoProof"
    }
}