{
    "reentrant_call_1": {
        "_info": {
            "comment": "`execution-spec-tests` generated test",
            "description": "Test function documentation:\n\n    Test transient storage in different reentrancy contexts.",
            "filling-rpc-server": "evm version 1.14.4-unstable-3d8028a6-20240513",
            "filling-tool-version": "retesteth-0.3.2-cancun+commit.2a41f237.Linux.g++",
            "filling-transition-tool": "evm version 1.14.4-unstable-3d8028a6-20240513",
            "generatedTestHash": "5a5890c20889c22ef5f42da1faaca02662ea2ccd1789d1c43f1ed3cd84a0bf92",
            "hash": "0x68b57f24adde51aca21f5341d8e90a369f80f85ae516830dc715c4d0af51a67e",
            "lllcversion": "Version: 0.5.14-develop.2023.7.11+commit.c58ab2c6.mod.Linux.g++",
            "solidity": "Version: 0.8.21+commit.d9974bed.Linux.g++",
            "source": "src/GeneralStateTestsFiller/Pyspecs/cancun/eip1153_tstore/reentrant_call_1Filler_.json",
            "sourceHash": "c2686c7587b69c94259eb375378e09d197565b0106b4c542175577ce6bed1fe4",
            "url": "https://github.com/ethereum/execution-spec-tests/blob/87ef9bee36585b5b9f72d6eaafeeb1999b641d3c/tests/tmp/tmptest_765a7b55_764a_428a_a61e_940a212d695b/test_tstorage_reentrancy_contexts.py#L261"
        },
        "env": {
            "currentBaseFee": "0x07",
            "currentCoinbase": "0x2adc25665018aa1fe0e6bc666dac8fc2697ff9ba",
            "currentDifficulty": "0x00",
            "currentExcessBlobGas": "0x00",
            "currentGasLimit": "0x016345785d8a0000",
            "currentNumber": "0x01",
            "currentRandom": "0x0000000000000000000000000000000000000000000000000000000000000000",
            "currentTimestamp": "0x03e8"
        },
        "post": {
            "Cancun": [
                {
                    "hash": "0xff6b228014af1872fd182d0ae803b00b37a89267ac79a9d2ab589855a13b861a",
                    "indexes": {
                        "data": 0,
                        "gas": 0,
                        "value": 0
                    },
                    "logs": "0x1dcc4de8dec75d7aab85b567b6ccd41ad312451b948a7413f0a142fd40d49347",
                    "txbytes": "0xf880800a8398968094000000000000000000000000000000000000020080a0000000000000000000000000000000000000000000000000000000000000000126a0960e5f676ae96a463a82d6e66ad5e3755279ce431343c063842f5254d4287b82a03f500ed3b0e09b04183bfaf2de1460461a2b3381eafc98248f822d1fbabe95b0"
                }
            ]
        },
        "pre": {
            "0x0000000000000000000000000000000000000200": {
                "balance": "0x00",
                "code": "0x6002600035146050580157600360003514603958015761010060ff5d60ff5c60025560026000526020602060206000600061020061fffff160005560205160015560ff5c600355602d5801565b61010160ff5d60215801565b6003600052600060006020600060006102005af1600052fe60035801565b",
                "nonce": "0x00",
                "storage": {}
            },
            "0xa94f5374fce5edbc8e2a8697c15331677e6ebf0b": {
                "balance": "0x1d6329f1c35ca4bfabb9f5610000000000",
                "code": "0x",
                "nonce": "0x00",
                "storage": {}
            }
        },
        "transaction": {
            "data": [
                "0x0000000000000000000000000000000000000000000000000000000000000001"
            ],
            "gasLimit": [
                "0x989680"
            ],
            "gasPrice": "0x0a",
            "nonce": "0x00",
            "secretKey": "0x45a915e4d060149eb4365960e6a7a45f334393093061116b197e3240065ff2d8",
            "sender": "0xa94f5374fce5edbc8e2a8697c15331677e6ebf0b",
            "to": "0x0000000000000000000000000000000000000200",
            "value": [
                "0x00"
            ]
        }
    }
}