{
    "run_until_out_of_gas_0": {
        "_info": {
            "comment": "`execution-spec-tests` generated test",
            "description": "Test function documentation:\n\n    Use TSTORE over and over to different keys until we run out of gas.",
            "filling-rpc-server": "evm version 1.14.4-unstable-3d8028a6-20240513",
            "filling-tool-version": "retesteth-0.3.2-cancun+commit.16f58250.Linux.g++",
            "filling-transition-tool": "evm version 1.14.4-unstable-3d8028a6-20240513",
            "generatedTestHash": "98f5794978e3f6ad5e8cf1b1065593545dbe01d37738a0f7d60ab91276621741",
            "hash": "0xe51d938b788161737d9ca82adfddc4ae49efbd8b036d543ad06caa4e8f4ebe98",
            "lllcversion": "Version: 0.5.14-develop.2023.7.11+commit.c58ab2c6.mod.Linux.g++",
            "solidity": "Version: 0.8.21+commit.d9974bed.Linux.g++",
            "source": "src/GeneralStateTestsFiller/Pyspecs/cancun/eip1153_tstore/run_until_out_of_gas_0Filler_.json",
            "sourceHash": "7d3ef5f1d72c41b756298dffbcb80cd120373f4ba7a0b9dcdefa05ba95959bf7",
            "url": "https://github.com/ethereum/execution-spec-tests/blob/09f24602828d07fbd9f2b303eb8cb9d6141f5062/tests/tmp/tmptest_fdf5818d_8cb6_4014_abb4_a0502447807c/test_tstorage.py#L273"
        },
        "env": {
            "currentBaseFee": "0x07",
            "currentCoinbase": "0x2adc25665018aa1fe0e6bc666dac8fc2697ff9ba",
            "currentDifficulty": "0x00",
            "currentExcessBlobGas": "0x00",
            "currentGasLimit": "0x016345785d8a0000",
            "currentNumber": "0x01",
            "currentRandom": "0x0000000000000000000000000000000000000000000000000000000000000000",
            "currentTimestamp": "0x03e8"
        },
        "post": {
            "Cancun": [
                {
                    "hash": "0x34a11f5f5cdf0d3fa31edc5651ebc79716a0daacd91c028f2d0d826ee5545d32",
                    "indexes": {
                        "data": 0,
                        "gas": 0,
                        "value": 0
                    },
                    "logs": "0x1dcc4de8dec75d7aab85b567b6ccd41ad312451b948a7413f0a142fd40d49347",
                    "txbytes": "0xf861800a8401c9c380940000000000000000000000000000000000000100808025a0bc0a82d0b39c47b51e047f1b82e29be5437ade2f9f6e459621870eb23bc8b5c7a05ebb6210b5a0d45b0c904b5cb42df1028edeeef50c50286dbed7703cb16ddfa0"
                }
            ]
        },
        "pre": {
            "0x0000000000000000000000000000000000000100": {
                "balance": "0x00",
                "code": "0x5b5a5a5d5a5a5d5a5a5d5a5a5d5a5a5d5a5a5d5a5a5d5a5a5d5a5a5d5a5a5d5a5a5d5a5a5d5a5a5d5a5a5d5a5a5d5a5a5d5a5a5d5a5a5d5a5a5d5a5a5d5a5a5d5a5a5d5a5a5d5a5a5d5a5a5d5a5a5d5a5a5d5a5a5d5a5a5d5a5a5d5a5a5d5a5a5d5a5a5d5a5a5d5a5a5d5a5a5d5a5a5d5a5a5d5a5a5d5a5a5d5a5a5d5a5a5d5a5a5d5a5a5d5a5a5d5a5a5d5a5a5d5a5a5d5a5a5d5a5a5d5a5a5d5a5a5d5a5a5d5a5a5d5a5a5d5a5a5d5a5a5d5a5a5d5a5a5d5a5a5d5a5a5d5a5a5d5a5a5d5a5a5d5a5a5d5a5a5d5a5a5d5a5a5d5a5a5d5a5a5d5a5a5d5a5a5d5a5a5d5a5a5d5a5a5d5a5a5d5a5a5d5a5a5d5a5a5d5a5a5d5a5a5d5a5a5d5a5a5d5a5a5d5a5a5d5a5a5d5a5a5d5a5a5d5a5a5d5a5a5d5a5a5d5a5a5d5a5a5d5a5a5d5a5a5d5a5a5d5a5a5d5a5a5d5a5a5d5a5a5d5a5a5d5a5a5d5a5a5d5a5a5d5a5a5d5a5a5d5a5a5d5a5a5d5a5a5d5a5a5d5a5a5d5a5a5d5a5a5d5a5a5d5a5a5d5a5a5d5a5a5d5a5a5d5a5a5d5a5a5d5a5a5d5a5a5d5a5a5d5a5a5d5a5a5d5a5a5d5a5a5d5a5a5d5a5a5d5a5a5d5a5a5d5a5a5d5a5a5d5a5a5d5a5a5d5a5a5d5a5a5d5a5a5d5a5a5d5a5a5d5a5a5d5a5a5d5a5a5d5a5a5d5a5a5d5a5a5d5a5a5d5a5a5d5a5a5d5a5a5d5a5a5d5a5a5d5a5a5d5a5a5d5a5a5d5a5a5d5a5a5d5a5a5d5a5a5d5a5a5d5a5a5d5a5a5d5a5a5d5a5a5d5a5a5d5a5a5d5a5a5d5a5a5d5a5a5d5a5a5d5a5a5d5a5a5d5a5a5d5a5a5d5a5a5d5a5a5d5a5a5d5a5a5d5a5a5d5a5a5d5a5a5d5a5a5d5a5a5d5a5a5d5a5a5d5a5a5d5a5a5d5a5a5d5a5a5d5a5a5d5a5a5d5a5a5d5a5a5d5a5a5d5a5a5d5a5a5d5a5a5d5a5a5d5a5a5d5a5a5d5a5a5d5a5a5d5a5a5d5a5a5d5a5a5d5a5a5d5a5a5d5a5a5d5a5a5d5a5a5d5a5a5d5a5a5d5a5a5d5a5a5d5a5a5d5a5a5d5a5a5d5a5a5d5a5a5d5a5a5d5a5a5d5a5a5d5a5a5d5a5a5d5a5a5d5a5a5d5a5a5d5a5a5d5a5a5d5a5a5d5a5a5d5a5a5d5a5a5d5a5a5d5a5a5d5a5a5d5a5a5d5a5a5d5a5a5d5a5a5d5a5a5d5a5a5d5a5a5d5a5a5d5a5a5d5a5a5d5a5a5d5a5a5d5a5a5d5a5a5d5a5a5d5a5a5d5a5a5d5a5a5d5a5a5d5a5a5d5a5a5d5a5a5d5a5a5d5a5a5d5a5a5d5a5a5d5a5a5d5a5a5d5a5a5d5a5a5d5a5a5d5a5a5d5a5a5d5a5a5d5a5a5d5a5a5d5a5a5d5a5a5d5a5a5d5a5a5d5a5a5d5a5a5d5a5a5d5a5a5d5a5a5d5a5a5d5a5a5d5a5a5d5a5a5d5a5a5d5a5a5d5a5a5d5a5a5d5a5a5d5a5a5d5a5a5d5a5a5d5a5a5d5a5a5d5a5a5d5a5a5d5a5a5d5a5a5d5a5a5d5a5a5d5a5a5d5a5a5d5a5a5d5a5a5d5a5a5d5a5a5d5a5a5d5a5a5d5a5a5d5a5a5d5a5a5d5a5a5d5a5a5d5a5a5d5a5a5d5a5a5d5a5a5d5a5a5d5a5a5d5a5a5d5a5a5d5a5a5d5a5a5d5a5a5d5a5a5d5a5a5d5a5a5d5a5a5d5a5a5d5a5a5d5a5a5d5a5a5d5a5a5d5a5a5d5a5a5d5a5a5d5a5a5d5a5a5d5a5a5d5a5a5d5a5a5d5a5a5d5a5a5d5a5a5d5a5a5d5a5a5d5a5a5d5a5a5d5a5a5d5a5a5d5a5a5d5a5a5d5a5a5d5a5a5d5a5a5d5a5a5d5a5a5d5a5a5d5a5a5d5a5a5d5a5a5d5a5a5d5a5a5d5a5a5d5a5a5d5a5a5d5a5a5d5a5a5d5a5a5d5a5a5d5a5a5d5a5a5d5a5a5d5a5a5d5a5a5d5a5a5d5a5a5d5a5a5d5a5a5d5a5a5d5a5a5d5a5a5d5a5a5d5a5a5d5a5a5d5a5a5d5a5a5d5a5a5d5a5a5d5a5a5d5a5a5d5a5a5d5a5a5d5a5a5d5a5a5d5a5a5d5a5a5d5a5a5d5a5a5d5a5a5d5a5a5d5a5a5d5a5a5d5a5a5d5a5a5d5a5a5d5a5a5d5a5a5d5a5a5d5a5a5d5a5a5d5a5a5d5a5a5d5a5a5d5a5a5d5a5a5d5a5a5d5a5a5d5a5a5d5a5a5d5a5a5d5a5a5d5a5a5d5a5a5d5a5a5d5a5a5d5a5a5d5a5a5d5a5a5d5a5a5d5a5a5d5a5a5d5a5a5d5a5a5d5a5a5d5a5a5d5a5a5d5a5a5d5a5a5d5a5a5d5a5a5d5a5a5d5a5a5d5a5a5d5a5a5d5a5a5d5a5a5d5a5a5d5a5a5d5a5a5d5a5a5d5a5a5d5a5a5d5a5a5d5a5a5d5a5a5d5a5a5d5a5a5d5a5a5d5a5a5d5a5a5d5a5a5d5a5a5d5a5a5d5a5a5d5a5a5d5a5a5d5a5a5d5a5a5d5a5a5d5a5a5d5a5a5d5a5a5d5a5a5d5a5a5d5a5a5d5a5a5d5a5a5d5a5a5d5a5a5d5a5a5d5a5a5d5a5a5d5a5a5d5a5a5d5a5a5d5a5a5d5a5a5d5a5a5d5a5a5d5a5a5d5a5a5d5a5a5d5a5a5d5a5a5d5a5a5d5a5a5d5a5a5d5a5a5d5a5a5d5a5a5d5a5a5d5a5a5d5a5a5d5a5a5d5a5a5d5a5a5d5a5a5d5a5a5d5a5a5d5a5a5d5a5a5d5a5a5d5a5a5d5a5a5d5a5a5d5a5a5d5a5a5d5a5a5d5a5a5d5a5a5d5a5a5d5a5a5d5a5a5d5a5a5d5a5a5d5a5a5d5a5a5d5a5a5d5a5a5d5a5a5d5a5a5d5a5a5d5a5a5d5a5a5d5a5a5d5a5a5d5a5a5d5a5a5d5a5a5d5a5a5d5a5a5d5a5a5d5a5a5d5a5a5d5a5a5d5a5a5d5a5a5d5a5a5d5a5a5d5a5a5d5a5a5d5a5a5d5a5a5d5a5a5d5a5a5d5a5a5d5a5a5d5a5a5d5a5a5d5a5a5d5a5a5d5a5a5d5a5a5d5a5a5d5a5a5d5a5a5d5a5a5d5a5a5d5a5a5d5a5a5d5a5a5d5a5a5d5a5a5d5a5a5d5a5a5d5a5a5d5a5a5d5a5a5d5a5a5d5a5a5d5a5a5d5a5a5d5a5a5d5a5a5d5a5a5d5a5a5d5a5a5d5a5a5d5a5a5d5a5a5d5a5a5d5a5a5d5a5a5d5a5a5d5a5a5d5a5a5d5a5a5d5a5a5d5a5a5d5a5a5d5a5a5d5a5a5d5a5a5d5a5a5d5a5a5d5a5a5d5a5a5d5a5a5d5a5a5d5a5a5d5a5a5d5a5a5d5a5a5d5a5a5d5a5a5d5a5a5d5a5a5d5a5a5d5a5a5d5a5a5d5a5a5d5a5a5d5a5a5d5a5a5d5a5a5d5a5a5d5a5a5d5a5a5d5a5a5d5a5a5d5a5a5d5a5a5d5a5a5d5a5a5d5a5a5d5a5a5d5a5a5d5a5a5d5a5a5d5a5a5d5a5a5d5a5a5d5a5a5d5a5a5d5a5a5d5a5a5d5a5a5d5a5a5d5a5a5d5a5a5d5a5a5d5a5a5d5a5a5d5a5a5d5a5a5d5a5a5d5a5a5d5a5a5d5a5a5d5a5a5d5a5a5d5a5a5d5a5a5d5a5a5d5a5a5d5a5a5d5a5a5d5a5a5d5a5a5d5a5a5d5a5a5d5a5a5d5a5a5d5a5a5d5a5a5d5a5a5d5a5a5d5a5a5d5a5a5d5a5a5d5a5a5d5a5a5d5a5a5d5a5a5d5a5a5d5a5a5d5a5a5d5a5a5d5a5a5d5a5a5d5a5a5d5a5a5d5a5a5d5a5a5d5a5a5d5a5a5d5a5a5d5a5a5d5a5a5d5a5a5d5a5a5d5a5a5d5a5a5d5a5a5d5a5a5d5a5a5d5a5a5d5a5a5d5a5a5d5a5a5d5a5a5d5a5a5d5a5a5d5a5a5d5a5a5d5a5a5d5a5a5d5a5a5d5a5a5d5a5a5d5a5a5d5a5a5d5a5a5d5a5a5d5a5a5d5a5a5d5a5a5d5a5a5d5a5a5d5a5a5d5a5a5d5a5a5d5a5a5d5a5a5d5a5a5d5a5a5d5a5a5d5a5a5d5a5a5d5a5a5d5a5a5d5a5a5d5a5a5d5a5a5d5a5a5d5a5a5d5a5a5d5a5a5d5a5a5d5a5a5d5a5a5d5a5a5d5a5a5d5a5a5d5a5a5d5a5a5d5a5a5d5a5a5d5a5a5d5a5a5d5a5a5d5a5a5d5a5a5d5a5a5d5a5a5d5a5a5d5a5a5d5a5a5d5a5a5d5a5a5d5a5a5d5a5a5d5a5a5d5a5a5d5a5a5d5a5a5d5a5a5d5a5a5d5a5a5d5a5a5d5a5a5d5a5a5d5a5a5d5a5a5d5a5a5d5a5a5d5a5a5d5a5a5d5a5a5d5a5a5d5a5a5d5a5a5d5a5a5d5a5a5d5a5a5d5a5a5d5a5a5d5a5a5d5a5a5d5a5a5d5a5a5d5a5a5d5a5a5d5a5a5d5a5a5d5a5a5d5a5a5d5a5a5d5a5a5d5a5a5d5a5a5d5a5a5d5a5a5d5a5a5d5a5a5d5a5a5d5a5a5d5a5a5d5a5a5d5a5a5d5a5a5d5a5a5d5a5a5d5a5a5d5a5a5d5a5a5d5a5a5d5a5a5d5a5a5d5a5a5d5a5a5d5a5a5d5a5a5d5a5a5d5a5a5d5a5a5d5a5a5d5a5a5d5a5a5d5a5a5d5a5a5d5a5a5d5a5a5d5a5a5d5a5a5d5a5a5d5a5a5d5a5a5d5a5a5d5a5a5d5a5a5d5a5a5d5a5a5d5a5a5d5a5a5d5a5a5d5a5a5d5a5a5d5a5a5d5a5a5d5a5a5d5a5a5d5a5a5d5a5a5d5a5a5d5a5a5d5a5a5d5a5a5d5a5a5d5a5a5d5a5a5d5a5a5d5a5a5d5a5a5d5a5a5d5a5a5d5a5a5d5a5a5d5a5a5d5a5a5d5a5a5d5a5a5d5a5a5d5a5a5d5a5a5d5a5a5d5a5a5d5a5a5d5a5a5d5a5a5d5a5a5d5a5a5d5a5a5d5a5a5d5a5a5d5a5a5d5a5a5d5a5a5d5a5a5d5a5a5d5a5a5d5a5a5d5a5a5d5a5a5d5a5a5d5a5a5d5a5a5d5a5a5d5a5a5d5a5a5d5a5a5d5a5a5d5a5a5d5a5a5d5a5a5d5a5a5d5a5a5d5a5a5d5a5a5d5a5a5d5a5a5d5a5a5d5a5a5d5a5a5d5a5a5d5a5a5d5a5a5d5a5a5d5a5a5d5a5a5d5a5a5d5a5a5d5a5a5d5a5a5d5a5a5d5a5a5d5a5a5d5a5a5d5a5a5d5a5a5d5a5a5d5a5a5d5a5a5d5a5a5d5a5a5d5a5a5d5a5a5d5a5a5d5a5a5d5a5a5d5a5a5d5a5a5d5a5a5d5a5a5d5a5a5d5a5a5d5a5a5d5a5a5d5a5a5d5a5a5d5a5a5d5a5a5d5a5a5d5a5a5d5a5a5d5a5a5d5a5a5d5a5a5d5a5a5d5a5a5d5a5a5d5a5a5d5a5a5d5a5a5d5a5a5d5a5a5d5a5a5d5a5a5d5a5a5d5a5a5d5a5a5d5a5a5d5a5a5d5a5a5d5a5a5d5a5a5d5a5a5d5a5a5d5a5a5d5a5a5d5a5a5d5a5a5d5a5a5d5a5a5d5a5a5d5a5a5d5a5a5d5a5a5d5f56",
                "nonce": "0x00",
                "storage": {}
            },
            "0xa94f5374fce5edbc8e2a8697c15331677e6ebf0b": {
                "balance": "0x09184e72a000",
                "code": "0x",
                "nonce": "0x00",
                "storage": {}
            }
        },
        "transaction": {
            "data": [
                "0x"
            ],
            "gasLimit": [
                "0x01c9c380"
            ],
            "gasPrice": "0x0a",
            "nonce": "0x00",
            "secretKey": "0x45a915e4d060149eb4365960e6a7a45f334393093061116b197e3240065ff2d8",
            "sender": "0xa94f5374fce5edbc8e2a8697c15331677e6ebf0b",
            "to": "0x0000000000000000000000000000000000000100",
            "value": [
                "0x00"
            ]
        }
    }
}