{
    "subcall_8": {
        "_info": {
            "comment": "`execution-spec-tests` generated test",
            "description": "Test function documentation:\n\n    Test transient storage with a subcall using the following opcodes:\n\n    - `CALL`\n    - `CALLCODE`\n    - `DELEGATECALL`\n    - `STATICCALL`",
            "filling-rpc-server": "evm version 1.14.4-unstable-3d8028a6-20240513",
            "filling-tool-version": "retesteth-0.3.2-cancun+commit.2a41f237.Linux.g++",
            "filling-transition-tool": "evm version 1.14.4-unstable-3d8028a6-20240513",
            "generatedTestHash": "71f188f7d48679d188098bbd8491de96a65973c696092948956b99c3d517bb16",
            "hash": "0x3884031fc505aafef14a0f4da741f174ec8049947dca156929ee742f13bad69e",
            "lllcversion": "Version: 0.5.14-develop.2023.7.11+commit.c58ab2c6.mod.Linux.g++",
            "solidity": "Version: 0.8.21+commit.d9974bed.Linux.g++",
            "source": "src/GeneralStateTestsFiller/Pyspecs/cancun/eip1153_tstore/subcall_8Filler_.json",
            "sourceHash": "3976c0c4249cc972a83b06924c85e4dd109565673b0cc9dc06ec54a0028d558a",
            "url": "https://github.com/ethereum/execution-spec-tests/blob/87ef9bee36585b5b9f72d6eaafeeb1999b641d3c/tests/tmp/tmptest_046cf0a2_265c_47ad_bff5_1527f7966d0a/test_tstorage_execution_contexts.py#L315"
        },
        "env": {
            "currentBaseFee": "0x07",
            "currentCoinbase": "0x2adc25665018aa1fe0e6bc666dac8fc2697ff9ba",
            "currentDifficulty": "0x00",
            "currentExcessBlobGas": "0x00",
            "currentGasLimit": "0x016345785d8a0000",
            "currentNumber": "0x01",
            "currentRandom": "0x0000000000000000000000000000000000000000000000000000000000000000",
            "currentTimestamp": "0x03e8"
        },
        "post": {
            "Cancun": [
                {
                    "hash": "0x78e21e8bd77a08a706e8cb14104d3f7bb59e9a293fcd1c305fdc58fb556b9a7a",
                    "indexes": {
                        "data": 0,
                        "gas": 0,
                        "value": 0
                    },
                    "logs": "0x1dcc4de8dec75d7aab85b567b6ccd41ad312451b948a7413f0a142fd40d49347",
                    "txbytes": "0xf860800a830f4240940000000000000000000000000000000000000100808025a06ed8419ab28c42e73d2f147ebdddfd5de4fb1eb6b4f332d0c5fab55da6ee7eaaa05930cef304a571952dbcc5d64ddb799bba262cfe26fcdded394288f1999164ce"
                }
            ]
        },
        "pre": {
            "0x0000000000000000000000000000000000000100": {
                "balance": "0x00",
                "code": "0x6101a460005d6101a460015d6000600060006000600061020061fffff160005560005c60015560015c600255",
                "nonce": "0x00",
                "storage": {}
            },
            "0x0000000000000000000000000000000000000200": {
                "balance": "0x00",
                "code": "0x5d",
                "nonce": "0x00",
                "storage": {}
            },
            "0xa94f5374fce5edbc8e2a8697c15331677e6ebf0b": {
                "balance": "0x1d6329f1c35ca4bfabb9f5610000000000",
                "code": "0x",
                "nonce": "0x00",
                "storage": {}
            }
        },
        "transaction": {
            "data": [
                "0x"
            ],
            "gasLimit": [
                "0x0f4240"
            ],
            "gasPrice": "0x0a",
            "nonce": "0x00",
            "secretKey": "0x45a915e4d060149eb4365960e6a7a45f334393093061116b197e3240065ff2d8",
            "sender": "0xa94f5374fce5edbc8e2a8697c15331677e6ebf0b",
            "to": "0x0000000000000000000000000000000000000100",
            "value": [
                "0x00"
            ]
        }
    }
}