{
    "test_tstorage_reentrancy_contexts_2": {
        "_info": {
            "comment": "`execution-spec-tests` generated test",
            "description": "Test function documentation:\n\n    Test transient storage in different reentrancy contexts.",
            "filling-rpc-server": "evm version 1.14.4-unstable-3d8028a6-20240513",
            "filling-tool-version": "retesteth-0.3.2-cancun+commit.2a41f237.Linux.g++",
            "filling-transition-tool": "evm version 1.14.4-unstable-3d8028a6-20240513",
            "generatedTestHash": "57c7115c95210fb5cc3eae4dba655cd3b1e4e505e18f1346f0c054a6fd62fefa",
            "hash": "0x2f28c43fff9bbfceb2a00d1e9da421b09186ca1a42d2db21d99600cbf19edec7",
            "lllcversion": "Version: 0.5.14-develop.2023.7.11+commit.c58ab2c6.mod.Linux.g++",
            "solidity": "Version: 0.8.21+commit.d9974bed.Linux.g++",
            "source": "src/GeneralStateTestsFiller/Pyspecs/cancun/eip1153_tstore/test_tstorage_reentrancy_contextsFiller_2.json",
            "sourceHash": "c2686c7587b69c94259eb375378e09d197565b0106b4c542175577ce6bed1fe4",
            "url": "https://github.com/ethereum/execution-spec-tests/blob/87ef9bee36585b5b9f72d6eaafeeb1999b641d3c/tests/tmp/tmptest_765a7b55_764a_428a_a61e_940a212d695b/test_tstorage_reentrancy_contexts.py#L261"
        },
        "env": {
            "currentBaseFee": "0x07",
            "currentCoinbase": "0x2adc25665018aa1fe0e6bc666dac8fc2697ff9ba",
            "currentDifficulty": "0x00",
            "currentExcessBlobGas": "0x00",
            "currentGasLimit": "0x016345785d8a0000",
            "currentNumber": "0x01",
            "currentRandom": "0x0000000000000000000000000000000000000000000000000000000000000000",
            "currentTimestamp": "0x03e8"
        },
        "post": {
            "Cancun": [
                {
                    "hash": "0x8b462469fdc2dafb5838db70f813059b06f5e9d956a5073526bc1b0fa5f28b56",
                    "indexes": {
                        "data": 0,
                        "gas": 0,
                        "value": 0
                    },
                    "logs": "0x1dcc4de8dec75d7aab85b567b6ccd41ad312451b948a7413f0a142fd40d49347",
                    "txbytes": "0xf880800a8398968094000000000000000000000000000000000000020080a0000000000000000000000000000000000000000000000000000000000000000126a0960e5f676ae96a463a82d6e66ad5e3755279ce431343c063842f5254d4287b82a03f500ed3b0e09b04183bfaf2de1460461a2b3381eafc98248f822d1fbabe95b0"
                }
            ]
        },
        "pre": {
            "0x0000000000000000000000000000000000000200": {
                "balance": "0x00",
                "code": "0x600160003514601458015761010160ff5d60ff5c600255602d5801565b61010060ff5d60ff5c6001556002600052600060006020600060006102005af160005560ff5c6003555b",
                "nonce": "0x00",
                "storage": {}
            },
            "0xa94f5374fce5edbc8e2a8697c15331677e6ebf0b": {
                "balance": "0x1d6329f1c35ca4bfabb9f5610000000000",
                "code": "0x",
                "nonce": "0x00",
                "storage": {}
            }
        },
        "transaction": {
            "data": [
                "0x0000000000000000000000000000000000000000000000000000000000000001"
            ],
            "gasLimit": [
                "0x989680"
            ],
            "gasPrice": "0x0a",
            "nonce": "0x00",
            "secretKey": "0x45a915e4d060149eb4365960e6a7a45f334393093061116b197e3240065ff2d8",
            "sender": "0xa94f5374fce5edbc8e2a8697c15331677e6ebf0b",
            "to": "0x0000000000000000000000000000000000000200",
            "value": [
                "0x00"
            ]
        }
    }
}