{
    "test_tstorage_create_contexts_0": {
        "_info": {
            "comment": "`execution-spec-tests` generated test",
            "description": "Test class documentation:\n\n    Test transient storage in contract creation contexts:\n\n    - TSTORE/TLOAD in initcode should not be able to access the creator's transient storage.\n    - TSTORE/TLOAD in initcode should be able to access the created contract's transient\n        storage.\n    - TSTORE/TLOAD in creator contract should be able to use its own transient storage.\n    \n\nTest function documentation:\n\n        Test transient storage in contract creation contexts.",
            "filling-rpc-server": "evm version 1.14.4-unstable-3d8028a6-20240513",
            "filling-tool-version": "retesteth-0.3.2-cancun+commit.2a41f237.Linux.g++",
            "filling-transition-tool": "evm version 1.14.4-unstable-3d8028a6-20240513",
            "generatedTestHash": "1bcb0c959c25cd5488772edbb1ae743b757c95a93c606a6c05a0b4ee1f05cc63",
            "hash": "0x9470e6ac9a66b71884082b38390cad3b7f2bea50b82e07af930da39b726b3518",
            "lllcversion": "Version: 0.5.14-develop.2023.7.11+commit.c58ab2c6.mod.Linux.g++",
            "solidity": "Version: 0.8.21+commit.d9974bed.Linux.g++",
            "source": "src/GeneralStateTestsFiller/Pyspecs/cancun/eip1153_tstore/test_tstorage_create_contextsFiller_0.json",
            "sourceHash": "d1d9c5ad284377554027fbe512b8189475849536184177afe846a051ba060728",
            "url": "https://github.com/ethereum/execution-spec-tests/blob/87ef9bee36585b5b9f72d6eaafeeb1999b641d3c/tests/tmp/tmptest_02731bbc_7548_4e16_8043_bca8fb729e09/test_tstorage_create_contexts.py#L192"
        },
        "env": {
            "currentBaseFee": "0x07",
            "currentCoinbase": "0x2adc25665018aa1fe0e6bc666dac8fc2697ff9ba",
            "currentDifficulty": "0x00",
            "currentExcessBlobGas": "0x00",
            "currentGasLimit": "0x016345785d8a0000",
            "currentNumber": "0x01",
            "currentRandom": "0x0000000000000000000000000000000000000000000000000000000000000000",
            "currentTimestamp": "0x03e8"
        },
        "post": {
            "Cancun": [
                {
                    "hash": "0x2a2abf8f6a16c9a6fa5db7e1619daa29fbd8b2b5582c49fa8b1698bf02f7ded8",
                    "indexes": {
                        "data": 0,
                        "gas": 0,
                        "value": 0
                    },
                    "logs": "0x1dcc4de8dec75d7aab85b567b6ccd41ad312451b948a7413f0a142fd40d49347",
                    "txbytes": "0xf889800a85e8d4a5100094000000000000000000000000000000000000010080a7600160015d61001760008160108239f360005c60005560015c600155600160025d60025c60025525a0d757072d13a4efe618cdfb6602a87738722fb78d87e28464f040aeed48a6bb3fa03357ef00b2cbb3815d3557092e541b06898eaf173be7657dd428cd05d81501a5"
                }
            ]
        },
        "pre": {
            "0x0000000000000000000000000000000000000100": {
                "balance": "0x00",
                "code": "0x61010060005d61020060015d61030060025d36600060003763deadbeef3660006000f56000600060006000600073bb49e5bd24a17a9f51b5ac4a5b335863d7f6ba9e5af160045560005c60005560015c60015560025c600255",
                "nonce": "0x01",
                "storage": {}
            },
            "0xa94f5374fce5edbc8e2a8697c15331677e6ebf0b": {
                "balance": "0x5af3107a4000",
                "code": "0x",
                "nonce": "0x00",
                "storage": {}
            }
        },
        "transaction": {
            "data": [
                "0x600160015d61001760008160108239f360005c60005560015c600155600160025d60025c600255"
            ],
            "gasLimit": [
                "0xe8d4a51000"
            ],
            "gasPrice": "0x0a",
            "nonce": "0x00",
            "secretKey": "0x45a915e4d060149eb4365960e6a7a45f334393093061116b197e3240065ff2d8",
            "sender": "0xa94f5374fce5edbc8e2a8697c15331677e6ebf0b",
            "to": "0x0000000000000000000000000000000000000100",
            "value": [
                "0x00"
            ]
        }
    }
}