{
    "test_tstorage_selfdestruct_1": {
        "_info": {
            "comment": "`execution-spec-tests` generated test",
            "description": "Test function documentation:\n\n    Test transient storage in different reentrancy contexts after selfdestructing.",
            "filling-rpc-server": "evm version 1.14.4-unstable-3d8028a6-20240513",
            "filling-tool-version": "retesteth-0.3.2-cancun+commit.2a41f237.Linux.g++",
            "filling-transition-tool": "evm version 1.14.4-unstable-3d8028a6-20240513",
            "generatedTestHash": "a1eb6d600fec8f4361469c0b4b0be293460e4634d387bbdaeeca2df96af965f6",
            "hash": "0x0763176179358427a6d19e259bbc6ef2f95a0290883593fd081d6756bd20caad",
            "lllcversion": "Version: 0.5.14-develop.2023.7.11+commit.c58ab2c6.mod.Linux.g++",
            "solidity": "Version: 0.8.21+commit.d9974bed.Linux.g++",
            "source": "src/GeneralStateTestsFiller/Pyspecs/cancun/eip1153_tstore/test_tstorage_selfdestructFiller_1.json",
            "sourceHash": "d103e19935ea7fc09253c39cfbb678dafcf0e0c2a3236ca240ee221372ad3838",
            "url": "https://github.com/ethereum/execution-spec-tests/blob/87ef9bee36585b5b9f72d6eaafeeb1999b641d3c/tests/tmp/tmptest_0202d24a_a60a_4154_a148_123a83ed420a/test_tstorage_selfdestruct.py#L215"
        },
        "env": {
            "currentBaseFee": "0x07",
            "currentCoinbase": "0x2adc25665018aa1fe0e6bc666dac8fc2697ff9ba",
            "currentDifficulty": "0x00",
            "currentExcessBlobGas": "0x00",
            "currentGasLimit": "0x016345785d8a0000",
            "currentNumber": "0x01",
            "currentRandom": "0x0000000000000000000000000000000000000000000000000000000000000000",
            "currentTimestamp": "0x03e8"
        },
        "post": {
            "Cancun": [
                {
                    "hash": "0xc8046186b4cc88387b698515dd4abede378c10222029a7d73871fac4e9d24b42",
                    "indexes": {
                        "data": 0,
                        "gas": 0,
                        "value": 0
                    },
                    "logs": "0x1dcc4de8dec75d7aab85b567b6ccd41ad312451b948a7413f0a142fd40d49347",
                    "txbytes": "0xf860800a830f4240940000000000000000000000000000000000000100808025a06ed8419ab28c42e73d2f147ebdddfd5de4fb1eb6b4f332d0c5fab55da6ee7eaaa05930cef304a571952dbcc5d64ddb799bba262cfe26fcdded394288f1999164ce"
                }
            ]
        },
        "pre": {
            "0x0000000000000000000000000000000000000100": {
                "balance": "0x00",
                "code": "0x6001600052602060006020600060007304ab3066469dcba4c3686a65a8c2fdae7b1f217b5af1600055600051600155",
                "nonce": "0x01",
                "storage": {}
            },
            "0x0000000000000000000000000000000000000200": {
                "balance": "0x00",
                "code": "0x610062600081600b8239f3600160003514601c580157600260003514600858015760495801565b6000ff60405801565b61010060ff5d6002600052602060006020600060007304ab3066469dcba4c3686a65a8c2fdae7b1f217b5af160ff5c60005260206000f360035801565b",
                "nonce": "0x00",
                "storage": {}
            },
            "0x04ab3066469dcba4c3686a65a8c2fdae7b1f217b": {
                "balance": "0x00",
                "code": "0x600160003514601c580157600260003514600858015760495801565b6000ff60405801565b61010060ff5d6002600052602060006020600060007304ab3066469dcba4c3686a65a8c2fdae7b1f217b5af160ff5c60005260206000f360035801565b",
                "nonce": "0x00",
                "storage": {}
            },
            "0xa94f5374fce5edbc8e2a8697c15331677e6ebf0b": {
                "balance": "0x1d6329f1c35ca4bfabb9f5610000000000",
                "code": "0x",
                "nonce": "0x00",
                "storage": {}
            }
        },
        "transaction": {
            "data": [
                "0x"
            ],
            "gasLimit": [
                "0x0f4240"
            ],
            "gasPrice": "0x0a",
            "nonce": "0x00",
            "secretKey": "0x45a915e4d060149eb4365960e6a7a45f334393093061116b197e3240065ff2d8",
            "sender": "0xa94f5374fce5edbc8e2a8697c15331677e6ebf0b",
            "to": "0x0000000000000000000000000000000000000100",
            "value": [
                "0x00"
            ]
        }
    }
}