{
    "test_tstorage_create_contexts_6": {
        "_info": {
            "comment": "`execution-spec-tests` generated test",
            "description": "Test class documentation:\n\n    Test transient storage in contract creation contexts:\n\n    - TSTORE/TLOAD in initcode should not be able to access the creator's transient storage.\n    - TSTORE/TLOAD in initcode should be able to access the created contract's transient\n        storage.\n    - TSTORE/TLOAD in creator contract should be able to use its own transient storage.\n    \n\nTest function documentation:\n\n        Test transient storage in contract creation contexts.",
            "filling-rpc-server": "evm version 1.14.4-unstable-3d8028a6-20240513",
            "filling-tool-version": "retesteth-0.3.2-cancun+commit.2a41f237.Linux.g++",
            "filling-transition-tool": "evm version 1.14.4-unstable-3d8028a6-20240513",
            "generatedTestHash": "49470455fa744edf2893f91523bf4e863ee3a104a5f2655990a5d9db607ef371",
            "hash": "0x92b1ec57ce9b7f3a0cd0289a39628120847393812b1bcde9d49ebf487745da01",
            "lllcversion": "Version: 0.5.14-develop.2023.7.11+commit.c58ab2c6.mod.Linux.g++",
            "solidity": "Version: 0.8.21+commit.d9974bed.Linux.g++",
            "source": "src/GeneralStateTestsFiller/Pyspecs/cancun/eip1153_tstore/test_tstorage_create_contextsFiller_6.json",
            "sourceHash": "d1d9c5ad284377554027fbe512b8189475849536184177afe846a051ba060728",
            "url": "https://github.com/ethereum/execution-spec-tests/blob/87ef9bee36585b5b9f72d6eaafeeb1999b641d3c/tests/tmp/tmptest_02731bbc_7548_4e16_8043_bca8fb729e09/test_tstorage_create_contexts.py#L192"
        },
        "env": {
            "currentBaseFee": "0x07",
            "currentCoinbase": "0x2adc25665018aa1fe0e6bc666dac8fc2697ff9ba",
            "currentDifficulty": "0x00",
            "currentExcessBlobGas": "0x00",
            "currentGasLimit": "0x016345785d8a0000",
            "currentNumber": "0x01",
            "currentRandom": "0x0000000000000000000000000000000000000000000000000000000000000000",
            "currentTimestamp": "0x03e8"
        },
        "post": {
            "Cancun": [
                {
                    "hash": "0xd5fcae79817c9e4c2125d62556061eaa7a55ae4998756cf8661ac91307e1f1cc",
                    "indexes": {
                        "data": 0,
                        "gas": 0,
                        "value": 0
                    },
                    "logs": "0x1dcc4de8dec75d7aab85b567b6ccd41ad312451b948a7413f0a142fd40d49347",
                    "txbytes": "0xf87e800a85e8d4a51000940000000000000000000000000000000000000100809c610011600081600b8239f360005c600055600160005d60005c60015525a0125c9d24e9e60e6dc11116d24ff389f2037570c0880bbb8a4ca929035fc709c8a008803044e1fe051b84991d917391c051a26cd7ecb45801a5129681b6b22c65ab"
                }
            ]
        },
        "pre": {
            "0x0000000000000000000000000000000000000100": {
                "balance": "0x00",
                "code": "0x61010060005d61020060015d61030060025d36600060003763deadbeef3660006000f5600060006000600060007363394aae4fdab648c82bba89ee5d5e595cae925e5af160045560005c60005560015c60015560025c600255",
                "nonce": "0x01",
                "storage": {}
            },
            "0xa94f5374fce5edbc8e2a8697c15331677e6ebf0b": {
                "balance": "0x5af3107a4000",
                "code": "0x",
                "nonce": "0x00",
                "storage": {}
            }
        },
        "transaction": {
            "data": [
                "0x610011600081600b8239f360005c600055600160005d60005c600155"
            ],
            "gasLimit": [
                "0xe8d4a51000"
            ],
            "gasPrice": "0x0a",
            "nonce": "0x00",
            "secretKey": "0x45a915e4d060149eb4365960e6a7a45f334393093061116b197e3240065ff2d8",
            "sender": "0xa94f5374fce5edbc8e2a8697c15331677e6ebf0b",
            "to": "0x0000000000000000000000000000000000000100",
            "value": [
                "0x00"
            ]
        }
    }
}