{
    "blob_tx_attribute_gasprice_opcode_2": {
        "_info": {
            "comment": "`execution-spec-tests` generated test",
            "description": "Test function documentation:\n\n    Test GASPRICE opcode to sanity check that the blob gas fee does not affect\n    its calculation:\n\n    - No priority fee\n    - Priority fee below data fee\n    - Priority fee above data fee",
            "filling-rpc-server": "evm version 1.14.4-unstable-3d8028a6-20240513",
            "filling-tool-version": "retesteth-0.3.2-cancun+commit.2a41f237.Linux.g++",
            "filling-transition-tool": "evm version 1.14.4-unstable-3d8028a6-20240513",
            "generatedTestHash": "642e90f79b05e195af6fb65e322db7ba8353e284e6159d01d19afa377a6278ef",
            "hash": "0xa1aff6914376127298a9c19ece6c77ae991322be002e009ba1e3af49fbff2073",
            "lllcversion": "Version: 0.5.14-develop.2023.7.11+commit.c58ab2c6.mod.Linux.g++",
            "solidity": "Version: 0.8.21+commit.d9974bed.Linux.g++",
            "source": "src/GeneralStateTestsFiller/Pyspecs/cancun/eip4844_blobs/blob_tx_attribute_gasprice_opcode_2Filler_.json",
            "sourceHash": "ac8e32f87d88712c31113be2cd23f56d5adf2b12381680ac1652db83fa7c80d5",
            "url": "https://github.com/ethereum/execution-spec-tests/blob/87ef9bee36585b5b9f72d6eaafeeb1999b641d3c/tests/tmp/tmptest_3aeebbf6_76a6_4c89_99ee_6f28a0d92c02/test_blob_txs.py#L1347"
        },
        "env": {
            "currentBaseFee": "0x07",
            "currentCoinbase": "0x2adc25665018aa1fe0e6bc666dac8fc2697ff9ba",
            "currentDifficulty": "0x00",
            "currentExcessBlobGas": "0x0e0000",
            "currentGasLimit": "0x016345785d8a0000",
            "currentNumber": "0x01",
            "currentRandom": "0x0000000000000000000000000000000000000000000000000000000000000000",
            "currentTimestamp": "0x03e8"
        },
        "post": {
            "Cancun": [
                {
                    "hash": "0xdb495d8fd71676a4ea491702f1046030d47499400b93eda76ba8f0e73b1e2afe",
                    "indexes": {
                        "data": 0,
                        "gas": 0,
                        "value": 0
                    },
                    "logs": "0x1dcc4de8dec75d7aab85b567b6ccd41ad312451b948a7413f0a142fd40d49347",
                    "txbytes": "0x03f886018080648307a1209400000000000000000000000000000000000001000180c003e1a0010000000000000000000000000000000000000000000000000000000000000001a0bbc1def7093580ef6a36298faaf833902efd47e743b7d663059b1b15c4068a0ba072c94f8cb821a0d083c2106d8c4a350b802b63e8ba28cf7b65bd2521cd18e2fd"
                }
            ]
        },
        "pre": {
            "0x0000000000000000000000000000000000000100": {
                "balance": "0x00",
                "code": "0x3a600055",
                "nonce": "0x00",
                "storage": {}
            },
            "0xa94f5374fce5edbc8e2a8697c15331677e6ebf0b": {
                "balance": "0x0300f081",
                "code": "0x",
                "nonce": "0x00",
                "storage": {}
            }
        },
        "transaction": {
            "accessLists": [
                []
            ],
            "blobVersionedHashes": [
                "0x0100000000000000000000000000000000000000000000000000000000000000"
            ],
            "data": [
                "0x"
            ],
            "gasLimit": [
                "0x07a120"
            ],
            "maxFeePerBlobGas": "0x03",
            "maxFeePerGas": "0x64",
            "maxPriorityFeePerGas": "0x00",
            "nonce": "0x00",
            "secretKey": "0x45a915e4d060149eb4365960e6a7a45f334393093061116b197e3240065ff2d8",
            "sender": "0xa94f5374fce5edbc8e2a8697c15331677e6ebf0b",
            "to": "0x0000000000000000000000000000000000000100",
            "value": [
                "0x01"
            ]
        }
    }
}