{
    "insufficient_balance_blob_tx_15": {
        "_info": {
            "comment": "`execution-spec-tests` generated test",
            "description": "Test function documentation:\n\n    Reject blocks where user cannot afford the blob gas specified (but\n    max_fee_per_gas would be enough for current block), including:\n\n    - Transactions with max fee equal or higher than current block base fee\n    - Transactions with and without priority fee\n    - Transactions with and without value\n    - Transactions with and without calldata\n    - Transactions with max fee per blob gas lower or higher than the priority fee",
            "filling-rpc-server": "evm version 1.14.4-unstable-3d8028a6-20240513",
            "filling-tool-version": "retesteth-0.3.2-cancun+commit.2a41f237.Linux.g++",
            "filling-transition-tool": "evm version 1.14.4-unstable-3d8028a6-20240513",
            "generatedTestHash": "335db6a82209231809a2a518733c6424fa2954ec3d972210e8e5a4e0e1746340",
            "hash": "0x75d5a9da5fb0123c75cdbadd9d1ce718348eba50964f7cf6463d5c2a61bf896d",
            "lllcversion": "Version: 0.5.14-develop.2023.7.11+commit.c58ab2c6.mod.Linux.g++",
            "solidity": "Version: 0.8.21+commit.d9974bed.Linux.g++",
            "source": "src/GeneralStateTestsFiller/Pyspecs/cancun/eip4844_blobs/insufficient_balance_blob_tx_15Filler_.json",
            "sourceHash": "ac8e32f87d88712c31113be2cd23f56d5adf2b12381680ac1652db83fa7c80d5",
            "url": "https://github.com/ethereum/execution-spec-tests/blob/87ef9bee36585b5b9f72d6eaafeeb1999b641d3c/tests/tmp/tmptest_3aeebbf6_76a6_4c89_99ee_6f28a0d92c02/test_blob_txs.py#L760"
        },
        "env": {
            "currentBaseFee": "0x07",
            "currentCoinbase": "0x2adc25665018aa1fe0e6bc666dac8fc2697ff9ba",
            "currentDifficulty": "0x00",
            "currentExcessBlobGas": "0x0e0000",
            "currentGasLimit": "0x016345785d8a0000",
            "currentNumber": "0x01",
            "currentRandom": "0x0000000000000000000000000000000000000000000000000000000000000000",
            "currentTimestamp": "0x03e8"
        },
        "post": {
            "Cancun": [
                {
                    "expectException": "TransactionException.INSUFFICIENT_ACCOUNT_FUNDS",
                    "hash": "0x3e814d49c98eda6a2f28b1a5b540949bbdff398e0b0ed9d87b3b347ca7b3549b",
                    "indexes": {
                        "data": 0,
                        "gas": 0,
                        "value": 0
                    },
                    "logs": "0x1dcc4de8dec75d7aab85b567b6ccd41ad312451b948a7413f0a142fd40d49347",
                    "txbytes": "0x03f885018007078252089400000000000000000000000000000000000001000180c001e1a0010000000000000000000000000000000000000000000000000000000000000080a0e124bbb45daf2d0803a476a59864ef5fc1b24877e0d64ce75ef2d61f298e9aaca00386c51e69fee300077c3e64635f9e85c805b2fb94b419514672b171e2e79b6e"
                }
            ]
        },
        "pre": {
            "0xa94f5374fce5edbc8e2a8697c15331677e6ebf0b": {
                "balance": "0x043e38",
                "code": "0x",
                "nonce": "0x00",
                "storage": {}
            }
        },
        "transaction": {
            "accessLists": [
                []
            ],
            "blobVersionedHashes": [
                "0x0100000000000000000000000000000000000000000000000000000000000000"
            ],
            "data": [
                "0x"
            ],
            "gasLimit": [
                "0x5208"
            ],
            "maxFeePerBlobGas": "0x01",
            "maxFeePerGas": "0x07",
            "maxPriorityFeePerGas": "0x07",
            "nonce": "0x00",
            "secretKey": "0x45a915e4d060149eb4365960e6a7a45f334393093061116b197e3240065ff2d8",
            "sender": "0xa94f5374fce5edbc8e2a8697c15331677e6ebf0b",
            "to": "0x0000000000000000000000000000000000000100",
            "value": [
                "0x01"
            ]
        }
    }
}