{
    "insufficient_balance_blob_tx_25": {
        "_info": {
            "comment": "`execution-spec-tests` generated test",
            "description": "Test function documentation:\n\n    Reject blocks where user cannot afford the blob gas specified (but\n    max_fee_per_gas would be enough for current block), including:\n\n    - Transactions with max fee equal or higher than current block base fee\n    - Transactions with and without priority fee\n    - Transactions with and without value\n    - Transactions with and without calldata\n    - Transactions with max fee per blob gas lower or higher than the priority fee",
            "filling-rpc-server": "evm version 1.14.4-unstable-3d8028a6-20240513",
            "filling-tool-version": "retesteth-0.3.2-cancun+commit.2a41f237.Linux.g++",
            "filling-transition-tool": "evm version 1.14.4-unstable-3d8028a6-20240513",
            "generatedTestHash": "1488740c416cae7451f9589d21aed1cc7b5dda2b14fd0e94ab3de8b9023564b4",
            "hash": "0x5e4f8cca8a042e3a77b4b9ae002baf1231ad957a718e794b0b0626ac09325732",
            "lllcversion": "Version: 0.5.14-develop.2023.7.11+commit.c58ab2c6.mod.Linux.g++",
            "solidity": "Version: 0.8.21+commit.d9974bed.Linux.g++",
            "source": "src/GeneralStateTestsFiller/Pyspecs/cancun/eip4844_blobs/insufficient_balance_blob_tx_25Filler_.json",
            "sourceHash": "ac8e32f87d88712c31113be2cd23f56d5adf2b12381680ac1652db83fa7c80d5",
            "url": "https://github.com/ethereum/execution-spec-tests/blob/87ef9bee36585b5b9f72d6eaafeeb1999b641d3c/tests/tmp/tmptest_3aeebbf6_76a6_4c89_99ee_6f28a0d92c02/test_blob_txs.py#L760"
        },
        "env": {
            "currentBaseFee": "0x07",
            "currentCoinbase": "0x2adc25665018aa1fe0e6bc666dac8fc2697ff9ba",
            "currentDifficulty": "0x00",
            "currentExcessBlobGas": "0x0e0000",
            "currentGasLimit": "0x016345785d8a0000",
            "currentNumber": "0x01",
            "currentRandom": "0x0000000000000000000000000000000000000000000000000000000000000000",
            "currentTimestamp": "0x03e8"
        },
        "post": {
            "Cancun": [
                {
                    "expectException": "TransactionException.INSUFFICIENT_ACCOUNT_FUNDS",
                    "hash": "0xed6a2678f79a04eca1015303bd298c107ed37a942fa78e3ff3c67e90bb90ae27",
                    "indexes": {
                        "data": 0,
                        "gas": 0,
                        "value": 0
                    },
                    "logs": "0x1dcc4de8dec75d7aab85b567b6ccd41ad312451b948a7413f0a142fd40d49347",
                    "txbytes": "0x03f8850180800e8252189400000000000000000000000000000000000001000101c001e1a0010000000000000000000000000000000000000000000000000000000000000001a02c12caf79d3355fb88a6a472f840c4e91b73cca538b6fceffa906a455320360da0211efcc9d956ad01eb918c4b9e349e4b3a62d3e526b06a6f540a7ed7713d9ca2"
                }
            ]
        },
        "pre": {
            "0xa94f5374fce5edbc8e2a8697c15331677e6ebf0b": {
                "balance": "0x067d50",
                "code": "0x",
                "nonce": "0x00",
                "storage": {}
            }
        },
        "transaction": {
            "accessLists": [
                []
            ],
            "blobVersionedHashes": [
                "0x0100000000000000000000000000000000000000000000000000000000000000"
            ],
            "data": [
                "0x01"
            ],
            "gasLimit": [
                "0x5218"
            ],
            "maxFeePerBlobGas": "0x01",
            "maxFeePerGas": "0x0e",
            "maxPriorityFeePerGas": "0x00",
            "nonce": "0x00",
            "secretKey": "0x45a915e4d060149eb4365960e6a7a45f334393093061116b197e3240065ff2d8",
            "sender": "0xa94f5374fce5edbc8e2a8697c15331677e6ebf0b",
            "to": "0x0000000000000000000000000000000000000100",
            "value": [
                "0x01"
            ]
        }
    }
}