{
    "point_evaluation_precompile_external_vectors_69": {
        "_info": {
            "comment": "`execution-spec-tests` generated test",
            "description": "Test function documentation:\n\n    Test precompile calls using external test vectors compiled from different sources:\n\n    - `go_kzg_4844_verify_kzg_proof.json`: test vectors from the\n    [go-kzg-4844](https://github.com/crate-crypto/go-kzg-4844) repository.",
            "filling-rpc-server": "evm version 1.14.4-unstable-3d8028a6-20240513",
            "filling-tool-version": "retesteth-0.3.2-cancun+commit.2a41f237.Linux.g++",
            "filling-transition-tool": "evm version 1.14.4-unstable-3d8028a6-20240513",
            "generatedTestHash": "27bfe59c0882ba7503c226e77ac5e4ed09da4bcaac7665e7d40e9aa6b2ddaffe",
            "hash": "0x8638f0b5b55ef111263ba4b2428d98fcede9b4191a2a64390bcf8706a49af89a",
            "lllcversion": "Version: 0.5.14-develop.2023.7.11+commit.c58ab2c6.mod.Linux.g++",
            "solidity": "Version: 0.8.21+commit.d9974bed.Linux.g++",
            "source": "src/GeneralStateTestsFiller/Pyspecs/cancun/eip4844_blobs/point_evaluation_precompile_external_vectors_69Filler_.json",
            "sourceHash": "25da6025e98b42cd56330bedd4365f4b4f06034368beeebad323569fdc415097",
            "url": "https://github.com/ethereum/execution-spec-tests/blob/87ef9bee36585b5b9f72d6eaafeeb1999b641d3c/tests/tmp/tmptest_f8115fbb_8e6a_4abd_8bc3_36e8d18b35d5/test_point_evaluation_precompile.py#L415"
        },
        "env": {
            "currentBaseFee": "0x07",
            "currentCoinbase": "0x2adc25665018aa1fe0e6bc666dac8fc2697ff9ba",
            "currentDifficulty": "0x00",
            "currentExcessBlobGas": "0x00",
            "currentGasLimit": "0x016345785d8a0000",
            "currentNumber": "0x01",
            "currentRandom": "0x0000000000000000000000000000000000000000000000000000000000000000",
            "currentTimestamp": "0x03e8"
        },
        "post": {
            "Cancun": [
                {
                    "hash": "0xa22bb20bbb5367b2a6fcc9de605bd5793aa3474182ac717ba7ddf836be6c46fe",
                    "indexes": {
                        "data": 0,
                        "gas": 0,
                        "value": 0
                    },
                    "logs": "0x1dcc4de8dec75d7aab85b567b6ccd41ad312451b948a7413f0a142fd40d49347",
                    "txbytes": "0x02f9012401808007830f424094000000000000000000000000000000000000010080b8c0014edfed8547661f6cb416eba53061a2f6dce872c0497e6dd485a876fe2567f1564c0a11a0f704f4fc3e8acfe0f8245f0ad1347b378fbf96e206da11a5d363066d928e13fe443e957d82e3e71d48cb65d51028eb4483e719bf8efcdf12f7c321a421e229565952cfff4ef3517100a97da1d4fe57956fa50a442f92af03b1bf37adacc8ad4ed209b31287ea5bb94d9d068d72dc4eec977090f452b412a6b0a3cdced2ea6b622ebb6e289c7e05d85cc715b93eca244123c84a60b3ecbf33373903c080a0af068027110a9a1b3a0edbc32d0f5f03df92826848631eb0ee5d267e09a93973a003e93ae2f5ee3fcb798537a2bcff0513c4730f14ae889dcf5848d63af12c1542"
                }
            ]
        },
        "pre": {
            "0x0000000000000000000000000000000000000100": {
                "balance": "0x01000000000000000000",
                "code": "0x366000600037604060003660006000600a61c350f16000556000516001556020516002553d6003553d600060003e600051600455602051600555",
                "nonce": "0x00",
                "storage": {}
            },
            "0xa94f5374fce5edbc8e2a8697c15331677e6ebf0b": {
                "balance": "0x01000000000000000000",
                "code": "0x",
                "nonce": "0x00",
                "storage": {}
            }
        },
        "transaction": {
            "accessLists": [
                []
            ],
            "data": [
                "0x014edfed8547661f6cb416eba53061a2f6dce872c0497e6dd485a876fe2567f1564c0a11a0f704f4fc3e8acfe0f8245f0ad1347b378fbf96e206da11a5d363066d928e13fe443e957d82e3e71d48cb65d51028eb4483e719bf8efcdf12f7c321a421e229565952cfff4ef3517100a97da1d4fe57956fa50a442f92af03b1bf37adacc8ad4ed209b31287ea5bb94d9d068d72dc4eec977090f452b412a6b0a3cdced2ea6b622ebb6e289c7e05d85cc715b93eca244123c84a60b3ecbf33373903"
            ],
            "gasLimit": [
                "0x0f4240"
            ],
            "maxFeePerGas": "0x07",
            "maxPriorityFeePerGas": "0x00",
            "nonce": "0x00",
            "secretKey": "0x45a915e4d060149eb4365960e6a7a45f334393093061116b197e3240065ff2d8",
            "sender": "0xa94f5374fce5edbc8e2a8697c15331677e6ebf0b",
            "to": "0x0000000000000000000000000000000000000100",
            "value": [
                "0x00"
            ]
        }
    }
}