{
    "point_evaluation_precompile_external_vectors_26": {
        "_info": {
            "comment": "`execution-spec-tests` generated test",
            "description": "Test function documentation:\n\n    Test precompile calls using external test vectors compiled from different sources:\n\n    - `go_kzg_4844_verify_kzg_proof.json`: test vectors from the\n    [go-kzg-4844](https://github.com/crate-crypto/go-kzg-4844) repository.",
            "filling-rpc-server": "evm version 1.14.4-unstable-3d8028a6-20240513",
            "filling-tool-version": "retesteth-0.3.2-cancun+commit.2a41f237.Linux.g++",
            "filling-transition-tool": "evm version 1.14.4-unstable-3d8028a6-20240513",
            "generatedTestHash": "680cfb3969a1ab06416c1e3bf74f3e9e4a5c533a7897d748b2e93814048cdc55",
            "hash": "0x345a8eba3ffbf60b425b168af91ef23c2506f98cc8536968b4f0fee65707c7d1",
            "lllcversion": "Version: 0.5.14-develop.2023.7.11+commit.c58ab2c6.mod.Linux.g++",
            "solidity": "Version: 0.8.21+commit.d9974bed.Linux.g++",
            "source": "src/GeneralStateTestsFiller/Pyspecs/cancun/eip4844_blobs/point_evaluation_precompile_external_vectors_26Filler_.json",
            "sourceHash": "25da6025e98b42cd56330bedd4365f4b4f06034368beeebad323569fdc415097",
            "url": "https://github.com/ethereum/execution-spec-tests/blob/87ef9bee36585b5b9f72d6eaafeeb1999b641d3c/tests/tmp/tmptest_f8115fbb_8e6a_4abd_8bc3_36e8d18b35d5/test_point_evaluation_precompile.py#L415"
        },
        "env": {
            "currentBaseFee": "0x07",
            "currentCoinbase": "0x2adc25665018aa1fe0e6bc666dac8fc2697ff9ba",
            "currentDifficulty": "0x00",
            "currentExcessBlobGas": "0x00",
            "currentGasLimit": "0x016345785d8a0000",
            "currentNumber": "0x01",
            "currentRandom": "0x0000000000000000000000000000000000000000000000000000000000000000",
            "currentTimestamp": "0x03e8"
        },
        "post": {
            "Cancun": [
                {
                    "hash": "0xe880164ced69722feb0620d89b34e00ad4b0565cf3430a70afe8460d7fa27508",
                    "indexes": {
                        "data": 0,
                        "gas": 0,
                        "value": 0
                    },
                    "logs": "0x1dcc4de8dec75d7aab85b567b6ccd41ad312451b948a7413f0a142fd40d49347",
                    "txbytes": "0x02f9012401808007830f424094000000000000000000000000000000000000010080b8c001228461eb9cfa5aecb883d64f7434b6c092be63e8599fa9da8473a13f8b804e564c0a11a0f704f4fc3e8acfe0f8245f0ad1347b378fbf96e206da11a5d363066c28d6edfea2f5e1638cb1a8be8197549d52e133fa9dae87e52abb45f7b192ddb49d88afcd7f6c61a8ea69eff5f609d2432b47e7e4cd50b02cdddb4e0c1460517e8df02e4e64dc55e3d8ca192d57193a8a46b67dcba4e3aa66f9952be69e1ecbc24e21d42b1df2bfe1c8e28431c6221a3f1d09808042f5624e857710cb24fb69c080a0d83602a0880d4a65094b22792227cf6848651300e7ef63463afb4cb55fb85552a016222311e5b80b643b9b0a13e8acac14a734a535116b7fcd2ec7b473e45c5c2d"
                }
            ]
        },
        "pre": {
            "0x0000000000000000000000000000000000000100": {
                "balance": "0x01000000000000000000",
                "code": "0x366000600037604060003660006000600a61c350f16000556000516001556020516002553d6003553d600060003e600051600455602051600555",
                "nonce": "0x00",
                "storage": {}
            },
            "0xa94f5374fce5edbc8e2a8697c15331677e6ebf0b": {
                "balance": "0x01000000000000000000",
                "code": "0x",
                "nonce": "0x00",
                "storage": {}
            }
        },
        "transaction": {
            "accessLists": [
                []
            ],
            "data": [
                "0x01228461eb9cfa5aecb883d64f7434b6c092be63e8599fa9da8473a13f8b804e564c0a11a0f704f4fc3e8acfe0f8245f0ad1347b378fbf96e206da11a5d363066c28d6edfea2f5e1638cb1a8be8197549d52e133fa9dae87e52abb45f7b192ddb49d88afcd7f6c61a8ea69eff5f609d2432b47e7e4cd50b02cdddb4e0c1460517e8df02e4e64dc55e3d8ca192d57193a8a46b67dcba4e3aa66f9952be69e1ecbc24e21d42b1df2bfe1c8e28431c6221a3f1d09808042f5624e857710cb24fb69"
            ],
            "gasLimit": [
                "0x0f4240"
            ],
            "maxFeePerGas": "0x07",
            "maxPriorityFeePerGas": "0x00",
            "nonce": "0x00",
            "secretKey": "0x45a915e4d060149eb4365960e6a7a45f334393093061116b197e3240065ff2d8",
            "sender": "0xa94f5374fce5edbc8e2a8697c15331677e6ebf0b",
            "to": "0x0000000000000000000000000000000000000100",
            "value": [
                "0x00"
            ]
        }
    }
}