{
    "point_evaluation_precompile_external_vectors_65": {
        "_info": {
            "comment": "`execution-spec-tests` generated test",
            "description": "Test function documentation:\n\n    Test precompile calls using external test vectors compiled from different sources:\n\n    - `go_kzg_4844_verify_kzg_proof.json`: test vectors from the\n    [go-kzg-4844](https://github.com/crate-crypto/go-kzg-4844) repository.",
            "filling-rpc-server": "evm version 1.14.4-unstable-3d8028a6-20240513",
            "filling-tool-version": "retesteth-0.3.2-cancun+commit.2a41f237.Linux.g++",
            "filling-transition-tool": "evm version 1.14.4-unstable-3d8028a6-20240513",
            "generatedTestHash": "fda8d8ac60ccee961db18779be7b90e96049a1a59acebe8f03b11055ae153d34",
            "hash": "0x0b4725cc565b13d2bcb03f8447482a76ecbbcb67135d34b4bf29c277abc3fb25",
            "lllcversion": "Version: 0.5.14-develop.2023.7.11+commit.c58ab2c6.mod.Linux.g++",
            "solidity": "Version: 0.8.21+commit.d9974bed.Linux.g++",
            "source": "src/GeneralStateTestsFiller/Pyspecs/cancun/eip4844_blobs/point_evaluation_precompile_external_vectors_65Filler_.json",
            "sourceHash": "25da6025e98b42cd56330bedd4365f4b4f06034368beeebad323569fdc415097",
            "url": "https://github.com/ethereum/execution-spec-tests/blob/87ef9bee36585b5b9f72d6eaafeeb1999b641d3c/tests/tmp/tmptest_f8115fbb_8e6a_4abd_8bc3_36e8d18b35d5/test_point_evaluation_precompile.py#L415"
        },
        "env": {
            "currentBaseFee": "0x07",
            "currentCoinbase": "0x2adc25665018aa1fe0e6bc666dac8fc2697ff9ba",
            "currentDifficulty": "0x00",
            "currentExcessBlobGas": "0x00",
            "currentGasLimit": "0x016345785d8a0000",
            "currentNumber": "0x01",
            "currentRandom": "0x0000000000000000000000000000000000000000000000000000000000000000",
            "currentTimestamp": "0x03e8"
        },
        "post": {
            "Cancun": [
                {
                    "hash": "0x83f4bc91439b991425deb797e9aa3ac0924ff70fe3173c296eabddd015fc1cdc",
                    "indexes": {
                        "data": 0,
                        "gas": 0,
                        "value": 0
                    },
                    "logs": "0x1dcc4de8dec75d7aab85b567b6ccd41ad312451b948a7413f0a142fd40d49347",
                    "txbytes": "0x02f9012401808007830f424094000000000000000000000000000000000000010080b8c0014edfed8547661f6cb416eba53061a2f6dce872c0497e6dd485a876fe2567f173eda753299d7d483339d80809a1d80553bda402fffe5bfeffffffff00000000304962b3598a0adf33189fdfd9789feab1096ff40006900400000003fffffffca421e229565952cfff4ef3517100a97da1d4fe57956fa50a442f92af03b1bf37adacc8ad4ed209b31287ea5bb94d9d06b08a5afbb1717334e08e05576b07bff58e8851d8cfd9ea71da1ab4233ad4217cffabd669dfa89c3ebf4c44f91694a2f4c080a051a8ecabbd377c69896eefaf1dd4dfe9fa9c9530d93ae9a680cf5bda84ee627ba0731da720547d59f22378597d07dcf4f7ca90a80a91e749b6bc95175004a72ba7"
                }
            ]
        },
        "pre": {
            "0x0000000000000000000000000000000000000100": {
                "balance": "0x01000000000000000000",
                "code": "0x366000600037604060003660006000600a61c350f16000556000516001556020516002553d6003553d600060003e600051600455602051600555",
                "nonce": "0x00",
                "storage": {}
            },
            "0xa94f5374fce5edbc8e2a8697c15331677e6ebf0b": {
                "balance": "0x01000000000000000000",
                "code": "0x",
                "nonce": "0x00",
                "storage": {}
            }
        },
        "transaction": {
            "accessLists": [
                []
            ],
            "data": [
                "0x014edfed8547661f6cb416eba53061a2f6dce872c0497e6dd485a876fe2567f173eda753299d7d483339d80809a1d80553bda402fffe5bfeffffffff00000000304962b3598a0adf33189fdfd9789feab1096ff40006900400000003fffffffca421e229565952cfff4ef3517100a97da1d4fe57956fa50a442f92af03b1bf37adacc8ad4ed209b31287ea5bb94d9d06b08a5afbb1717334e08e05576b07bff58e8851d8cfd9ea71da1ab4233ad4217cffabd669dfa89c3ebf4c44f91694a2f4"
            ],
            "gasLimit": [
                "0x0f4240"
            ],
            "maxFeePerGas": "0x07",
            "maxPriorityFeePerGas": "0x00",
            "nonce": "0x00",
            "secretKey": "0x45a915e4d060149eb4365960e6a7a45f334393093061116b197e3240065ff2d8",
            "sender": "0xa94f5374fce5edbc8e2a8697c15331677e6ebf0b",
            "to": "0x0000000000000000000000000000000000000100",
            "value": [
                "0x00"
            ]
        }
    }
}