{
    "point_evaluation_precompile_external_vectors_76": {
        "_info": {
            "comment": "`execution-spec-tests` generated test",
            "description": "Test function documentation:\n\n    Test precompile calls using external test vectors compiled from different sources:\n\n    - `go_kzg_4844_verify_kzg_proof.json`: test vectors from the\n    [go-kzg-4844](https://github.com/crate-crypto/go-kzg-4844) repository.",
            "filling-rpc-server": "evm version 1.14.4-unstable-3d8028a6-20240513",
            "filling-tool-version": "retesteth-0.3.2-cancun+commit.2a41f237.Linux.g++",
            "filling-transition-tool": "evm version 1.14.4-unstable-3d8028a6-20240513",
            "generatedTestHash": "9bbcca4002a60b61af9951425bd797a14c2f62a288ce91bca26fbbd3e8410215",
            "hash": "0x24d2c34c3a5976e7af7bf984e3499ad04c2290fa7a2ed3c270a6b300671b8458",
            "lllcversion": "Version: 0.5.14-develop.2023.7.11+commit.c58ab2c6.mod.Linux.g++",
            "solidity": "Version: 0.8.21+commit.d9974bed.Linux.g++",
            "source": "src/GeneralStateTestsFiller/Pyspecs/cancun/eip4844_blobs/point_evaluation_precompile_external_vectors_76Filler_.json",
            "sourceHash": "25da6025e98b42cd56330bedd4365f4b4f06034368beeebad323569fdc415097",
            "url": "https://github.com/ethereum/execution-spec-tests/blob/87ef9bee36585b5b9f72d6eaafeeb1999b641d3c/tests/tmp/tmptest_f8115fbb_8e6a_4abd_8bc3_36e8d18b35d5/test_point_evaluation_precompile.py#L415"
        },
        "env": {
            "currentBaseFee": "0x07",
            "currentCoinbase": "0x2adc25665018aa1fe0e6bc666dac8fc2697ff9ba",
            "currentDifficulty": "0x00",
            "currentExcessBlobGas": "0x00",
            "currentGasLimit": "0x016345785d8a0000",
            "currentNumber": "0x01",
            "currentRandom": "0x0000000000000000000000000000000000000000000000000000000000000000",
            "currentTimestamp": "0x03e8"
        },
        "post": {
            "Cancun": [
                {
                    "hash": "0xbc7bec2edc0199a7a893c2a7d796133652f3b8eb8f6dadd7b023c6e7998070a5",
                    "indexes": {
                        "data": 0,
                        "gas": 0,
                        "value": 0
                    },
                    "logs": "0x1dcc4de8dec75d7aab85b567b6ccd41ad312451b948a7413f0a142fd40d49347",
                    "txbytes": "0x02f9012401808007830f424094000000000000000000000000000000000000010080b8c0014edfed8547661f6cb416eba53061a2f6dce872c0497e6dd485a876fe2567f100000000000000000000000000000000000000000000000000000000000000011824b159acc5056f998c4fefecbc4ff55884b7fa0003480200000001fffffffea421e229565952cfff4ef3517100a97da1d4fe57956fa50a442f92af03b1bf37adacc8ad4ed209b31287ea5bb94d9d068e3069b19e6e71aed9b7dc8fbba13e4217d91cfc59be47cfaa7d09ef626242517541992c0f76091ddabf271682cc7c2cc001a0f8b90b4c2fdf0672d13117c0776b52d30e44b838cac9ba6292a51711f9e565aba030b06f921d772eeb002ce651a2802bb91498bdf15f32152e01e07f5f003ecae3"
                }
            ]
        },
        "pre": {
            "0x0000000000000000000000000000000000000100": {
                "balance": "0x01000000000000000000",
                "code": "0x366000600037604060003660006000600a61c350f16000556000516001556020516002553d6003553d600060003e600051600455602051600555",
                "nonce": "0x00",
                "storage": {}
            },
            "0xa94f5374fce5edbc8e2a8697c15331677e6ebf0b": {
                "balance": "0x01000000000000000000",
                "code": "0x",
                "nonce": "0x00",
                "storage": {}
            }
        },
        "transaction": {
            "accessLists": [
                []
            ],
            "data": [
                "0x014edfed8547661f6cb416eba53061a2f6dce872c0497e6dd485a876fe2567f100000000000000000000000000000000000000000000000000000000000000011824b159acc5056f998c4fefecbc4ff55884b7fa0003480200000001fffffffea421e229565952cfff4ef3517100a97da1d4fe57956fa50a442f92af03b1bf37adacc8ad4ed209b31287ea5bb94d9d068e3069b19e6e71aed9b7dc8fbba13e4217d91cfc59be47cfaa7d09ef626242517541992c0f76091ddabf271682cc7c2c"
            ],
            "gasLimit": [
                "0x0f4240"
            ],
            "maxFeePerGas": "0x07",
            "maxPriorityFeePerGas": "0x00",
            "nonce": "0x00",
            "secretKey": "0x45a915e4d060149eb4365960e6a7a45f334393093061116b197e3240065ff2d8",
            "sender": "0xa94f5374fce5edbc8e2a8697c15331677e6ebf0b",
            "to": "0x0000000000000000000000000000000000000100",
            "value": [
                "0x00"
            ]
        }
    }
}