{
    "point_evaluation_precompile_gas_usage_4": {
        "_info": {
            "comment": "`execution-spec-tests` generated test",
            "description": "Test function documentation:\n\n    Test point evaluation precompile gas usage under different call contexts and gas limits:\n\n    - Test using all call types (CALL, DELEGATECALL, CALLCODE, STATICCALL)\n    - Test using different gas limits (exact gas, insufficient gas, extra gas)\n    - Test using correct and incorrect proofs",
            "filling-rpc-server": "evm version 1.14.4-unstable-3d8028a6-20240513",
            "filling-tool-version": "retesteth-0.3.2-cancun+commit.2a41f237.Linux.g++",
            "filling-transition-tool": "evm version 1.14.4-unstable-3d8028a6-20240513",
            "generatedTestHash": "b9ba4d19910fbf13d9217fc47d8211430cbb4b2bd7048bb5c9bb740f758bbcf4",
            "hash": "0xfea1c80d07ed29c0dc0c037c77d9037c285bb52096af3616fc3b8ba0e862e36a",
            "lllcversion": "Version: 0.5.14-develop.2023.7.11+commit.c58ab2c6.mod.Linux.g++",
            "solidity": "Version: 0.8.21+commit.d9974bed.Linux.g++",
            "source": "src/GeneralStateTestsFiller/Pyspecs/cancun/eip4844_blobs/point_evaluation_precompile_gas_usage_4Filler_.json",
            "sourceHash": "93f941d436c01801292058aa62c2bcea7b53f8b6a71c19ab01a6d8947efd9bc1",
            "url": "https://github.com/ethereum/execution-spec-tests/blob/87ef9bee36585b5b9f72d6eaafeeb1999b641d3c/tests/tmp/tmptest_d74af6ce_3e69_49ad_8d21_75e4e7c4b13b/test_point_evaluation_precompile_gas.py#L199"
        },
        "env": {
            "currentBaseFee": "0x07",
            "currentCoinbase": "0x2adc25665018aa1fe0e6bc666dac8fc2697ff9ba",
            "currentDifficulty": "0x00",
            "currentExcessBlobGas": "0x00",
            "currentGasLimit": "0x016345785d8a0000",
            "currentNumber": "0x01",
            "currentRandom": "0x0000000000000000000000000000000000000000000000000000000000000000",
            "currentTimestamp": "0x03e8"
        },
        "post": {
            "Cancun": [
                {
                    "hash": "0x7bbe7726eb6509691695a8be04f9307a6c18221cd3c6a08306e61f3a163a0638",
                    "indexes": {
                        "data": 0,
                        "gas": 0,
                        "value": 0
                    },
                    "logs": "0x1dcc4de8dec75d7aab85b567b6ccd41ad312451b948a7413f0a142fd40d49347",
                    "txbytes": "0x02f9012401808007830f424094000000000000000000000000000000000000010080b8c0010657f37554c781402a22917dee2f75def7ab966d7b770905398eba3c4440145eb7004fe57383e6c88b99d839937fddf3f99279353aaf8d5c9a75f91ce33c620000000000000000000000000000000000000000000000000000000000000000c00000000000000000000000000000000000000000000000000000000000000000000000000000000000000000000000c00000000000000000000000000000000000000000000000000000000000000000000000000000000000000000000000c001a05d3bf2f997666f4680b7e444ca7e44c0b2de13ee5223f26a7a7bde6f088aec02a069b227b9cd40fa2c0fe4fb4616f1048b448d849427efdb783389c6e6e6caaf22"
                }
            ]
        },
        "pre": {
            "0x0000000000000000000000000000000000000100": {
                "balance": "0x00",
                "code": "0x5a366000600037600060003660006000600a61c351f25a9050900360a9900360005500",
                "nonce": "0x00",
                "storage": {}
            },
            "0xa94f5374fce5edbc8e2a8697c15331677e6ebf0b": {
                "balance": "0x01000000000000000000",
                "code": "0x",
                "nonce": "0x00",
                "storage": {}
            }
        },
        "transaction": {
            "accessLists": [
                []
            ],
            "data": [
                "0x010657f37554c781402a22917dee2f75def7ab966d7b770905398eba3c4440145eb7004fe57383e6c88b99d839937fddf3f99279353aaf8d5c9a75f91ce33c620000000000000000000000000000000000000000000000000000000000000000c00000000000000000000000000000000000000000000000000000000000000000000000000000000000000000000000c00000000000000000000000000000000000000000000000000000000000000000000000000000000000000000000000"
            ],
            "gasLimit": [
                "0x0f4240"
            ],
            "maxFeePerGas": "0x07",
            "maxPriorityFeePerGas": "0x00",
            "nonce": "0x00",
            "secretKey": "0x45a915e4d060149eb4365960e6a7a45f334393093061116b197e3240065ff2d8",
            "sender": "0xa94f5374fce5edbc8e2a8697c15331677e6ebf0b",
            "to": "0x0000000000000000000000000000000000000100",
            "value": [
                "0x00"
            ]
        }
    }
}