{
    "sufficient_balance_blob_tx_47": {
        "_info": {
            "comment": "`execution-spec-tests` generated test",
            "description": "Test function documentation:\n\n    Check that transaction is accepted when user can exactly afford the blob gas specified (and\n    max_fee_per_gas would be enough for current block), including:\n\n    - Transactions with max fee equal or higher than current block base fee\n    - Transactions with and without priority fee\n    - Transactions with and without value\n    - Transactions with and without calldata\n    - Transactions with max fee per blob gas lower or higher than the priority fee",
            "filling-rpc-server": "evm version 1.14.4-unstable-3d8028a6-20240513",
            "filling-tool-version": "retesteth-0.3.2-cancun+commit.2a41f237.Linux.g++",
            "filling-transition-tool": "evm version 1.14.4-unstable-3d8028a6-20240513",
            "generatedTestHash": "1acbe3bdd45ff7974839b7aae6f5783eaed348d4d79a9481c25d967592655a3a",
            "hash": "0xf9eb0c55da2f8178efa8b8a115e8409612e9d0e6da5cf7004719e6d2980c0843",
            "lllcversion": "Version: 0.5.14-develop.2023.7.11+commit.c58ab2c6.mod.Linux.g++",
            "solidity": "Version: 0.8.21+commit.d9974bed.Linux.g++",
            "source": "src/GeneralStateTestsFiller/Pyspecs/cancun/eip4844_blobs/sufficient_balance_blob_tx_47Filler_.json",
            "sourceHash": "ac8e32f87d88712c31113be2cd23f56d5adf2b12381680ac1652db83fa7c80d5",
            "url": "https://github.com/ethereum/execution-spec-tests/blob/87ef9bee36585b5b9f72d6eaafeeb1999b641d3c/tests/tmp/tmptest_3aeebbf6_76a6_4c89_99ee_6f28a0d92c02/test_blob_txs.py#L802"
        },
        "env": {
            "currentBaseFee": "0x07",
            "currentCoinbase": "0x2adc25665018aa1fe0e6bc666dac8fc2697ff9ba",
            "currentDifficulty": "0x00",
            "currentExcessBlobGas": "0x0e0000",
            "currentGasLimit": "0x016345785d8a0000",
            "currentNumber": "0x01",
            "currentRandom": "0x0000000000000000000000000000000000000000000000000000000000000000",
            "currentTimestamp": "0x03e8"
        },
        "post": {
            "Cancun": [
                {
                    "hash": "0x13a6f2f98c88fdc3a375f3334974b9cbaf7a29ad0fb8f421dad19c887c8b4473",
                    "indexes": {
                        "data": 0,
                        "gas": 0,
                        "value": 0
                    },
                    "logs": "0x1dcc4de8dec75d7aab85b567b6ccd41ad312451b948a7413f0a142fd40d49347",
                    "txbytes": "0x03f8850180070782520c9400000000000000000000000000000000000001000100c001e1a0010000000000000000000000000000000000000000000000000000000000000080a0434bec1c9893eaee4a25fae57740934e9aaadebf06f31ddbb942a49a9d4527a7a07e7b4e7c75affa9240c2c75901235acd72db9ccf283915a00530063c6a738fc7"
                }
            ]
        },
        "pre": {
            "0xa94f5374fce5edbc8e2a8697c15331677e6ebf0b": {
                "balance": "0x043e55",
                "code": "0x",
                "nonce": "0x00",
                "storage": {}
            }
        },
        "transaction": {
            "accessLists": [
                []
            ],
            "blobVersionedHashes": [
                "0x0100000000000000000000000000000000000000000000000000000000000000"
            ],
            "data": [
                "0x00"
            ],
            "gasLimit": [
                "0x520c"
            ],
            "maxFeePerBlobGas": "0x01",
            "maxFeePerGas": "0x07",
            "maxPriorityFeePerGas": "0x07",
            "nonce": "0x00",
            "secretKey": "0x45a915e4d060149eb4365960e6a7a45f334393093061116b197e3240065ff2d8",
            "sender": "0xa94f5374fce5edbc8e2a8697c15331677e6ebf0b",
            "to": "0x0000000000000000000000000000000000000100",
            "value": [
                "0x01"
            ]
        }
    }
}