{
    "sufficient_balance_blob_tx_128": {
        "_info": {
            "comment": "`execution-spec-tests` generated test",
            "description": "Test function documentation:\n\n    Check that transaction is accepted when user can exactly afford the blob gas specified (and\n    max_fee_per_gas would be enough for current block), including:\n\n    - Transactions with max fee equal or higher than current block base fee\n    - Transactions with and without priority fee\n    - Transactions with and without value\n    - Transactions with and without calldata\n    - Transactions with max fee per blob gas lower or higher than the priority fee",
            "filling-rpc-server": "evm version 1.14.4-unstable-3d8028a6-20240513",
            "filling-tool-version": "retesteth-0.3.2-cancun+commit.2a41f237.Linux.g++",
            "filling-transition-tool": "evm version 1.14.4-unstable-3d8028a6-20240513",
            "generatedTestHash": "ab6ee3debc4fd7ba0c56843b56943d1ba46543acf4a00d2435798a1fb4fd94e5",
            "hash": "0xab71950d5952bafe3a4259bced63fa1da027cbe9a4ed6cf5a9628c464f7400fb",
            "lllcversion": "Version: 0.5.14-develop.2023.7.11+commit.c58ab2c6.mod.Linux.g++",
            "solidity": "Version: 0.8.21+commit.d9974bed.Linux.g++",
            "source": "src/GeneralStateTestsFiller/Pyspecs/cancun/eip4844_blobs/sufficient_balance_blob_tx_128Filler_.json",
            "sourceHash": "ac8e32f87d88712c31113be2cd23f56d5adf2b12381680ac1652db83fa7c80d5",
            "url": "https://github.com/ethereum/execution-spec-tests/blob/87ef9bee36585b5b9f72d6eaafeeb1999b641d3c/tests/tmp/tmptest_3aeebbf6_76a6_4c89_99ee_6f28a0d92c02/test_blob_txs.py#L802"
        },
        "env": {
            "currentBaseFee": "0x07",
            "currentCoinbase": "0x2adc25665018aa1fe0e6bc666dac8fc2697ff9ba",
            "currentDifficulty": "0x00",
            "currentExcessBlobGas": "0x0e0000",
            "currentGasLimit": "0x016345785d8a0000",
            "currentNumber": "0x01",
            "currentRandom": "0x0000000000000000000000000000000000000000000000000000000000000000",
            "currentTimestamp": "0x03e8"
        },
        "post": {
            "Cancun": [
                {
                    "hash": "0x49d286972236cc6895ee0dffa7e48eace3dcc4f00b1aac3231f51da70788f880",
                    "indexes": {
                        "data": 0,
                        "gas": 0,
                        "value": 0
                    },
                    "logs": "0x1dcc4de8dec75d7aab85b567b6ccd41ad312451b948a7413f0a142fd40d49347",
                    "txbytes": "0x03f8e30180800e826a449400000000000000000000000000000000000001008000f85bf859940000000000000000000000000000000000000064f842a00000000000000000000000000000000000000000000000000000000000000064a000000000000000000000000000000000000000000000000000000000000000c8822710e1a0010000000000000000000000000000000000000000000000000000000000000080a0cba2c173a8b72646e9f1dc0e2e7be050857d90a3bc52f43ec23365b3873cad20a00fa456f6f9103fd212c33a78e1e10bc0efd7f10eb24710a63d342321ddfff229"
                }
            ]
        },
        "pre": {
            "0xa94f5374fce5edbc8e2a8697c15331677e6ebf0b": {
                "balance": "0x4e25cfb8",
                "code": "0x",
                "nonce": "0x00",
                "storage": {}
            }
        },
        "transaction": {
            "accessLists": [
                [
                    {
                        "address": "0x0000000000000000000000000000000000000064",
                        "storageKeys": [
                            "0x0000000000000000000000000000000000000000000000000000000000000064",
                            "0x00000000000000000000000000000000000000000000000000000000000000c8"
                        ]
                    }
                ]
            ],
            "blobVersionedHashes": [
                "0x0100000000000000000000000000000000000000000000000000000000000000"
            ],
            "data": [
                "0x00"
            ],
            "gasLimit": [
                "0x6a44"
            ],
            "maxFeePerBlobGas": "0x2710",
            "maxFeePerGas": "0x0e",
            "maxPriorityFeePerGas": "0x00",
            "nonce": "0x00",
            "secretKey": "0x45a915e4d060149eb4365960e6a7a45f334393093061116b197e3240065ff2d8",
            "sender": "0xa94f5374fce5edbc8e2a8697c15331677e6ebf0b",
            "to": "0x0000000000000000000000000000000000000100",
            "value": [
                "0x00"
            ]
        }
    }
}