{
    "test_point_evaluation_precompile_87": {
        "_info": {
            "comment": "`execution-spec-tests` generated test",
            "description": "Test function documentation:\n\n    Test precompile calls using external test vectors compiled from different sources:\n\n    - `go_kzg_4844_verify_kzg_proof.json`: test vectors from the\n    [go-kzg-4844](https://github.com/crate-crypto/go-kzg-4844) repository.",
            "filling-rpc-server": "evm version 1.14.4-unstable-3d8028a6-20240513",
            "filling-tool-version": "retesteth-0.3.2-cancun+commit.2a41f237.Linux.g++",
            "filling-transition-tool": "evm version 1.14.4-unstable-3d8028a6-20240513",
            "generatedTestHash": "3ec8f0eb6312307d43d9f8433b463398e168fb4766349d1ba309ac620a09f703",
            "hash": "0x631a473ecbd6434c929d36bec59d2cbd746562daec0aba5f6e699158cc6991ee",
            "lllcversion": "Version: 0.5.14-develop.2023.7.11+commit.c58ab2c6.mod.Linux.g++",
            "solidity": "Version: 0.8.21+commit.d9974bed.Linux.g++",
            "source": "src/GeneralStateTestsFiller/Pyspecs/cancun/eip4844_blobs/test_point_evaluation_precompileFiller_87.json",
            "sourceHash": "25da6025e98b42cd56330bedd4365f4b4f06034368beeebad323569fdc415097",
            "url": "https://github.com/ethereum/execution-spec-tests/blob/87ef9bee36585b5b9f72d6eaafeeb1999b641d3c/tests/tmp/tmptest_f8115fbb_8e6a_4abd_8bc3_36e8d18b35d5/test_point_evaluation_precompile.py#L415"
        },
        "env": {
            "currentBaseFee": "0x07",
            "currentCoinbase": "0x2adc25665018aa1fe0e6bc666dac8fc2697ff9ba",
            "currentDifficulty": "0x00",
            "currentExcessBlobGas": "0x00",
            "currentGasLimit": "0x016345785d8a0000",
            "currentNumber": "0x01",
            "currentRandom": "0x0000000000000000000000000000000000000000000000000000000000000000",
            "currentTimestamp": "0x03e8"
        },
        "post": {
            "Cancun": [
                {
                    "hash": "0x0a40b1bbd63db78fdb46f814cdfa753ee5f39347923842f5b8a9e3ae570e449d",
                    "indexes": {
                        "data": 0,
                        "gas": 0,
                        "value": 0
                    },
                    "logs": "0x1dcc4de8dec75d7aab85b567b6ccd41ad312451b948a7413f0a142fd40d49347",
                    "txbytes": "0x02f9012401808007830f424094000000000000000000000000000000000000010080b8c001228461eb9cfa5aecb883d64f7434b6c092be63e8599fa9da8473a13f8b804e5eb7004fe57383e6c88b99d839937fddf3f99279353aaf8d5c9a75f91ce33c622c9ae4f1d6d08558d7027df9cc6b248c21290075d2c0df8a4084d02090b3fa14b49d88afcd7f6c61a8ea69eff5f609d2432b47e7e4cd50b02cdddb4e0c1460517e8df02e4e64dc55e3d8ca192d57193aa4cc8c419ade0cf043cbf30f43c8f7ee6da3ab8d2c15070f323e5a13a8178fe07c8f89686e5fd16565247b520028251bc080a08bcafbc1facaa4cb6741a2d82139f20782aa8eb8cfba39d87a43c9e8a0dbe363a024a6f44071130a7ae0dabb24d83771d93d8d9314a5d5c1a58d1131a27bc14a8a"
                }
            ]
        },
        "pre": {
            "0x0000000000000000000000000000000000000100": {
                "balance": "0x01000000000000000000",
                "code": "0x366000600037604060003660006000600a61c350f16000556000516001556020516002553d6003553d600060003e600051600455602051600555",
                "nonce": "0x00",
                "storage": {}
            },
            "0xa94f5374fce5edbc8e2a8697c15331677e6ebf0b": {
                "balance": "0x01000000000000000000",
                "code": "0x",
                "nonce": "0x00",
                "storage": {}
            }
        },
        "transaction": {
            "accessLists": [
                []
            ],
            "data": [
                "0x01228461eb9cfa5aecb883d64f7434b6c092be63e8599fa9da8473a13f8b804e5eb7004fe57383e6c88b99d839937fddf3f99279353aaf8d5c9a75f91ce33c622c9ae4f1d6d08558d7027df9cc6b248c21290075d2c0df8a4084d02090b3fa14b49d88afcd7f6c61a8ea69eff5f609d2432b47e7e4cd50b02cdddb4e0c1460517e8df02e4e64dc55e3d8ca192d57193aa4cc8c419ade0cf043cbf30f43c8f7ee6da3ab8d2c15070f323e5a13a8178fe07c8f89686e5fd16565247b520028251b"
            ],
            "gasLimit": [
                "0x0f4240"
            ],
            "maxFeePerGas": "0x07",
            "maxPriorityFeePerGas": "0x00",
            "nonce": "0x00",
            "secretKey": "0x45a915e4d060149eb4365960e6a7a45f334393093061116b197e3240065ff2d8",
            "sender": "0xa94f5374fce5edbc8e2a8697c15331677e6ebf0b",
            "to": "0x0000000000000000000000000000000000000100",
            "value": [
                "0x00"
            ]
        }
    }
}