{
    "test_point_evaluation_precompile_60": {
        "_info": {
            "comment": "`execution-spec-tests` generated test",
            "description": "Test function documentation:\n\n    Test precompile calls using external test vectors compiled from different sources:\n\n    - `go_kzg_4844_verify_kzg_proof.json`: test vectors from the\n    [go-kzg-4844](https://github.com/crate-crypto/go-kzg-4844) repository.",
            "filling-rpc-server": "evm version 1.14.4-unstable-3d8028a6-20240513",
            "filling-tool-version": "retesteth-0.3.2-cancun+commit.2a41f237.Linux.g++",
            "filling-transition-tool": "evm version 1.14.4-unstable-3d8028a6-20240513",
            "generatedTestHash": "dcad161990a5f49347e404a248cb5575f3885d9ae0e98d09a1cbc11d42df64a0",
            "hash": "0x89d9add424811f3784354de328c1df8af05c3b7d94c08802272a68a641fca279",
            "lllcversion": "Version: 0.5.14-develop.2023.7.11+commit.c58ab2c6.mod.Linux.g++",
            "solidity": "Version: 0.8.21+commit.d9974bed.Linux.g++",
            "source": "src/GeneralStateTestsFiller/Pyspecs/cancun/eip4844_blobs/test_point_evaluation_precompileFiller_60.json",
            "sourceHash": "25da6025e98b42cd56330bedd4365f4b4f06034368beeebad323569fdc415097",
            "url": "https://github.com/ethereum/execution-spec-tests/blob/87ef9bee36585b5b9f72d6eaafeeb1999b641d3c/tests/tmp/tmptest_f8115fbb_8e6a_4abd_8bc3_36e8d18b35d5/test_point_evaluation_precompile.py#L415"
        },
        "env": {
            "currentBaseFee": "0x07",
            "currentCoinbase": "0x2adc25665018aa1fe0e6bc666dac8fc2697ff9ba",
            "currentDifficulty": "0x00",
            "currentExcessBlobGas": "0x00",
            "currentGasLimit": "0x016345785d8a0000",
            "currentNumber": "0x01",
            "currentRandom": "0x0000000000000000000000000000000000000000000000000000000000000000",
            "currentTimestamp": "0x03e8"
        },
        "post": {
            "Cancun": [
                {
                    "hash": "0x6652725003005d6dabc7dbac3c976d3d8d534387a76ec3bc78a645625d6538a6",
                    "indexes": {
                        "data": 0,
                        "gas": 0,
                        "value": 0
                    },
                    "logs": "0x1dcc4de8dec75d7aab85b567b6ccd41ad312451b948a7413f0a142fd40d49347",
                    "txbytes": "0x02f9012401808007830f424094000000000000000000000000000000000000010080b8c001ad7666ef9d8f53b5adf54f029b13b6f171b1d0bd346a2ede315d3e243484ef000000000000000000000000000000000000000000000000000000000000000073e66878b46ae3705eb6a46a89213de7d3686828bfce5c19400fffff0010000193efc82d2017e9c57834a1246463e64774e56183bb247c8fc9dd98c56817e878d97b05f5c8d900acf1fbbbca6f14655690f53a4837bbde6ab0838fef0c0be5339ab03a78342c221cf6b2d6e465d01a3d47585a808c9d8d25dee885007deeb107c080a07b78f776e7375a5215e878f719cb37622be31a5407bfaa4542f9ffec24081a58a01ee0c5d868149b759a039cb2fff53ea2b70b41c61a16d2e887ef13b9e916f9dd"
                }
            ]
        },
        "pre": {
            "0x0000000000000000000000000000000000000100": {
                "balance": "0x01000000000000000000",
                "code": "0x366000600037604060003660006000600a61c350f16000556000516001556020516002553d6003553d600060003e600051600455602051600555",
                "nonce": "0x00",
                "storage": {}
            },
            "0xa94f5374fce5edbc8e2a8697c15331677e6ebf0b": {
                "balance": "0x01000000000000000000",
                "code": "0x",
                "nonce": "0x00",
                "storage": {}
            }
        },
        "transaction": {
            "accessLists": [
                []
            ],
            "data": [
                "0x01ad7666ef9d8f53b5adf54f029b13b6f171b1d0bd346a2ede315d3e243484ef000000000000000000000000000000000000000000000000000000000000000073e66878b46ae3705eb6a46a89213de7d3686828bfce5c19400fffff0010000193efc82d2017e9c57834a1246463e64774e56183bb247c8fc9dd98c56817e878d97b05f5c8d900acf1fbbbca6f14655690f53a4837bbde6ab0838fef0c0be5339ab03a78342c221cf6b2d6e465d01a3d47585a808c9d8d25dee885007deeb107"
            ],
            "gasLimit": [
                "0x0f4240"
            ],
            "maxFeePerGas": "0x07",
            "maxPriorityFeePerGas": "0x00",
            "nonce": "0x00",
            "secretKey": "0x45a915e4d060149eb4365960e6a7a45f334393093061116b197e3240065ff2d8",
            "sender": "0xa94f5374fce5edbc8e2a8697c15331677e6ebf0b",
            "to": "0x0000000000000000000000000000000000000100",
            "value": [
                "0x00"
            ]
        }
    }
}