{
    "test_point_evaluation_precompile_103": {
        "_info": {
            "comment": "`execution-spec-tests` generated test",
            "description": "Test function documentation:\n\n    Test precompile calls using external test vectors compiled from different sources:\n\n    - `go_kzg_4844_verify_kzg_proof.json`: test vectors from the\n    [go-kzg-4844](https://github.com/crate-crypto/go-kzg-4844) repository.",
            "filling-rpc-server": "evm version 1.14.4-unstable-3d8028a6-20240513",
            "filling-tool-version": "retesteth-0.3.2-cancun+commit.2a41f237.Linux.g++",
            "filling-transition-tool": "evm version 1.14.4-unstable-3d8028a6-20240513",
            "generatedTestHash": "23531dc68f02f205141ab60295f0d9ad933f02ab1d12e8fad44432d7b01dbc78",
            "hash": "0x09146fa936348595d9abeabb1fe2884a8c58950fc6791a1dd98d9fb8042d6bba",
            "lllcversion": "Version: 0.5.14-develop.2023.7.11+commit.c58ab2c6.mod.Linux.g++",
            "solidity": "Version: 0.8.21+commit.d9974bed.Linux.g++",
            "source": "src/GeneralStateTestsFiller/Pyspecs/cancun/eip4844_blobs/test_point_evaluation_precompileFiller_103.json",
            "sourceHash": "25da6025e98b42cd56330bedd4365f4b4f06034368beeebad323569fdc415097",
            "url": "https://github.com/ethereum/execution-spec-tests/blob/87ef9bee36585b5b9f72d6eaafeeb1999b641d3c/tests/tmp/tmptest_f8115fbb_8e6a_4abd_8bc3_36e8d18b35d5/test_point_evaluation_precompile.py#L415"
        },
        "env": {
            "currentBaseFee": "0x07",
            "currentCoinbase": "0x2adc25665018aa1fe0e6bc666dac8fc2697ff9ba",
            "currentDifficulty": "0x00",
            "currentExcessBlobGas": "0x00",
            "currentGasLimit": "0x016345785d8a0000",
            "currentNumber": "0x01",
            "currentRandom": "0x0000000000000000000000000000000000000000000000000000000000000000",
            "currentTimestamp": "0x03e8"
        },
        "post": {
            "Cancun": [
                {
                    "hash": "0x79cc9b68a129ee14d32e8edee80c5411b1e4b8adc352a9aa3cdb2b33b56aae41",
                    "indexes": {
                        "data": 0,
                        "gas": 0,
                        "value": 0
                    },
                    "logs": "0x1dcc4de8dec75d7aab85b567b6ccd41ad312451b948a7413f0a142fd40d49347",
                    "txbytes": "0x02f9012401808007830f424094000000000000000000000000000000000000010080b8c0016564752c546f453adeb98716f70a1167a34ffcc8aa605e2f3b0e0dbd8804f400000000000000000000000000000000000000000000000000000000000000011824b159acc5056f998c4fefecbc4ff55884b7fa0003480200000001fffffffe8123456789abcdef0123456789abcdef0123456789abcdef0123456789abcdef0123456789abcdef0123456789abcdefb0c829a8d2d3405304fecbea193e6c67f7c3912a6adc7c3737ad3f8a3b750425c1531a7426f03033a3994bc82a10609fc001a00396e2fe037d79b74d6c66c829d2ec42200d36a14e899d70a8e1a2de5b3c1455a0343efb08716e9f1b429eab9b183a8ee8225b11acb08730559a0472a0ee5bcaed"
                }
            ]
        },
        "pre": {
            "0x0000000000000000000000000000000000000100": {
                "balance": "0x01000000000000000000",
                "code": "0x366000600037604060003660006000600a61c350f16000556000516001556020516002553d6003553d600060003e600051600455602051600555",
                "nonce": "0x00",
                "storage": {}
            },
            "0xa94f5374fce5edbc8e2a8697c15331677e6ebf0b": {
                "balance": "0x01000000000000000000",
                "code": "0x",
                "nonce": "0x00",
                "storage": {}
            }
        },
        "transaction": {
            "accessLists": [
                []
            ],
            "data": [
                "0x016564752c546f453adeb98716f70a1167a34ffcc8aa605e2f3b0e0dbd8804f400000000000000000000000000000000000000000000000000000000000000011824b159acc5056f998c4fefecbc4ff55884b7fa0003480200000001fffffffe8123456789abcdef0123456789abcdef0123456789abcdef0123456789abcdef0123456789abcdef0123456789abcdefb0c829a8d2d3405304fecbea193e6c67f7c3912a6adc7c3737ad3f8a3b750425c1531a7426f03033a3994bc82a10609f"
            ],
            "gasLimit": [
                "0x0f4240"
            ],
            "maxFeePerGas": "0x07",
            "maxPriorityFeePerGas": "0x00",
            "nonce": "0x00",
            "secretKey": "0x45a915e4d060149eb4365960e6a7a45f334393093061116b197e3240065ff2d8",
            "sender": "0xa94f5374fce5edbc8e2a8697c15331677e6ebf0b",
            "to": "0x0000000000000000000000000000000000000100",
            "value": [
                "0x00"
            ]
        }
    }
}