{
    "test_point_evaluation_precompile_35": {
        "_info": {
            "comment": "`execution-spec-tests` generated test",
            "description": "Test function documentation:\n\n    Test precompile calls using external test vectors compiled from different sources:\n\n    - `go_kzg_4844_verify_kzg_proof.json`: test vectors from the\n    [go-kzg-4844](https://github.com/crate-crypto/go-kzg-4844) repository.",
            "filling-rpc-server": "evm version 1.14.4-unstable-3d8028a6-20240513",
            "filling-tool-version": "retesteth-0.3.2-cancun+commit.2a41f237.Linux.g++",
            "filling-transition-tool": "evm version 1.14.4-unstable-3d8028a6-20240513",
            "generatedTestHash": "e310591c1354454f0f2dbc9ac5d25c6932664c279cd7ead96fb45f784d306c08",
            "hash": "0x5aca027026004a5e11691b9055f86301446ad68bf27a1438f4fce6ecfa05d7c0",
            "lllcversion": "Version: 0.5.14-develop.2023.7.11+commit.c58ab2c6.mod.Linux.g++",
            "solidity": "Version: 0.8.21+commit.d9974bed.Linux.g++",
            "source": "src/GeneralStateTestsFiller/Pyspecs/cancun/eip4844_blobs/test_point_evaluation_precompileFiller_35.json",
            "sourceHash": "25da6025e98b42cd56330bedd4365f4b4f06034368beeebad323569fdc415097",
            "url": "https://github.com/ethereum/execution-spec-tests/blob/87ef9bee36585b5b9f72d6eaafeeb1999b641d3c/tests/tmp/tmptest_f8115fbb_8e6a_4abd_8bc3_36e8d18b35d5/test_point_evaluation_precompile.py#L415"
        },
        "env": {
            "currentBaseFee": "0x07",
            "currentCoinbase": "0x2adc25665018aa1fe0e6bc666dac8fc2697ff9ba",
            "currentDifficulty": "0x00",
            "currentExcessBlobGas": "0x00",
            "currentGasLimit": "0x016345785d8a0000",
            "currentNumber": "0x01",
            "currentRandom": "0x0000000000000000000000000000000000000000000000000000000000000000",
            "currentTimestamp": "0x03e8"
        },
        "post": {
            "Cancun": [
                {
                    "hash": "0x0d4222a3aa9c07b164191bd747419c98ee55040284263a12f7baff882826e98a",
                    "indexes": {
                        "data": 0,
                        "gas": 0,
                        "value": 0
                    },
                    "logs": "0x1dcc4de8dec75d7aab85b567b6ccd41ad312451b948a7413f0a142fd40d49347",
                    "txbytes": "0x02f9012401808007830f424094000000000000000000000000000000000000010080b8c001ad7666ef9d8f53b5adf54f029b13b6f171b1d0bd346a2ede315d3e243484ef5eb7004fe57383e6c88b99d839937fddf3f99279353aaf8d5c9a75f91ce33c625fd58150b731b4facfcdd89c0e393ff842f5f2071303eff99b51e103161cd23393efc82d2017e9c57834a1246463e64774e56183bb247c8fc9dd98c56817e878d97b05f5c8d900acf1fbbbca6f14655694425f5cf336685a6a4e806ad4601f4b0d3707a655718f968c57e225f0e4b8d5fd61878234f25ec59d090c07ea725cf4c001a08062bb6127236caf59a0babb1eb316cd9cf4db55126230550a38411c48773c43a0215ab9619175bf3a7e08debcecfc30d2cbb605e6120f68f6d8ae4a35cfdcaf73"
                }
            ]
        },
        "pre": {
            "0x0000000000000000000000000000000000000100": {
                "balance": "0x01000000000000000000",
                "code": "0x366000600037604060003660006000600a61c350f16000556000516001556020516002553d6003553d600060003e600051600455602051600555",
                "nonce": "0x00",
                "storage": {}
            },
            "0xa94f5374fce5edbc8e2a8697c15331677e6ebf0b": {
                "balance": "0x01000000000000000000",
                "code": "0x",
                "nonce": "0x00",
                "storage": {}
            }
        },
        "transaction": {
            "accessLists": [
                []
            ],
            "data": [
                "0x01ad7666ef9d8f53b5adf54f029b13b6f171b1d0bd346a2ede315d3e243484ef5eb7004fe57383e6c88b99d839937fddf3f99279353aaf8d5c9a75f91ce33c625fd58150b731b4facfcdd89c0e393ff842f5f2071303eff99b51e103161cd23393efc82d2017e9c57834a1246463e64774e56183bb247c8fc9dd98c56817e878d97b05f5c8d900acf1fbbbca6f14655694425f5cf336685a6a4e806ad4601f4b0d3707a655718f968c57e225f0e4b8d5fd61878234f25ec59d090c07ea725cf4"
            ],
            "gasLimit": [
                "0x0f4240"
            ],
            "maxFeePerGas": "0x07",
            "maxPriorityFeePerGas": "0x00",
            "nonce": "0x00",
            "secretKey": "0x45a915e4d060149eb4365960e6a7a45f334393093061116b197e3240065ff2d8",
            "sender": "0xa94f5374fce5edbc8e2a8697c15331677e6ebf0b",
            "to": "0x0000000000000000000000000000000000000100",
            "value": [
                "0x00"
            ]
        }
    }
}