{
    "test_yul_example_7": {
        "_info": {
            "comment": "`execution-spec-tests` generated test",
            "description": "Test function documentation:\n\n    Test YUL compiled bytecode.",
            "filling-rpc-server": "evm version 1.14.4-unstable-3d8028a6-20240513",
            "filling-tool-version": "retesteth-0.3.2-cancun+commit.2a41f237.Linux.g++",
            "filling-transition-tool": "evm version 1.14.4-unstable-3d8028a6-20240513",
            "generatedTestHash": "45fe7828882811145bf5b0864ea88368a84d719a64fd1ac2347028fc1a579fcc",
            "hash": "0xcdb8e14ff2cd53e08d299316f108d30f1fb91b2492e5458f3bef97f2c184ea03",
            "lllcversion": "Version: 0.5.14-develop.2023.7.11+commit.c58ab2c6.mod.Linux.g++",
            "solidity": "Version: 0.8.21+commit.d9974bed.Linux.g++",
            "source": "src/GeneralStateTestsFiller/Pyspecs/homestead/yul/test_yul_exampleFiller_7.json",
            "sourceHash": "cb4886ad230e1113ca5b68ab86156baed456caca0d996ccd663556c1adc97aff",
            "url": "https://github.com/ethereum/execution-spec-tests/blob/87ef9bee36585b5b9f72d6eaafeeb1999b641d3c/tests/tmp/tmptest_50aa1c16_9fda_44ac_b428_6bea3c0b332d/test_yul_example.py#L18"
        },
        "env": {
            "currentBaseFee": "0x07",
            "currentCoinbase": "0x2adc25665018aa1fe0e6bc666dac8fc2697ff9ba",
            "currentDifficulty": "0x020000",
            "currentGasLimit": "0x016345785d8a0000",
            "currentNumber": "0x01",
            "currentTimestamp": "0x03e8"
        },
        "post": {
            "London": [
                {
                    "hash": "0x524dce33e406a01e48790f0fee7e47e544ed95c74127f12ed6f79a01de8dbf08",
                    "indexes": {
                        "data": 0,
                        "gas": 0,
                        "value": 0
                    },
                    "logs": "0x1dcc4de8dec75d7aab85b567b6ccd41ad312451b948a7413f0a142fd40d49347",
                    "txbytes": "0xf860800a8307a120941000000000000000000000000000000000000000808025a0ece173d61bbf4c5032d3449f4f25dae2a537ff7c4ee7efa8e880ea06a7cb44c9a003c364834033b6c357805642a89eade50fcc75999b2255cc2300409c7b0e3bb6"
                }
            ]
        },
        "pre": {
            "0x1000000000000000000000000000000000000000": {
                "balance": "0x0ba1a9ce0ba1a9ce",
                "code": "0x6009600260016012565b60005560206000f35b019056",
                "nonce": "0x00",
                "storage": {}
            },
            "0xa94f5374fce5edbc8e2a8697c15331677e6ebf0b": {
                "balance": "0x0ba1a9ce0ba1a9ce",
                "code": "0x",
                "nonce": "0x00",
                "storage": {}
            }
        },
        "transaction": {
            "data": [
                "0x"
            ],
            "gasLimit": [
                "0x07a120"
            ],
            "gasPrice": "0x0a",
            "nonce": "0x00",
            "secretKey": "0x45a915e4d060149eb4365960e6a7a45f334393093061116b197e3240065ff2d8",
            "sender": "0xa94f5374fce5edbc8e2a8697c15331677e6ebf0b",
            "to": "0x1000000000000000000000000000000000000000",
            "value": [
                "0x00"
            ]
        }
    }
}