{
    "randomStatetest84_d0g0v0_Cancun" : {
        "_info" : {
            "comment" : "",
            "filling-rpc-server" : "evmone-t8n 0.13.0-82+commit.880ac821",
            "filling-tool-version" : "retesteth-0.3.2-legacy+commit.1d528976.Linux.g++",
            "generatedTestHash" : "1510b328fa952f8d18c1e8e51ff21b8c0458be64c2eba96512721d42ffbe0657",
            "lllcversion" : "Version: 0.5.14-develop.2024.11.5+commit.b2b86751.mod.Linux.g++",
            "solidity" : "Version: 0.8.24+commit.e11b9ed9.Linux.g++",
            "source" : "src/GeneralStateTestsFiller/stRandom/randomStatetest84Filler.json",
            "sourceHash" : "40282ae11d2e226ca2262734fbf9c1fa38fd2949d2f49cb5bae7f04f5f82e362"
        },
        "blocks" : [
            {
                "blockHeader" : {
                    "baseFeePerGas" : "0x0a",
                    "blobGasUsed" : "0x00",
                    "bloom" : "0x00000000000000000000000000000000000000000000000000000000000000000000000000000000000000000000000000000000000000000000000000000000000000000000000000000000000000000000000000000000000000000000000000000000000000000000000000000000000000000000000000000000000000000000000000000000000000000000000000000000000000000000000000000000000000000000000000000000000000000000000000000000000000000000000000000000000000000000000000000000000000000000000000000000000000000000000000000000000000000000000000000000000000000000000000000000",
                    "coinbase" : "0x945304eb96065b2a98b57a48a06ae28d285a71b5",
                    "difficulty" : "0x00",
                    "excessBlobGas" : "0x00",
                    "extraData" : "0x00",
                    "gasLimit" : "0x7fffffffffffffff",
                    "gasUsed" : "0x4c882f36",
                    "hash" : "0xaab09d9ea4a65c3068507987d312429b51f7c830874f3e5bd98320b9cfdd3a9d",
                    "mixHash" : "0x0000000000000000000000000000000000000000000000000000000000020000",
                    "nonce" : "0x0000000000000000",
                    "number" : "0x01",
                    "parentBeaconBlockRoot" : "0x0000000000000000000000000000000000000000000000000000000000000000",
                    "parentHash" : "0xf573cad9fa4b622598bc407dddee3b4fc5be7c5a3c1a1add14ba47169cec5f27",
                    "receiptTrie" : "0xdde3460154c05968e4634d46a70b9b4b7959729767d5b011652e702d80eadd0c",
                    "stateRoot" : "0xcc0f7ddb2ff38b4b479ea7104fd81cbf84eb3df1fb3e55f490ba43483802620a",
                    "timestamp" : "0x03e8",
                    "transactionsTrie" : "0x61dc8f888ad575fbb50cd5d8a48e4fc8cd7a246c3a483b7afc3437cccfd01c74",
                    "uncleHash" : "0x1dcc4de8dec75d7aab85b567b6ccd41ad312451b948a7413f0a142fd40d49347",
                    "withdrawalsRoot" : "0x56e81f171bcc55a6ff8345e692c0f86e5b48e01b996cadc001622fb5e363b421"
                },
                "rlp" : "0xf9035cf90240a0f573cad9fa4b622598bc407dddee3b4fc5be7c5a3c1a1add14ba47169cec5f27a01dcc4de8dec75d7aab85b567b6ccd41ad312451b948a7413f0a142fd40d4934794945304eb96065b2a98b57a48a06ae28d285a71b5a0cc0f7ddb2ff38b4b479ea7104fd81cbf84eb3df1fb3e55f490ba43483802620aa061dc8f888ad575fbb50cd5d8a48e4fc8cd7a246c3a483b7afc3437cccfd01c74a0dde3460154c05968e4634d46a70b9b4b7959729767d5b011652e702d80eadd0cb90100000000000000000000000000000000000000000000000000000000000000000000000000000000000000000000000000000000000000000000000000000000000000000000000000000000000000000000000000000000000000000000000000000000000000000000000000000000000000000000000000000000000000000000000000000000000000000000000000000000000000000000000000000000000000000000000000000000000000000000000000000000000000000000000000000000000000000000000000000000000000000000000000000000000000000000000000000000000000000000000000000000000000000000000000000000008001887fffffffffffffff844c882f368203e800a000000000000000000000000000000000000000000000000000000000000200008800000000000000000aa056e81f171bcc55a6ff8345e692c0f86e5b48e01b996cadc001622fb5e363b4218080a00000000000000000000000000000000000000000000000000000000000000000f90114f90111800a844c882f3694095e7baea6a6c7c4c2dfeb977efac326af552d878428841bd1b8ab7ffffffffffffffffffffffffffffffffffffffffffffffffffffffffffffffffe7f000000000000000000000001000000000000000000000000000000000000000044457f0000000000000000000000000000000000000000000000000000000000000001187f00000000000000000000000000000000000000000000000000000000000000017fffffffffffffffffffffffffffffffffffffffffffffffffffffffffffffffff5215591ba0b177c2bca1b4f40c0cfcf5637f3eb4691f90b2ac51246a91a5cd85fbc134baf2a05dd0ea047945e31b536718bdfdcd50e99ee1bb41a4c299dbde90e440a12e8c99c0c0",
                "transactions" : [
                    {
                        "data" : "0x7ffffffffffffffffffffffffffffffffffffffffffffffffffffffffffffffffe7f000000000000000000000001000000000000000000000000000000000000000044457f0000000000000000000000000000000000000000000000000000000000000001187f00000000000000000000000000000000000000000000000000000000000000017fffffffffffffffffffffffffffffffffffffffffffffffffffffffffffffffff521559",
                        "gasLimit" : "0x4c882f36",
                        "gasPrice" : "0x0a",
                        "nonce" : "0x00",
                        "r" : "0xb177c2bca1b4f40c0cfcf5637f3eb4691f90b2ac51246a91a5cd85fbc134baf2",
                        "s" : "0x5dd0ea047945e31b536718bdfdcd50e99ee1bb41a4c299dbde90e440a12e8c99",
                        "sender" : "0xa94f5374fce5edbc8e2a8697c15331677e6ebf0b",
                        "to" : "0x095e7baea6a6c7c4c2dfeb977efac326af552d87",
                        "v" : "0x1b",
                        "value" : "0x28841bd1"
                    }
                ],
                "uncleHeaders" : [
                ],
                "withdrawals" : [
                ]
            }
        ],
        "config" : {
            "blobSchedule" : {
                "Cancun" : {
                    "baseFeeUpdateFraction" : "0x32f0ed",
                    "max" : "0x06",
                    "target" : "0x03"
                }
            },
            "chainid" : "0x01",
            "network" : "Cancun"
        },
        "genesisBlockHeader" : {
            "baseFeePerGas" : "0x0b",
            "blobGasUsed" : "0x00",
            "bloom" : "0x00000000000000000000000000000000000000000000000000000000000000000000000000000000000000000000000000000000000000000000000000000000000000000000000000000000000000000000000000000000000000000000000000000000000000000000000000000000000000000000000000000000000000000000000000000000000000000000000000000000000000000000000000000000000000000000000000000000000000000000000000000000000000000000000000000000000000000000000000000000000000000000000000000000000000000000000000000000000000000000000000000000000000000000000000000000",
            "coinbase" : "0x945304eb96065b2a98b57a48a06ae28d285a71b5",
            "difficulty" : "0x00",
            "excessBlobGas" : "0x060000",
            "extraData" : "0x00",
            "gasLimit" : "0x7fffffffffffffff",
            "gasUsed" : "0x00",
            "hash" : "0xf573cad9fa4b622598bc407dddee3b4fc5be7c5a3c1a1add14ba47169cec5f27",
            "mixHash" : "0x0000000000000000000000000000000000000000000000000000000000020000",
            "nonce" : "0x0000000000000000",
            "number" : "0x00",
            "parentBeaconBlockRoot" : "0x0000000000000000000000000000000000000000000000000000000000000000",
            "parentHash" : "0x0000000000000000000000000000000000000000000000000000000000000000",
            "receiptTrie" : "0x56e81f171bcc55a6ff8345e692c0f86e5b48e01b996cadc001622fb5e363b421",
            "stateRoot" : "0x5971ce98cc609c72ab96d11fc64a7e2b5544206e0125aeb2ad6f06366ad3e3be",
            "timestamp" : "0x00",
            "transactionsTrie" : "0x56e81f171bcc55a6ff8345e692c0f86e5b48e01b996cadc001622fb5e363b421",
            "uncleHash" : "0x1dcc4de8dec75d7aab85b567b6ccd41ad312451b948a7413f0a142fd40d49347",
            "withdrawalsRoot" : "0x56e81f171bcc55a6ff8345e692c0f86e5b48e01b996cadc001622fb5e363b421"
        },
        "genesisRLP" : "0xf90243f9023da00000000000000000000000000000000000000000000000000000000000000000a01dcc4de8dec75d7aab85b567b6ccd41ad312451b948a7413f0a142fd40d4934794945304eb96065b2a98b57a48a06ae28d285a71b5a05971ce98cc609c72ab96d11fc64a7e2b5544206e0125aeb2ad6f06366ad3e3bea056e81f171bcc55a6ff8345e692c0f86e5b48e01b996cadc001622fb5e363b421a056e81f171bcc55a6ff8345e692c0f86e5b48e01b996cadc001622fb5e363b421b90100000000000000000000000000000000000000000000000000000000000000000000000000000000000000000000000000000000000000000000000000000000000000000000000000000000000000000000000000000000000000000000000000000000000000000000000000000000000000000000000000000000000000000000000000000000000000000000000000000000000000000000000000000000000000000000000000000000000000000000000000000000000000000000000000000000000000000000000000000000000000000000000000000000000000000000000000000000000000000000000000000000000000000000000000000000008080887fffffffffffffff808000a000000000000000000000000000000000000000000000000000000000000200008800000000000000000ba056e81f171bcc55a6ff8345e692c0f86e5b48e01b996cadc001622fb5e363b4218083060000a00000000000000000000000000000000000000000000000000000000000000000c0c0c0",
        "lastblockhash" : "0xaab09d9ea4a65c3068507987d312429b51f7c830874f3e5bd98320b9cfdd3a9d",
        "network" : "Cancun",
        "postState" : {
            "0x000f3df6d732807ef1319fb7b8bb8522d0beac02" : {
                "balance" : "0x00",
                "code" : "0x3373fffffffffffffffffffffffffffffffffffffffe14604d57602036146024575f5ffd5b5f35801560495762001fff810690815414603c575f5ffd5b62001fff01545f5260205ff35b5f5ffd5b62001fff42064281555f359062001fff015500",
                "nonce" : "0x01",
                "storage" : {
                    "0x03e8" : "0x03e8"
                }
            },
            "0x095e7baea6a6c7c4c2dfeb977efac326af552d87" : {
                "balance" : "0x00",
                "code" : "0x7ffffffffffffffffffffffffffffffffffffffffffffffffffffffffffffffffe7f000000000000000000000001000000000000000000000000000000000000000044457f0000000000000000000000000000000000000000000000000000000000000001187f00000000000000000000000000000000000000000000000000000000000000017fffffffffffffffffffffffffffffffffffffffffffffffffffffffffffffffff52155955",
                "nonce" : "0x00",
                "storage" : {
                }
            },
            "0x945304eb96065b2a98b57a48a06ae28d285a71b5" : {
                "balance" : "0x2e",
                "code" : "0x6000355415600957005b60203560003555",
                "nonce" : "0x00",
                "storage" : {
                }
            },
            "0xa94f5374fce5edbc8e2a8697c15331677e6ebf0b" : {
                "balance" : "0x0de0b6b0aa1227e4",
                "code" : "0x",
                "nonce" : "0x01",
                "storage" : {
                }
            }
        },
        "pre" : {
            "0x000f3df6d732807ef1319fb7b8bb8522d0beac02" : {
                "balance" : "0x00",
                "code" : "0x3373fffffffffffffffffffffffffffffffffffffffe14604d57602036146024575f5ffd5b5f35801560495762001fff810690815414603c575f5ffd5b62001fff01545f5260205ff35b5f5ffd5b62001fff42064281555f359062001fff015500",
                "nonce" : "0x01",
                "storage" : {
                }
            },
            "0x095e7baea6a6c7c4c2dfeb977efac326af552d87" : {
                "balance" : "0x00",
                "code" : "0x7ffffffffffffffffffffffffffffffffffffffffffffffffffffffffffffffffe7f000000000000000000000001000000000000000000000000000000000000000044457f0000000000000000000000000000000000000000000000000000000000000001187f00000000000000000000000000000000000000000000000000000000000000017fffffffffffffffffffffffffffffffffffffffffffffffffffffffffffffffff52155955",
                "nonce" : "0x00",
                "storage" : {
                }
            },
            "0x945304eb96065b2a98b57a48a06ae28d285a71b5" : {
                "balance" : "0x2e",
                "code" : "0x6000355415600957005b60203560003555",
                "nonce" : "0x00",
                "storage" : {
                }
            },
            "0xa94f5374fce5edbc8e2a8697c15331677e6ebf0b" : {
                "balance" : "0x0de0b6b3a7640000",
                "code" : "0x",
                "nonce" : "0x00",
                "storage" : {
                }
            }
        },
        "sealEngine" : "NoProof"
    },
    "randomStatetest84_d0g0v0_Prague" : {
        "_info" : {
            "comment" : "",
            "filling-rpc-server" : "evmone-t8n 0.13.0-82+commit.880ac821",
            "filling-tool-version" : "retesteth-0.3.2-legacy+commit.1d528976.Linux.g++",
            "generatedTestHash" : "c42bfed28e173c7ef415fbaaf5e41c17d649863e0315ec2df54b73d48ca3689b",
            "lllcversion" : "Version: 0.5.14-develop.2024.11.5+commit.b2b86751.mod.Linux.g++",
            "solidity" : "Version: 0.8.24+commit.e11b9ed9.Linux.g++",
            "source" : "src/GeneralStateTestsFiller/stRandom/randomStatetest84Filler.json",
            "sourceHash" : "40282ae11d2e226ca2262734fbf9c1fa38fd2949d2f49cb5bae7f04f5f82e362"
        },
        "blocks" : [
            {
                "blockHeader" : {
                    "baseFeePerGas" : "0x0a",
                    "blobGasUsed" : "0x00",
                    "bloom" : "0x00000000000000000000000000000000000000000000000000000000000000000000000000000000000000000000000000000000000000000000000000000000000000000000000000000000000000000000000000000000000000000000000000000000000000000000000000000000000000000000000000000000000000000000000000000000000000000000000000000000000000000000000000000000000000000000000000000000000000000000000000000000000000000000000000000000000000000000000000000000000000000000000000000000000000000000000000000000000000000000000000000000000000000000000000000000",
                    "coinbase" : "0x945304eb96065b2a98b57a48a06ae28d285a71b5",
                    "difficulty" : "0x00",
                    "excessBlobGas" : "0x00",
                    "extraData" : "0x00",
                    "gasLimit" : "0x7fffffffffffffff",
                    "gasUsed" : "0x4c882f36",
                    "hash" : "0xc1f441748b0fadc4fec9b5c5175ae6e10f4219a853e9bc490187fe1abb835406",
                    "mixHash" : "0x0000000000000000000000000000000000000000000000000000000000020000",
                    "nonce" : "0x0000000000000000",
                    "number" : "0x01",
                    "parentBeaconBlockRoot" : "0x0000000000000000000000000000000000000000000000000000000000000000",
                    "parentHash" : "0x250a8fd38e563b539b547195bdf0d9d196b415e81e951fc4bd81832a148b54a4",
                    "receiptTrie" : "0xdde3460154c05968e4634d46a70b9b4b7959729767d5b011652e702d80eadd0c",
                    "requestsHash" : "0xe3b0c44298fc1c149afbf4c8996fb92427ae41e4649b934ca495991b7852b855",
                    "stateRoot" : "0xcc0f7ddb2ff38b4b479ea7104fd81cbf84eb3df1fb3e55f490ba43483802620a",
                    "timestamp" : "0x03e8",
                    "transactionsTrie" : "0x61dc8f888ad575fbb50cd5d8a48e4fc8cd7a246c3a483b7afc3437cccfd01c74",
                    "uncleHash" : "0x1dcc4de8dec75d7aab85b567b6ccd41ad312451b948a7413f0a142fd40d49347",
                    "withdrawalsRoot" : "0x56e81f171bcc55a6ff8345e692c0f86e5b48e01b996cadc001622fb5e363b421"
                },
                "rlp" : "0xf9037df90261a0250a8fd38e563b539b547195bdf0d9d196b415e81e951fc4bd81832a148b54a4a01dcc4de8dec75d7aab85b567b6ccd41ad312451b948a7413f0a142fd40d4934794945304eb96065b2a98b57a48a06ae28d285a71b5a0cc0f7ddb2ff38b4b479ea7104fd81cbf84eb3df1fb3e55f490ba43483802620aa061dc8f888ad575fbb50cd5d8a48e4fc8cd7a246c3a483b7afc3437cccfd01c74a0dde3460154c05968e4634d46a70b9b4b7959729767d5b011652e702d80eadd0cb90100000000000000000000000000000000000000000000000000000000000000000000000000000000000000000000000000000000000000000000000000000000000000000000000000000000000000000000000000000000000000000000000000000000000000000000000000000000000000000000000000000000000000000000000000000000000000000000000000000000000000000000000000000000000000000000000000000000000000000000000000000000000000000000000000000000000000000000000000000000000000000000000000000000000000000000000000000000000000000000000000000000000000000000000000000000008001887fffffffffffffff844c882f368203e800a000000000000000000000000000000000000000000000000000000000000200008800000000000000000aa056e81f171bcc55a6ff8345e692c0f86e5b48e01b996cadc001622fb5e363b4218080a00000000000000000000000000000000000000000000000000000000000000000a0e3b0c44298fc1c149afbf4c8996fb92427ae41e4649b934ca495991b7852b855f90114f90111800a844c882f3694095e7baea6a6c7c4c2dfeb977efac326af552d878428841bd1b8ab7ffffffffffffffffffffffffffffffffffffffffffffffffffffffffffffffffe7f000000000000000000000001000000000000000000000000000000000000000044457f0000000000000000000000000000000000000000000000000000000000000001187f00000000000000000000000000000000000000000000000000000000000000017fffffffffffffffffffffffffffffffffffffffffffffffffffffffffffffffff5215591ba0b177c2bca1b4f40c0cfcf5637f3eb4691f90b2ac51246a91a5cd85fbc134baf2a05dd0ea047945e31b536718bdfdcd50e99ee1bb41a4c299dbde90e440a12e8c99c0c0",
                "transactions" : [
                    {
                        "data" : "0x7ffffffffffffffffffffffffffffffffffffffffffffffffffffffffffffffffe7f000000000000000000000001000000000000000000000000000000000000000044457f0000000000000000000000000000000000000000000000000000000000000001187f00000000000000000000000000000000000000000000000000000000000000017fffffffffffffffffffffffffffffffffffffffffffffffffffffffffffffffff521559",
                        "gasLimit" : "0x4c882f36",
                        "gasPrice" : "0x0a",
                        "nonce" : "0x00",
                        "r" : "0xb177c2bca1b4f40c0cfcf5637f3eb4691f90b2ac51246a91a5cd85fbc134baf2",
                        "s" : "0x5dd0ea047945e31b536718bdfdcd50e99ee1bb41a4c299dbde90e440a12e8c99",
                        "sender" : "0xa94f5374fce5edbc8e2a8697c15331677e6ebf0b",
                        "to" : "0x095e7baea6a6c7c4c2dfeb977efac326af552d87",
                        "v" : "0x1b",
                        "value" : "0x28841bd1"
                    }
                ],
                "uncleHeaders" : [
                ],
                "withdrawals" : [
                ]
            }
        ],
        "config" : {
            "blobSchedule" : {
                "Prague" : {
                    "baseFeeUpdateFraction" : "0x4c6964",
                    "max" : "0x09",
                    "target" : "0x06"
                }
            },
            "chainid" : "0x01",
            "network" : "Prague"
        },
        "genesisBlockHeader" : {
            "baseFeePerGas" : "0x0b",
            "blobGasUsed" : "0x00",
            "bloom" : "0x00000000000000000000000000000000000000000000000000000000000000000000000000000000000000000000000000000000000000000000000000000000000000000000000000000000000000000000000000000000000000000000000000000000000000000000000000000000000000000000000000000000000000000000000000000000000000000000000000000000000000000000000000000000000000000000000000000000000000000000000000000000000000000000000000000000000000000000000000000000000000000000000000000000000000000000000000000000000000000000000000000000000000000000000000000000",
            "coinbase" : "0x945304eb96065b2a98b57a48a06ae28d285a71b5",
            "difficulty" : "0x00",
            "excessBlobGas" : "0x060000",
            "extraData" : "0x00",
            "gasLimit" : "0x7fffffffffffffff",
            "gasUsed" : "0x00",
            "hash" : "0x250a8fd38e563b539b547195bdf0d9d196b415e81e951fc4bd81832a148b54a4",
            "mixHash" : "0x0000000000000000000000000000000000000000000000000000000000020000",
            "nonce" : "0x0000000000000000",
            "number" : "0x00",
            "parentBeaconBlockRoot" : "0x0000000000000000000000000000000000000000000000000000000000000000",
            "parentHash" : "0x0000000000000000000000000000000000000000000000000000000000000000",
            "receiptTrie" : "0x56e81f171bcc55a6ff8345e692c0f86e5b48e01b996cadc001622fb5e363b421",
            "requestsHash" : "0xe3b0c44298fc1c149afbf4c8996fb92427ae41e4649b934ca495991b7852b855",
            "stateRoot" : "0x5971ce98cc609c72ab96d11fc64a7e2b5544206e0125aeb2ad6f06366ad3e3be",
            "timestamp" : "0x00",
            "transactionsTrie" : "0x56e81f171bcc55a6ff8345e692c0f86e5b48e01b996cadc001622fb5e363b421",
            "uncleHash" : "0x1dcc4de8dec75d7aab85b567b6ccd41ad312451b948a7413f0a142fd40d49347",
            "withdrawalsRoot" : "0x56e81f171bcc55a6ff8345e692c0f86e5b48e01b996cadc001622fb5e363b421"
        },
        "genesisRLP" : "0xf90264f9025ea00000000000000000000000000000000000000000000000000000000000000000a01dcc4de8dec75d7aab85b567b6ccd41ad312451b948a7413f0a142fd40d4934794945304eb96065b2a98b57a48a06ae28d285a71b5a05971ce98cc609c72ab96d11fc64a7e2b5544206e0125aeb2ad6f06366ad3e3bea056e81f171bcc55a6ff8345e692c0f86e5b48e01b996cadc001622fb5e363b421a056e81f171bcc55a6ff8345e692c0f86e5b48e01b996cadc001622fb5e363b421b90100000000000000000000000000000000000000000000000000000000000000000000000000000000000000000000000000000000000000000000000000000000000000000000000000000000000000000000000000000000000000000000000000000000000000000000000000000000000000000000000000000000000000000000000000000000000000000000000000000000000000000000000000000000000000000000000000000000000000000000000000000000000000000000000000000000000000000000000000000000000000000000000000000000000000000000000000000000000000000000000000000000000000000000000000000000008080887fffffffffffffff808000a000000000000000000000000000000000000000000000000000000000000200008800000000000000000ba056e81f171bcc55a6ff8345e692c0f86e5b48e01b996cadc001622fb5e363b4218083060000a00000000000000000000000000000000000000000000000000000000000000000a0e3b0c44298fc1c149afbf4c8996fb92427ae41e4649b934ca495991b7852b855c0c0c0",
        "lastblockhash" : "0xc1f441748b0fadc4fec9b5c5175ae6e10f4219a853e9bc490187fe1abb835406",
        "network" : "Prague",
        "postState" : {
            "0x000f3df6d732807ef1319fb7b8bb8522d0beac02" : {
                "balance" : "0x00",
                "code" : "0x3373fffffffffffffffffffffffffffffffffffffffe14604d57602036146024575f5ffd5b5f35801560495762001fff810690815414603c575f5ffd5b62001fff01545f5260205ff35b5f5ffd5b62001fff42064281555f359062001fff015500",
                "nonce" : "0x01",
                "storage" : {
                    "0x03e8" : "0x03e8"
                }
            },
            "0x095e7baea6a6c7c4c2dfeb977efac326af552d87" : {
                "balance" : "0x00",
                "code" : "0x7ffffffffffffffffffffffffffffffffffffffffffffffffffffffffffffffffe7f000000000000000000000001000000000000000000000000000000000000000044457f0000000000000000000000000000000000000000000000000000000000000001187f00000000000000000000000000000000000000000000000000000000000000017fffffffffffffffffffffffffffffffffffffffffffffffffffffffffffffffff52155955",
                "nonce" : "0x00",
                "storage" : {
                }
            },
            "0x945304eb96065b2a98b57a48a06ae28d285a71b5" : {
                "balance" : "0x2e",
                "code" : "0x6000355415600957005b60203560003555",
                "nonce" : "0x00",
                "storage" : {
                }
            },
            "0xa94f5374fce5edbc8e2a8697c15331677e6ebf0b" : {
                "balance" : "0x0de0b6b0aa1227e4",
                "code" : "0x",
                "nonce" : "0x01",
                "storage" : {
                }
            }
        },
        "pre" : {
            "0x000f3df6d732807ef1319fb7b8bb8522d0beac02" : {
                "balance" : "0x00",
                "code" : "0x3373fffffffffffffffffffffffffffffffffffffffe14604d57602036146024575f5ffd5b5f35801560495762001fff810690815414603c575f5ffd5b62001fff01545f5260205ff35b5f5ffd5b62001fff42064281555f359062001fff015500",
                "nonce" : "0x01",
                "storage" : {
                }
            },
            "0x095e7baea6a6c7c4c2dfeb977efac326af552d87" : {
                "balance" : "0x00",
                "code" : "0x7ffffffffffffffffffffffffffffffffffffffffffffffffffffffffffffffffe7f000000000000000000000001000000000000000000000000000000000000000044457f0000000000000000000000000000000000000000000000000000000000000001187f00000000000000000000000000000000000000000000000000000000000000017fffffffffffffffffffffffffffffffffffffffffffffffffffffffffffffffff52155955",
                "nonce" : "0x00",
                "storage" : {
                }
            },
            "0x945304eb96065b2a98b57a48a06ae28d285a71b5" : {
                "balance" : "0x2e",
                "code" : "0x6000355415600957005b60203560003555",
                "nonce" : "0x00",
                "storage" : {
                }
            },
            "0xa94f5374fce5edbc8e2a8697c15331677e6ebf0b" : {
                "balance" : "0x0de0b6b3a7640000",
                "code" : "0x",
                "nonce" : "0x00",
                "storage" : {
                }
            }
        },
        "sealEngine" : "NoProof"
    }
}