{
    "randomStatetest184_d0g0v0_Cancun" : {
        "_info" : {
            "comment" : "",
            "filling-rpc-server" : "evmone-t8n 0.13.0-82+commit.880ac821",
            "filling-tool-version" : "retesteth-0.3.2-legacy+commit.1d528976.Linux.g++",
            "generatedTestHash" : "f2f881af4883467991d17620516114905bc73ca3276c9189a801e9952df6396b",
            "lllcversion" : "Version: 0.5.14-develop.2024.11.5+commit.b2b86751.mod.Linux.g++",
            "solidity" : "Version: 0.8.24+commit.e11b9ed9.Linux.g++",
            "source" : "src/GeneralStateTestsFiller/stRandom/randomStatetest184Filler.json",
            "sourceHash" : "d76f83570b803cd0752931c201a9360bf812a9eacc3cb31d7ebe2fb08d4af3c8"
        },
        "blocks" : [
            {
                "blockHeader" : {
                    "baseFeePerGas" : "0x0a",
                    "blobGasUsed" : "0x00",
                    "bloom" : "0x00000000000000000000000000000000000000000000000000000000000000000000000000000000000000000000000000000000000000000000000000000000000000000000000000000000000000000000000000000000000000000000000000000000000000000000000000000000000000000000000000000000000000000000000000000000000000000000000000000000000000000000000000000000000000000000000000000000000000000000000000000000000000000000000000000000000000000000000000000000000000000000000000000000000000000000000000000000000000000000000000000000000000000000000000000000",
                    "coinbase" : "0x6d6e40885310545835a5b582dbc23ef026404bda",
                    "difficulty" : "0x00",
                    "excessBlobGas" : "0x00",
                    "extraData" : "0x00",
                    "gasLimit" : "0x102b7fe66d",
                    "gasUsed" : "0xa988",
                    "hash" : "0x8adbb87777b4d5ef148e7e44f1cfc07a712c092356d9507d4320cbf4331166b5",
                    "mixHash" : "0x0000000000000000000000000000000000000000000000000000000000020000",
                    "nonce" : "0x0000000000000000",
                    "number" : "0x01",
                    "parentBeaconBlockRoot" : "0x0000000000000000000000000000000000000000000000000000000000000000",
                    "parentHash" : "0xfdd2bc4cf1efbda361d80af5b8fc5a19dec5c6e4a317806625ba22e444f82217",
                    "receiptTrie" : "0x7155d83f244e853f4fd317bded966f097100e0d08c583a5a8a626daaf374e797",
                    "stateRoot" : "0x2970665c5db662c4d4049531f7fbd400b4652e9694a61f3c6eb64c46d7e69d10",
                    "timestamp" : "0x2710",
                    "transactionsTrie" : "0xe5c79263d9ee3544da3e96a20fc20b11cd2dc548c211a7d1073311a1b02191b7",
                    "uncleHash" : "0x1dcc4de8dec75d7aab85b567b6ccd41ad312451b948a7413f0a142fd40d49347",
                    "withdrawalsRoot" : "0x56e81f171bcc55a6ff8345e692c0f86e5b48e01b996cadc001622fb5e363b421"
                },
                "rlp" : "0xf902b9f9023ba0fdd2bc4cf1efbda361d80af5b8fc5a19dec5c6e4a317806625ba22e444f82217a01dcc4de8dec75d7aab85b567b6ccd41ad312451b948a7413f0a142fd40d49347946d6e40885310545835a5b582dbc23ef026404bdaa02970665c5db662c4d4049531f7fbd400b4652e9694a61f3c6eb64c46d7e69d10a0e5c79263d9ee3544da3e96a20fc20b11cd2dc548c211a7d1073311a1b02191b7a07155d83f244e853f4fd317bded966f097100e0d08c583a5a8a626daaf374e797b9010000000000000000000000000000000000000000000000000000000000000000000000000000000000000000000000000000000000000000000000000000000000000000000000000000000000000000000000000000000000000000000000000000000000000000000000000000000000000000000000000000000000000000000000000000000000000000000000000000000000000000000000000000000000000000000000000000000000000000000000000000000000000000000000000000000000000000000000000000000000000000000000000000000000000000000000000000000000000000000000000000000000000000000000000000000000800185102b7fe66d82a98882271000a000000000000000000000000000000000000000000000000000000000000200008800000000000000000aa056e81f171bcc55a6ff8345e692c0f86e5b48e01b996cadc001622fb5e363b4218080a00000000000000000000000000000000000000000000000000000000000000000f877f875801c843b75fb8794095e7baea6a6c7c4c2dfeb977efac326af552d87846d1dd0249064dd3e4e84676723342c1dfaf9af4ef31ba0dcac3cc6bc71280f50cc82297c3483d65434803e718433c85d8dbb0644bfc379a059ed5cc1b44e24918daabd74179907fffc4692d5b9e8428a89aa4815c7870eddc0c0",
                "transactions" : [
                    {
                        "data" : "0x64dd3e4e84676723342c1dfaf9af4ef3",
                        "gasLimit" : "0x3b75fb87",
                        "gasPrice" : "0x1c",
                        "nonce" : "0x00",
                        "r" : "0xdcac3cc6bc71280f50cc82297c3483d65434803e718433c85d8dbb0644bfc379",
                        "s" : "0x59ed5cc1b44e24918daabd74179907fffc4692d5b9e8428a89aa4815c7870edd",
                        "sender" : "0xa94f5374fce5edbc8e2a8697c15331677e6ebf0b",
                        "to" : "0x095e7baea6a6c7c4c2dfeb977efac326af552d87",
                        "v" : "0x1b",
                        "value" : "0x6d1dd024"
                    }
                ],
                "uncleHeaders" : [
                ],
                "withdrawals" : [
                ]
            }
        ],
        "config" : {
            "blobSchedule" : {
                "Cancun" : {
                    "baseFeeUpdateFraction" : "0x32f0ed",
                    "max" : "0x06",
                    "target" : "0x03"
                }
            },
            "chainid" : "0x01",
            "network" : "Cancun"
        },
        "genesisBlockHeader" : {
            "baseFeePerGas" : "0x0b",
            "blobGasUsed" : "0x00",
            "bloom" : "0x00000000000000000000000000000000000000000000000000000000000000000000000000000000000000000000000000000000000000000000000000000000000000000000000000000000000000000000000000000000000000000000000000000000000000000000000000000000000000000000000000000000000000000000000000000000000000000000000000000000000000000000000000000000000000000000000000000000000000000000000000000000000000000000000000000000000000000000000000000000000000000000000000000000000000000000000000000000000000000000000000000000000000000000000000000000",
            "coinbase" : "0x6d6e40885310545835a5b582dbc23ef026404bda",
            "difficulty" : "0x00",
            "excessBlobGas" : "0x060000",
            "extraData" : "0x00",
            "gasLimit" : "0x102b7fe66d",
            "gasUsed" : "0x00",
            "hash" : "0xfdd2bc4cf1efbda361d80af5b8fc5a19dec5c6e4a317806625ba22e444f82217",
            "mixHash" : "0x0000000000000000000000000000000000000000000000000000000000020000",
            "nonce" : "0x0000000000000000",
            "number" : "0x00",
            "parentBeaconBlockRoot" : "0x0000000000000000000000000000000000000000000000000000000000000000",
            "parentHash" : "0x0000000000000000000000000000000000000000000000000000000000000000",
            "receiptTrie" : "0x56e81f171bcc55a6ff8345e692c0f86e5b48e01b996cadc001622fb5e363b421",
            "stateRoot" : "0xafd80a70c5c4e9f13ff143bfe1252c0e20733283ce2ef84d59a878b1e042fb08",
            "timestamp" : "0x00",
            "transactionsTrie" : "0x56e81f171bcc55a6ff8345e692c0f86e5b48e01b996cadc001622fb5e363b421",
            "uncleHash" : "0x1dcc4de8dec75d7aab85b567b6ccd41ad312451b948a7413f0a142fd40d49347",
            "withdrawalsRoot" : "0x56e81f171bcc55a6ff8345e692c0f86e5b48e01b996cadc001622fb5e363b421"
        },
        "genesisRLP" : "0xf90240f9023aa00000000000000000000000000000000000000000000000000000000000000000a01dcc4de8dec75d7aab85b567b6ccd41ad312451b948a7413f0a142fd40d49347946d6e40885310545835a5b582dbc23ef026404bdaa0afd80a70c5c4e9f13ff143bfe1252c0e20733283ce2ef84d59a878b1e042fb08a056e81f171bcc55a6ff8345e692c0f86e5b48e01b996cadc001622fb5e363b421a056e81f171bcc55a6ff8345e692c0f86e5b48e01b996cadc001622fb5e363b421b9010000000000000000000000000000000000000000000000000000000000000000000000000000000000000000000000000000000000000000000000000000000000000000000000000000000000000000000000000000000000000000000000000000000000000000000000000000000000000000000000000000000000000000000000000000000000000000000000000000000000000000000000000000000000000000000000000000000000000000000000000000000000000000000000000000000000000000000000000000000000000000000000000000000000000000000000000000000000000000000000000000000000000000000000000000000000808085102b7fe66d808000a000000000000000000000000000000000000000000000000000000000000200008800000000000000000ba056e81f171bcc55a6ff8345e692c0f86e5b48e01b996cadc001622fb5e363b4218083060000a00000000000000000000000000000000000000000000000000000000000000000c0c0c0",
        "lastblockhash" : "0x8adbb87777b4d5ef148e7e44f1cfc07a712c092356d9507d4320cbf4331166b5",
        "network" : "Cancun",
        "postState" : {
            "0x000f3df6d732807ef1319fb7b8bb8522d0beac02" : {
                "balance" : "0x00",
                "code" : "0x3373fffffffffffffffffffffffffffffffffffffffe14604d57602036146024575f5ffd5b5f35801560495762001fff810690815414603c575f5ffd5b62001fff01545f5260205ff35b5f5ffd5b62001fff42064281555f359062001fff015500",
                "nonce" : "0x01",
                "storage" : {
                    "0x0711" : "0x2710"
                }
            },
            "0x095e7baea6a6c7c4c2dfeb977efac326af552d87" : {
                "balance" : "0x070a217c6fe6c2f8",
                "code" : "0x6f823a02877cef7c1afb60663009def564608c557bad2ae05769b991313726edbfa0881d9cc955b0f5154751da315696ea7ce130184b64f2507582c502d450349ff24fb8aeb2a46146687b666bd7bd0364946cb720c76d483f5afea0049251fd9793c4b0376afbb4ebcdc42fdd42edcd4b619cec787638009cea26a1abe570e3186ab790b7dc7db36e4cda2570b0847adf6e39579c7c43a4ac976cd507d493cdfaebe09936078e31c71c4665d34a4b816b8004",
                "nonce" : "0x75",
                "storage" : {
                    "0x8c" : "0x823a02877cef7c1afb60663009def564"
                }
            },
            "0x6d6e40885310545835a5b582dbc23ef026404bda" : {
                "balance" : "0x0beb90",
                "code" : "0x",
                "nonce" : "0x00",
                "storage" : {
                }
            },
            "0x945304eb96065b2a98b57a48a06ae28d285a71b5" : {
                "balance" : "0x9740421ff0ff3ae3",
                "code" : "0x",
                "nonce" : "0x1d",
                "storage" : {
                }
            },
            "0xa94f5374fce5edbc8e2a8697c15331677e6ebf0b" : {
                "balance" : "0x10c1142f2b215e5554",
                "code" : "0x",
                "nonce" : "0x01",
                "storage" : {
                }
            }
        },
        "pre" : {
            "0x000f3df6d732807ef1319fb7b8bb8522d0beac02" : {
                "balance" : "0x00",
                "code" : "0x3373fffffffffffffffffffffffffffffffffffffffe14604d57602036146024575f5ffd5b5f35801560495762001fff810690815414603c575f5ffd5b62001fff01545f5260205ff35b5f5ffd5b62001fff42064281555f359062001fff015500",
                "nonce" : "0x01",
                "storage" : {
                }
            },
            "0x095e7baea6a6c7c4c2dfeb977efac326af552d87" : {
                "balance" : "0x070a217c02c8f2d4",
                "code" : "0x6f823a02877cef7c1afb60663009def564608c557bad2ae05769b991313726edbfa0881d9cc955b0f5154751da315696ea7ce130184b64f2507582c502d450349ff24fb8aeb2a46146687b666bd7bd0364946cb720c76d483f5afea0049251fd9793c4b0376afbb4ebcdc42fdd42edcd4b619cec787638009cea26a1abe570e3186ab790b7dc7db36e4cda2570b0847adf6e39579c7c43a4ac976cd507d493cdfaebe09936078e31c71c4665d34a4b816b8004",
                "nonce" : "0x75",
                "storage" : {
                }
            },
            "0x945304eb96065b2a98b57a48a06ae28d285a71b5" : {
                "balance" : "0x9740421ff0ff3ae3",
                "code" : "0x",
                "nonce" : "0x1d",
                "storage" : {
                }
            },
            "0xa94f5374fce5edbc8e2a8697c15331677e6ebf0b" : {
                "balance" : "0x10c1142f2b8e8eb058",
                "code" : "0x",
                "nonce" : "0x00",
                "storage" : {
                }
            }
        },
        "sealEngine" : "NoProof"
    },
    "randomStatetest184_d0g0v0_Prague" : {
        "_info" : {
            "comment" : "",
            "filling-rpc-server" : "evmone-t8n 0.13.0-82+commit.880ac821",
            "filling-tool-version" : "retesteth-0.3.2-legacy+commit.1d528976.Linux.g++",
            "generatedTestHash" : "437460feaccbafbf24835727c2e1cc8d1a10e777379e73e3fb0b0c505db3a693",
            "lllcversion" : "Version: 0.5.14-develop.2024.11.5+commit.b2b86751.mod.Linux.g++",
            "solidity" : "Version: 0.8.24+commit.e11b9ed9.Linux.g++",
            "source" : "src/GeneralStateTestsFiller/stRandom/randomStatetest184Filler.json",
            "sourceHash" : "d76f83570b803cd0752931c201a9360bf812a9eacc3cb31d7ebe2fb08d4af3c8"
        },
        "blocks" : [
            {
                "blockHeader" : {
                    "baseFeePerGas" : "0x0a",
                    "blobGasUsed" : "0x00",
                    "bloom" : "0x00000000000000000000000000000000000000000000000000000000000000000000000000000000000000000000000000000000000000000000000000000000000000000000000000000000000000000000000000000000000000000000000000000000000000000000000000000000000000000000000000000000000000000000000000000000000000000000000000000000000000000000000000000000000000000000000000000000000000000000000000000000000000000000000000000000000000000000000000000000000000000000000000000000000000000000000000000000000000000000000000000000000000000000000000000000",
                    "coinbase" : "0x6d6e40885310545835a5b582dbc23ef026404bda",
                    "difficulty" : "0x00",
                    "excessBlobGas" : "0x00",
                    "extraData" : "0x00",
                    "gasLimit" : "0x102b7fe66d",
                    "gasUsed" : "0xa988",
                    "hash" : "0xf60a3a51cefa321872e25f759a966f928ffd3a1b37b13a12c63597bd43203f35",
                    "mixHash" : "0x0000000000000000000000000000000000000000000000000000000000020000",
                    "nonce" : "0x0000000000000000",
                    "number" : "0x01",
                    "parentBeaconBlockRoot" : "0x0000000000000000000000000000000000000000000000000000000000000000",
                    "parentHash" : "0x8a6921192103f28a93f970520f35dd73063038edff14fefce945bf76c60a01f5",
                    "receiptTrie" : "0x7155d83f244e853f4fd317bded966f097100e0d08c583a5a8a626daaf374e797",
                    "requestsHash" : "0xe3b0c44298fc1c149afbf4c8996fb92427ae41e4649b934ca495991b7852b855",
                    "stateRoot" : "0x2970665c5db662c4d4049531f7fbd400b4652e9694a61f3c6eb64c46d7e69d10",
                    "timestamp" : "0x2710",
                    "transactionsTrie" : "0xe5c79263d9ee3544da3e96a20fc20b11cd2dc548c211a7d1073311a1b02191b7",
                    "uncleHash" : "0x1dcc4de8dec75d7aab85b567b6ccd41ad312451b948a7413f0a142fd40d49347",
                    "withdrawalsRoot" : "0x56e81f171bcc55a6ff8345e692c0f86e5b48e01b996cadc001622fb5e363b421"
                },
                "rlp" : "0xf902daf9025ca08a6921192103f28a93f970520f35dd73063038edff14fefce945bf76c60a01f5a01dcc4de8dec75d7aab85b567b6ccd41ad312451b948a7413f0a142fd40d49347946d6e40885310545835a5b582dbc23ef026404bdaa02970665c5db662c4d4049531f7fbd400b4652e9694a61f3c6eb64c46d7e69d10a0e5c79263d9ee3544da3e96a20fc20b11cd2dc548c211a7d1073311a1b02191b7a07155d83f244e853f4fd317bded966f097100e0d08c583a5a8a626daaf374e797b9010000000000000000000000000000000000000000000000000000000000000000000000000000000000000000000000000000000000000000000000000000000000000000000000000000000000000000000000000000000000000000000000000000000000000000000000000000000000000000000000000000000000000000000000000000000000000000000000000000000000000000000000000000000000000000000000000000000000000000000000000000000000000000000000000000000000000000000000000000000000000000000000000000000000000000000000000000000000000000000000000000000000000000000000000000000000800185102b7fe66d82a98882271000a000000000000000000000000000000000000000000000000000000000000200008800000000000000000aa056e81f171bcc55a6ff8345e692c0f86e5b48e01b996cadc001622fb5e363b4218080a00000000000000000000000000000000000000000000000000000000000000000a0e3b0c44298fc1c149afbf4c8996fb92427ae41e4649b934ca495991b7852b855f877f875801c843b75fb8794095e7baea6a6c7c4c2dfeb977efac326af552d87846d1dd0249064dd3e4e84676723342c1dfaf9af4ef31ba0dcac3cc6bc71280f50cc82297c3483d65434803e718433c85d8dbb0644bfc379a059ed5cc1b44e24918daabd74179907fffc4692d5b9e8428a89aa4815c7870eddc0c0",
                "transactions" : [
                    {
                        "data" : "0x64dd3e4e84676723342c1dfaf9af4ef3",
                        "gasLimit" : "0x3b75fb87",
                        "gasPrice" : "0x1c",
                        "nonce" : "0x00",
                        "r" : "0xdcac3cc6bc71280f50cc82297c3483d65434803e718433c85d8dbb0644bfc379",
                        "s" : "0x59ed5cc1b44e24918daabd74179907fffc4692d5b9e8428a89aa4815c7870edd",
                        "sender" : "0xa94f5374fce5edbc8e2a8697c15331677e6ebf0b",
                        "to" : "0x095e7baea6a6c7c4c2dfeb977efac326af552d87",
                        "v" : "0x1b",
                        "value" : "0x6d1dd024"
                    }
                ],
                "uncleHeaders" : [
                ],
                "withdrawals" : [
                ]
            }
        ],
        "config" : {
            "blobSchedule" : {
                "Prague" : {
                    "baseFeeUpdateFraction" : "0x4c6964",
                    "max" : "0x09",
                    "target" : "0x06"
                }
            },
            "chainid" : "0x01",
            "network" : "Prague"
        },
        "genesisBlockHeader" : {
            "baseFeePerGas" : "0x0b",
            "blobGasUsed" : "0x00",
            "bloom" : "0x00000000000000000000000000000000000000000000000000000000000000000000000000000000000000000000000000000000000000000000000000000000000000000000000000000000000000000000000000000000000000000000000000000000000000000000000000000000000000000000000000000000000000000000000000000000000000000000000000000000000000000000000000000000000000000000000000000000000000000000000000000000000000000000000000000000000000000000000000000000000000000000000000000000000000000000000000000000000000000000000000000000000000000000000000000000",
            "coinbase" : "0x6d6e40885310545835a5b582dbc23ef026404bda",
            "difficulty" : "0x00",
            "excessBlobGas" : "0x060000",
            "extraData" : "0x00",
            "gasLimit" : "0x102b7fe66d",
            "gasUsed" : "0x00",
            "hash" : "0x8a6921192103f28a93f970520f35dd73063038edff14fefce945bf76c60a01f5",
            "mixHash" : "0x0000000000000000000000000000000000000000000000000000000000020000",
            "nonce" : "0x0000000000000000",
            "number" : "0x00",
            "parentBeaconBlockRoot" : "0x0000000000000000000000000000000000000000000000000000000000000000",
            "parentHash" : "0x0000000000000000000000000000000000000000000000000000000000000000",
            "receiptTrie" : "0x56e81f171bcc55a6ff8345e692c0f86e5b48e01b996cadc001622fb5e363b421",
            "requestsHash" : "0xe3b0c44298fc1c149afbf4c8996fb92427ae41e4649b934ca495991b7852b855",
            "stateRoot" : "0xafd80a70c5c4e9f13ff143bfe1252c0e20733283ce2ef84d59a878b1e042fb08",
            "timestamp" : "0x00",
            "transactionsTrie" : "0x56e81f171bcc55a6ff8345e692c0f86e5b48e01b996cadc001622fb5e363b421",
            "uncleHash" : "0x1dcc4de8dec75d7aab85b567b6ccd41ad312451b948a7413f0a142fd40d49347",
            "withdrawalsRoot" : "0x56e81f171bcc55a6ff8345e692c0f86e5b48e01b996cadc001622fb5e363b421"
        },
        "genesisRLP" : "0xf90261f9025ba00000000000000000000000000000000000000000000000000000000000000000a01dcc4de8dec75d7aab85b567b6ccd41ad312451b948a7413f0a142fd40d49347946d6e40885310545835a5b582dbc23ef026404bdaa0afd80a70c5c4e9f13ff143bfe1252c0e20733283ce2ef84d59a878b1e042fb08a056e81f171bcc55a6ff8345e692c0f86e5b48e01b996cadc001622fb5e363b421a056e81f171bcc55a6ff8345e692c0f86e5b48e01b996cadc001622fb5e363b421b9010000000000000000000000000000000000000000000000000000000000000000000000000000000000000000000000000000000000000000000000000000000000000000000000000000000000000000000000000000000000000000000000000000000000000000000000000000000000000000000000000000000000000000000000000000000000000000000000000000000000000000000000000000000000000000000000000000000000000000000000000000000000000000000000000000000000000000000000000000000000000000000000000000000000000000000000000000000000000000000000000000000000000000000000000000000000808085102b7fe66d808000a000000000000000000000000000000000000000000000000000000000000200008800000000000000000ba056e81f171bcc55a6ff8345e692c0f86e5b48e01b996cadc001622fb5e363b4218083060000a00000000000000000000000000000000000000000000000000000000000000000a0e3b0c44298fc1c149afbf4c8996fb92427ae41e4649b934ca495991b7852b855c0c0c0",
        "lastblockhash" : "0xf60a3a51cefa321872e25f759a966f928ffd3a1b37b13a12c63597bd43203f35",
        "network" : "Prague",
        "postState" : {
            "0x000f3df6d732807ef1319fb7b8bb8522d0beac02" : {
                "balance" : "0x00",
                "code" : "0x3373fffffffffffffffffffffffffffffffffffffffe14604d57602036146024575f5ffd5b5f35801560495762001fff810690815414603c575f5ffd5b62001fff01545f5260205ff35b5f5ffd5b62001fff42064281555f359062001fff015500",
                "nonce" : "0x01",
                "storage" : {
                    "0x0711" : "0x2710"
                }
            },
            "0x095e7baea6a6c7c4c2dfeb977efac326af552d87" : {
                "balance" : "0x070a217c6fe6c2f8",
                "code" : "0x6f823a02877cef7c1afb60663009def564608c557bad2ae05769b991313726edbfa0881d9cc955b0f5154751da315696ea7ce130184b64f2507582c502d450349ff24fb8aeb2a46146687b666bd7bd0364946cb720c76d483f5afea0049251fd9793c4b0376afbb4ebcdc42fdd42edcd4b619cec787638009cea26a1abe570e3186ab790b7dc7db36e4cda2570b0847adf6e39579c7c43a4ac976cd507d493cdfaebe09936078e31c71c4665d34a4b816b8004",
                "nonce" : "0x75",
                "storage" : {
                    "0x8c" : "0x823a02877cef7c1afb60663009def564"
                }
            },
            "0x6d6e40885310545835a5b582dbc23ef026404bda" : {
                "balance" : "0x0beb90",
                "code" : "0x",
                "nonce" : "0x00",
                "storage" : {
                }
            },
            "0x945304eb96065b2a98b57a48a06ae28d285a71b5" : {
                "balance" : "0x9740421ff0ff3ae3",
                "code" : "0x",
                "nonce" : "0x1d",
                "storage" : {
                }
            },
            "0xa94f5374fce5edbc8e2a8697c15331677e6ebf0b" : {
                "balance" : "0x10c1142f2b215e5554",
                "code" : "0x",
                "nonce" : "0x01",
                "storage" : {
                }
            }
        },
        "pre" : {
            "0x000f3df6d732807ef1319fb7b8bb8522d0beac02" : {
                "balance" : "0x00",
                "code" : "0x3373fffffffffffffffffffffffffffffffffffffffe14604d57602036146024575f5ffd5b5f35801560495762001fff810690815414603c575f5ffd5b62001fff01545f5260205ff35b5f5ffd5b62001fff42064281555f359062001fff015500",
                "nonce" : "0x01",
                "storage" : {
                }
            },
            "0x095e7baea6a6c7c4c2dfeb977efac326af552d87" : {
                "balance" : "0x070a217c02c8f2d4",
                "code" : "0x6f823a02877cef7c1afb60663009def564608c557bad2ae05769b991313726edbfa0881d9cc955b0f5154751da315696ea7ce130184b64f2507582c502d450349ff24fb8aeb2a46146687b666bd7bd0364946cb720c76d483f5afea0049251fd9793c4b0376afbb4ebcdc42fdd42edcd4b619cec787638009cea26a1abe570e3186ab790b7dc7db36e4cda2570b0847adf6e39579c7c43a4ac976cd507d493cdfaebe09936078e31c71c4665d34a4b816b8004",
                "nonce" : "0x75",
                "storage" : {
                }
            },
            "0x945304eb96065b2a98b57a48a06ae28d285a71b5" : {
                "balance" : "0x9740421ff0ff3ae3",
                "code" : "0x",
                "nonce" : "0x1d",
                "storage" : {
                }
            },
            "0xa94f5374fce5edbc8e2a8697c15331677e6ebf0b" : {
                "balance" : "0x10c1142f2b8e8eb058",
                "code" : "0x",
                "nonce" : "0x00",
                "storage" : {
                }
            }
        },
        "sealEngine" : "NoProof"
    }
}