{
    "create_opcode_initcode_39": {
        "_info": {
            "comment": "`execution-spec-tests` generated test",
            "description": "Test class documentation:\n\n    Test contract creation via the CREATE/CREATE2 opcodes that have an initcode\n    that is on/over the max allowed limit.\n    \n\nTest function documentation:\n\n        Test contract creation via the CREATE/CREATE2 opcodes that have an\n        initcode that is on/over the max allowed limit.",
            "filling-rpc-server": "evm version 1.14.4-unstable-3d8028a6-20240513",
            "filling-tool-version": "retesteth-0.3.2-cancun+commit.2a41f237.Linux.g++",
            "filling-transition-tool": "evm version 1.14.4-unstable-3d8028a6-20240513",
            "generatedTestHash": "b2c7b80f9c42956dd2c5c8f25b26f2a111e219275f466fe1597e2089397b4152",
            "hash": "0x5d3d033d940fe99673f7ac6032fd5080ddcc47afab1d7f1b8a4e76eaf4c5c155",
            "lllcversion": "Version: 0.5.14-develop.2023.7.11+commit.c58ab2c6.mod.Linux.g++",
            "solidity": "Version: 0.8.21+commit.d9974bed.Linux.g++",
            "source": "src/GeneralStateTestsFiller/Pyspecs/shanghai/eip3860_initcode/create_opcode_initcode_39Filler_.json",
            "sourceHash": "4282f25f4d3c9b8259517761f8a22c3cbe2f0560c73bd7bad442f9d3ea1559b2",
            "url": "https://github.com/ethereum/execution-spec-tests/blob/87ef9bee36585b5b9f72d6eaafeeb1999b641d3c/tests/tmp/tmptest_9f4beb9f_2238_40f6_a09e_8cdba701ff65/test_initcode.py#L510"
        },
        "env": {
            "currentBaseFee": "0x07",
            "currentCoinbase": "0x2adc25665018aa1fe0e6bc666dac8fc2697ff9ba",
            "currentDifficulty": "0x00",
            "currentGasLimit": "0x016345785d8a0000",
            "currentNumber": "0x01",
            "currentRandom": "0x0000000000000000000000000000000000000000000000000000000000000000",
            "currentTimestamp": "0x03e8"
        },
        "post": {
            "Shanghai": [
                {
                    "hash": "0xd3f9e8db2b095d2e84e86b0a4c39186a5204c836632ed8f937da8acd27d6e534",
                    "indexes": {
                        "data": 0,
                        "gas": 0,
                        "value": 0
                    },
                    "logs": "0x1dcc4de8dec75d7aab85b567b6ccd41ad312451b948a7413f0a142fd40d49347",
                    "txbytes": "0xf860800a83989680940000000000000000000000000000000000000200800026a020657ec6cf02b83d5955aeadcb4f66c9a9e8435de8b79b491ddf2e8c38b28e39a0779a141e2f9a7f281af205e20b43444b28aef24f8a9a812d4e21535b131b0583"
                }
            ]
        },
        "pre": {
            "0x0000000000000000000000000000000000000100": {
                "balance": "0x00",
                "code": "0x3660006000375a63deadbeef3660006000f55a906000559003600155",
                "nonce": "0x01",
                "storage": {}
            },
            "0x0000000000000000000000000000000000000200": {
                "balance": "0x00",
                "code": "0x3660006000376001600060003660006000610100624c4b40f155",
                "nonce": "0x01",
                "storage": {}
            },
            "0xa94f5374fce5edbc8e2a8697c15331677e6ebf0b": {
                "balance": "0x3635c9adc5dea00000",
                "code": "0x",
                "nonce": "0x00",
                "storage": {}
            }
        },
        "transaction": {
            "data": [
                "0x00"
            ],
            "gasLimit": [
                "0x989680"
            ],
            "gasPrice": "0x0a",
            "nonce": "0x00",
            "secretKey": "0x45a915e4d060149eb4365960e6a7a45f334393093061116b197e3240065ff2d8",
            "sender": "0xa94f5374fce5edbc8e2a8697c15331677e6ebf0b",
            "to": "0x0000000000000000000000000000000000000200",
            "value": [
                "0x00"
            ]
        }
    }
}