{
    "refundMax_d0g0v0_Cancun" : {
        "_info" : {
            "comment" : "Ori Pomerantz   qbzzt1@gmail.com",
            "filling-rpc-server" : "evmone-t8n 0.13.0-82+commit.880ac821",
            "filling-tool-version" : "retesteth-0.3.2-legacy+commit.1d528976.Linux.g++",
            "generatedTestHash" : "65a4d04fc7606a2c00ec660ec74aabdc0b64bceca91b2e0d9dd24d073f808c13",
            "lllcversion" : "Version: 0.5.14-develop.2024.11.5+commit.b2b86751.mod.Linux.g++",
            "solidity" : "Version: 0.8.24+commit.e11b9ed9.Linux.g++",
            "source" : "src/GeneralStateTestsFiller/stRefundTest/refundMaxFiller.yml",
            "sourceHash" : "2eebf336ac57b5117f3694ec880b68ff98beb3575dfc4fddbb896315d9921d7c"
        },
        "blocks" : [
            {
                "blockHeader" : {
                    "baseFeePerGas" : "0x03e8",
                    "blobGasUsed" : "0x00",
                    "bloom" : "0x00000000000000000000000000000000000000000000000000000000000000000000000000000000000000000000000000000000000000000000000000000000000000000000000000000000000000000000000000000000000000000000000000000000000000000000000000000000000000000000000000000000000000000000000000000000000000000000000000000000000000000000000000000000000000000000000000000000000000000000000000000000000000000000000000000000000000000000000000000000000000000000000000000000000000000000000000000000000000000000000000000000000000000000000000000000",
                    "coinbase" : "0x2adc25665018aa1fe0e6bc666dac8fc2697ff9ba",
                    "difficulty" : "0x00",
                    "excessBlobGas" : "0x00",
                    "extraData" : "0x00",
                    "gasLimit" : "0x01000000",
                    "gasUsed" : "0xbeca",
                    "hash" : "0x742e11650247083eaaf764816561f0feaae59680c2879933877fefb8ebde60a0",
                    "mixHash" : "0x0000000000000000000000000000000000000000000000000000000000020000",
                    "nonce" : "0x0000000000000000",
                    "number" : "0x01",
                    "parentBeaconBlockRoot" : "0x0000000000000000000000000000000000000000000000000000000000000000",
                    "parentHash" : "0x5ae7bd4d92fcb0dab53c565a7b8969b1c33220b3a9b318ceaf616f436b0fa756",
                    "receiptTrie" : "0xa1267dc8cb9b1eb6a801b3b02fcf24df7b3a62b8a094bdfd43a49546ee4164b8",
                    "stateRoot" : "0x279729d29162050dd029561e62673ca9474ac7a9c7cec6cc7803d6a378b10bf3",
                    "timestamp" : "0x03e8",
                    "transactionsTrie" : "0x62b3433319d52e2ba1c77a1290d0416ea21b71ec7668c5af1a2e3e2020291de4",
                    "uncleHash" : "0x1dcc4de8dec75d7aab85b567b6ccd41ad312451b948a7413f0a142fd40d49347",
                    "withdrawalsRoot" : "0x56e81f171bcc55a6ff8345e692c0f86e5b48e01b996cadc001622fb5e363b421"
                },
                "rlp" : "0xf902acf9023ca05ae7bd4d92fcb0dab53c565a7b8969b1c33220b3a9b318ceaf616f436b0fa756a01dcc4de8dec75d7aab85b567b6ccd41ad312451b948a7413f0a142fd40d49347942adc25665018aa1fe0e6bc666dac8fc2697ff9baa0279729d29162050dd029561e62673ca9474ac7a9c7cec6cc7803d6a378b10bf3a062b3433319d52e2ba1c77a1290d0416ea21b71ec7668c5af1a2e3e2020291de4a0a1267dc8cb9b1eb6a801b3b02fcf24df7b3a62b8a094bdfd43a49546ee4164b8b90100000000000000000000000000000000000000000000000000000000000000000000000000000000000000000000000000000000000000000000000000000000000000000000000000000000000000000000000000000000000000000000000000000000000000000000000000000000000000000000000000000000000000000000000000000000000000000000000000000000000000000000000000000000000000000000000000000000000000000000000000000000000000000000000000000000000000000000000000000000000000000000000000000000000000000000000000000000000000000000000000000000000000000000000000000000008001840100000082beca8203e800a000000000000000000000000000000000000000000000000000000000000200008800000000000000008203e8a056e81f171bcc55a6ff8345e692c0f86e5b48e01b996cadc001622fb5e363b4218080a00000000000000000000000000000000000000000000000000000000000000000f869b86701f86401018203e88327b02894cccccccccccccccccccccccccccccccccccccccc8000c080a039a0a692787fa83274937107332a154b786bf2cb1f80d1f20fe49d20da6ba324a0103bb80408321d84a1db211dfc777a640db593e889d6ec52f94d8718db3935c6c0c0",
                "transactions" : [
                    {
                        "accessList" : [
                        ],
                        "chainId" : "0x01",
                        "data" : "0x00",
                        "gasLimit" : "0x27b028",
                        "gasPrice" : "0x03e8",
                        "nonce" : "0x01",
                        "r" : "0x39a0a692787fa83274937107332a154b786bf2cb1f80d1f20fe49d20da6ba324",
                        "s" : "0x103bb80408321d84a1db211dfc777a640db593e889d6ec52f94d8718db3935c6",
                        "sender" : "0xa94f5374fce5edbc8e2a8697c15331677e6ebf0b",
                        "to" : "0xcccccccccccccccccccccccccccccccccccccccc",
                        "type" : "0x01",
                        "v" : "0x00",
                        "value" : "0x00"
                    }
                ],
                "uncleHeaders" : [
                ],
                "withdrawals" : [
                ]
            }
        ],
        "config" : {
            "blobSchedule" : {
                "Cancun" : {
                    "baseFeeUpdateFraction" : "0x32f0ed",
                    "max" : "0x06",
                    "target" : "0x03"
                }
            },
            "chainid" : "0x01",
            "network" : "Cancun"
        },
        "genesisBlockHeader" : {
            "baseFeePerGas" : "0x0476",
            "blobGasUsed" : "0x00",
            "bloom" : "0x00000000000000000000000000000000000000000000000000000000000000000000000000000000000000000000000000000000000000000000000000000000000000000000000000000000000000000000000000000000000000000000000000000000000000000000000000000000000000000000000000000000000000000000000000000000000000000000000000000000000000000000000000000000000000000000000000000000000000000000000000000000000000000000000000000000000000000000000000000000000000000000000000000000000000000000000000000000000000000000000000000000000000000000000000000000",
            "coinbase" : "0x2adc25665018aa1fe0e6bc666dac8fc2697ff9ba",
            "difficulty" : "0x00",
            "excessBlobGas" : "0x060000",
            "extraData" : "0x00",
            "gasLimit" : "0x01000000",
            "gasUsed" : "0x00",
            "hash" : "0x5ae7bd4d92fcb0dab53c565a7b8969b1c33220b3a9b318ceaf616f436b0fa756",
            "mixHash" : "0x0000000000000000000000000000000000000000000000000000000000020000",
            "nonce" : "0x0000000000000000",
            "number" : "0x00",
            "parentBeaconBlockRoot" : "0x0000000000000000000000000000000000000000000000000000000000000000",
            "parentHash" : "0x0000000000000000000000000000000000000000000000000000000000000000",
            "receiptTrie" : "0x56e81f171bcc55a6ff8345e692c0f86e5b48e01b996cadc001622fb5e363b421",
            "stateRoot" : "0x0999ec260faa804d0232119d2113a9b4dbb56a9402928be1790d2b8bb81a0326",
            "timestamp" : "0x00",
            "transactionsTrie" : "0x56e81f171bcc55a6ff8345e692c0f86e5b48e01b996cadc001622fb5e363b421",
            "uncleHash" : "0x1dcc4de8dec75d7aab85b567b6ccd41ad312451b948a7413f0a142fd40d49347",
            "withdrawalsRoot" : "0x56e81f171bcc55a6ff8345e692c0f86e5b48e01b996cadc001622fb5e363b421"
        },
        "genesisRLP" : "0xf90241f9023ba00000000000000000000000000000000000000000000000000000000000000000a01dcc4de8dec75d7aab85b567b6ccd41ad312451b948a7413f0a142fd40d49347942adc25665018aa1fe0e6bc666dac8fc2697ff9baa00999ec260faa804d0232119d2113a9b4dbb56a9402928be1790d2b8bb81a0326a056e81f171bcc55a6ff8345e692c0f86e5b48e01b996cadc001622fb5e363b421a056e81f171bcc55a6ff8345e692c0f86e5b48e01b996cadc001622fb5e363b421b901000000000000000000000000000000000000000000000000000000000000000000000000000000000000000000000000000000000000000000000000000000000000000000000000000000000000000000000000000000000000000000000000000000000000000000000000000000000000000000000000000000000000000000000000000000000000000000000000000000000000000000000000000000000000000000000000000000000000000000000000000000000000000000000000000000000000000000000000000000000000000000000000000000000000000000000000000000000000000000000000000000000000000000000000000000000080808401000000808000a00000000000000000000000000000000000000000000000000000000000020000880000000000000000820476a056e81f171bcc55a6ff8345e692c0f86e5b48e01b996cadc001622fb5e363b4218083060000a00000000000000000000000000000000000000000000000000000000000000000c0c0c0",
        "lastblockhash" : "0x742e11650247083eaaf764816561f0feaae59680c2879933877fefb8ebde60a0",
        "network" : "Cancun",
        "postState" : {
            "0x000f3df6d732807ef1319fb7b8bb8522d0beac02" : {
                "balance" : "0x00",
                "code" : "0x3373fffffffffffffffffffffffffffffffffffffffe14604d57602036146024575f5ffd5b5f35801560495762001fff810690815414603c575f5ffd5b62001fff01545f5260205ff35b5f5ffd5b62001fff42064281555f359062001fff015500",
                "nonce" : "0x01",
                "storage" : {
                    "0x03e8" : "0x03e8"
                }
            },
            "0xa94f5374fce5edbc8e2a8697c15331677e6ebf0b" : {
                "balance" : "0xe8d55f7e90",
                "code" : "0x",
                "nonce" : "0x02",
                "storage" : {
                }
            },
            "0xcccccccccccccccccccccccccccccccccccccccc" : {
                "balance" : "0x0de0b6b3a7640000",
                "code" : "0x60008060005580600155806002558060035580600455806005558060065560075500",
                "nonce" : "0x01",
                "storage" : {
                }
            }
        },
        "pre" : {
            "0x000f3df6d732807ef1319fb7b8bb8522d0beac02" : {
                "balance" : "0x00",
                "code" : "0x3373fffffffffffffffffffffffffffffffffffffffe14604d57602036146024575f5ffd5b5f35801560495762001fff810690815414603c575f5ffd5b62001fff01545f5260205ff35b5f5ffd5b62001fff42064281555f359062001fff015500",
                "nonce" : "0x01",
                "storage" : {
                }
            },
            "0xa94f5374fce5edbc8e2a8697c15331677e6ebf0b" : {
                "balance" : "0xe8d848c3a0",
                "code" : "0x",
                "nonce" : "0x01",
                "storage" : {
                }
            },
            "0xcccccccccccccccccccccccccccccccccccccccc" : {
                "balance" : "0x0de0b6b3a7640000",
                "code" : "0x60008060005580600155806002558060035580600455806005558060065560075500",
                "nonce" : "0x01",
                "storage" : {
                    "0x00" : "0x60a7",
                    "0x01" : "0x60a7",
                    "0x02" : "0x60a7",
                    "0x03" : "0x60a7",
                    "0x04" : "0x60a7",
                    "0x05" : "0x60a7",
                    "0x06" : "0x60a7",
                    "0x07" : "0x60a7"
                }
            }
        },
        "sealEngine" : "NoProof"
    },
    "refundMax_d0g0v0_Prague" : {
        "_info" : {
            "comment" : "Ori Pomerantz   qbzzt1@gmail.com",
            "filling-rpc-server" : "evmone-t8n 0.13.0-82+commit.880ac821",
            "filling-tool-version" : "retesteth-0.3.2-legacy+commit.1d528976.Linux.g++",
            "generatedTestHash" : "2c1df5d429e6d22cf0f0805806cf1f537f0f5734d8b31908d6db64301dfcfa08",
            "lllcversion" : "Version: 0.5.14-develop.2024.11.5+commit.b2b86751.mod.Linux.g++",
            "solidity" : "Version: 0.8.24+commit.e11b9ed9.Linux.g++",
            "source" : "src/GeneralStateTestsFiller/stRefundTest/refundMaxFiller.yml",
            "sourceHash" : "2eebf336ac57b5117f3694ec880b68ff98beb3575dfc4fddbb896315d9921d7c"
        },
        "blocks" : [
            {
                "blockHeader" : {
                    "baseFeePerGas" : "0x03e8",
                    "blobGasUsed" : "0x00",
                    "bloom" : "0x00000000000000000000000000000000000000000000000000000000000000000000000000000000000000000000000000000000000000000000000000000000000000000000000000000000000000000000000000000000000000000000000000000000000000000000000000000000000000000000000000000000000000000000000000000000000000000000000000000000000000000000000000000000000000000000000000000000000000000000000000000000000000000000000000000000000000000000000000000000000000000000000000000000000000000000000000000000000000000000000000000000000000000000000000000000",
                    "coinbase" : "0x2adc25665018aa1fe0e6bc666dac8fc2697ff9ba",
                    "difficulty" : "0x00",
                    "excessBlobGas" : "0x00",
                    "extraData" : "0x00",
                    "gasLimit" : "0x01000000",
                    "gasUsed" : "0xbeca",
                    "hash" : "0xee795a0752e8061d7f913f830210593bcb8ca08d0d8922ceab6b27af72b35635",
                    "mixHash" : "0x0000000000000000000000000000000000000000000000000000000000020000",
                    "nonce" : "0x0000000000000000",
                    "number" : "0x01",
                    "parentBeaconBlockRoot" : "0x0000000000000000000000000000000000000000000000000000000000000000",
                    "parentHash" : "0x27506673e305b269a983a79039113e3373154ec022e8bd313e26c2eb7cea080b",
                    "receiptTrie" : "0xa1267dc8cb9b1eb6a801b3b02fcf24df7b3a62b8a094bdfd43a49546ee4164b8",
                    "requestsHash" : "0xe3b0c44298fc1c149afbf4c8996fb92427ae41e4649b934ca495991b7852b855",
                    "stateRoot" : "0x279729d29162050dd029561e62673ca9474ac7a9c7cec6cc7803d6a378b10bf3",
                    "timestamp" : "0x03e8",
                    "transactionsTrie" : "0x62b3433319d52e2ba1c77a1290d0416ea21b71ec7668c5af1a2e3e2020291de4",
                    "uncleHash" : "0x1dcc4de8dec75d7aab85b567b6ccd41ad312451b948a7413f0a142fd40d49347",
                    "withdrawalsRoot" : "0x56e81f171bcc55a6ff8345e692c0f86e5b48e01b996cadc001622fb5e363b421"
                },
                "rlp" : "0xf902cdf9025da027506673e305b269a983a79039113e3373154ec022e8bd313e26c2eb7cea080ba01dcc4de8dec75d7aab85b567b6ccd41ad312451b948a7413f0a142fd40d49347942adc25665018aa1fe0e6bc666dac8fc2697ff9baa0279729d29162050dd029561e62673ca9474ac7a9c7cec6cc7803d6a378b10bf3a062b3433319d52e2ba1c77a1290d0416ea21b71ec7668c5af1a2e3e2020291de4a0a1267dc8cb9b1eb6a801b3b02fcf24df7b3a62b8a094bdfd43a49546ee4164b8b90100000000000000000000000000000000000000000000000000000000000000000000000000000000000000000000000000000000000000000000000000000000000000000000000000000000000000000000000000000000000000000000000000000000000000000000000000000000000000000000000000000000000000000000000000000000000000000000000000000000000000000000000000000000000000000000000000000000000000000000000000000000000000000000000000000000000000000000000000000000000000000000000000000000000000000000000000000000000000000000000000000000000000000000000000000000008001840100000082beca8203e800a000000000000000000000000000000000000000000000000000000000000200008800000000000000008203e8a056e81f171bcc55a6ff8345e692c0f86e5b48e01b996cadc001622fb5e363b4218080a00000000000000000000000000000000000000000000000000000000000000000a0e3b0c44298fc1c149afbf4c8996fb92427ae41e4649b934ca495991b7852b855f869b86701f86401018203e88327b02894cccccccccccccccccccccccccccccccccccccccc8000c080a039a0a692787fa83274937107332a154b786bf2cb1f80d1f20fe49d20da6ba324a0103bb80408321d84a1db211dfc777a640db593e889d6ec52f94d8718db3935c6c0c0",
                "transactions" : [
                    {
                        "accessList" : [
                        ],
                        "chainId" : "0x01",
                        "data" : "0x00",
                        "gasLimit" : "0x27b028",
                        "gasPrice" : "0x03e8",
                        "nonce" : "0x01",
                        "r" : "0x39a0a692787fa83274937107332a154b786bf2cb1f80d1f20fe49d20da6ba324",
                        "s" : "0x103bb80408321d84a1db211dfc777a640db593e889d6ec52f94d8718db3935c6",
                        "sender" : "0xa94f5374fce5edbc8e2a8697c15331677e6ebf0b",
                        "to" : "0xcccccccccccccccccccccccccccccccccccccccc",
                        "type" : "0x01",
                        "v" : "0x00",
                        "value" : "0x00"
                    }
                ],
                "uncleHeaders" : [
                ],
                "withdrawals" : [
                ]
            }
        ],
        "config" : {
            "blobSchedule" : {
                "Prague" : {
                    "baseFeeUpdateFraction" : "0x4c6964",
                    "max" : "0x09",
                    "target" : "0x06"
                }
            },
            "chainid" : "0x01",
            "network" : "Prague"
        },
        "genesisBlockHeader" : {
            "baseFeePerGas" : "0x0476",
            "blobGasUsed" : "0x00",
            "bloom" : "0x00000000000000000000000000000000000000000000000000000000000000000000000000000000000000000000000000000000000000000000000000000000000000000000000000000000000000000000000000000000000000000000000000000000000000000000000000000000000000000000000000000000000000000000000000000000000000000000000000000000000000000000000000000000000000000000000000000000000000000000000000000000000000000000000000000000000000000000000000000000000000000000000000000000000000000000000000000000000000000000000000000000000000000000000000000000",
            "coinbase" : "0x2adc25665018aa1fe0e6bc666dac8fc2697ff9ba",
            "difficulty" : "0x00",
            "excessBlobGas" : "0x060000",
            "extraData" : "0x00",
            "gasLimit" : "0x01000000",
            "gasUsed" : "0x00",
            "hash" : "0x27506673e305b269a983a79039113e3373154ec022e8bd313e26c2eb7cea080b",
            "mixHash" : "0x0000000000000000000000000000000000000000000000000000000000020000",
            "nonce" : "0x0000000000000000",
            "number" : "0x00",
            "parentBeaconBlockRoot" : "0x0000000000000000000000000000000000000000000000000000000000000000",
            "parentHash" : "0x0000000000000000000000000000000000000000000000000000000000000000",
            "receiptTrie" : "0x56e81f171bcc55a6ff8345e692c0f86e5b48e01b996cadc001622fb5e363b421",
            "requestsHash" : "0xe3b0c44298fc1c149afbf4c8996fb92427ae41e4649b934ca495991b7852b855",
            "stateRoot" : "0x0999ec260faa804d0232119d2113a9b4dbb56a9402928be1790d2b8bb81a0326",
            "timestamp" : "0x00",
            "transactionsTrie" : "0x56e81f171bcc55a6ff8345e692c0f86e5b48e01b996cadc001622fb5e363b421",
            "uncleHash" : "0x1dcc4de8dec75d7aab85b567b6ccd41ad312451b948a7413f0a142fd40d49347",
            "withdrawalsRoot" : "0x56e81f171bcc55a6ff8345e692c0f86e5b48e01b996cadc001622fb5e363b421"
        },
        "genesisRLP" : "0xf90262f9025ca00000000000000000000000000000000000000000000000000000000000000000a01dcc4de8dec75d7aab85b567b6ccd41ad312451b948a7413f0a142fd40d49347942adc25665018aa1fe0e6bc666dac8fc2697ff9baa00999ec260faa804d0232119d2113a9b4dbb56a9402928be1790d2b8bb81a0326a056e81f171bcc55a6ff8345e692c0f86e5b48e01b996cadc001622fb5e363b421a056e81f171bcc55a6ff8345e692c0f86e5b48e01b996cadc001622fb5e363b421b901000000000000000000000000000000000000000000000000000000000000000000000000000000000000000000000000000000000000000000000000000000000000000000000000000000000000000000000000000000000000000000000000000000000000000000000000000000000000000000000000000000000000000000000000000000000000000000000000000000000000000000000000000000000000000000000000000000000000000000000000000000000000000000000000000000000000000000000000000000000000000000000000000000000000000000000000000000000000000000000000000000000000000000000000000000000080808401000000808000a00000000000000000000000000000000000000000000000000000000000020000880000000000000000820476a056e81f171bcc55a6ff8345e692c0f86e5b48e01b996cadc001622fb5e363b4218083060000a00000000000000000000000000000000000000000000000000000000000000000a0e3b0c44298fc1c149afbf4c8996fb92427ae41e4649b934ca495991b7852b855c0c0c0",
        "lastblockhash" : "0xee795a0752e8061d7f913f830210593bcb8ca08d0d8922ceab6b27af72b35635",
        "network" : "Prague",
        "postState" : {
            "0x000f3df6d732807ef1319fb7b8bb8522d0beac02" : {
                "balance" : "0x00",
                "code" : "0x3373fffffffffffffffffffffffffffffffffffffffe14604d57602036146024575f5ffd5b5f35801560495762001fff810690815414603c575f5ffd5b62001fff01545f5260205ff35b5f5ffd5b62001fff42064281555f359062001fff015500",
                "nonce" : "0x01",
                "storage" : {
                    "0x03e8" : "0x03e8"
                }
            },
            "0xa94f5374fce5edbc8e2a8697c15331677e6ebf0b" : {
                "balance" : "0xe8d55f7e90",
                "code" : "0x",
                "nonce" : "0x02",
                "storage" : {
                }
            },
            "0xcccccccccccccccccccccccccccccccccccccccc" : {
                "balance" : "0x0de0b6b3a7640000",
                "code" : "0x60008060005580600155806002558060035580600455806005558060065560075500",
                "nonce" : "0x01",
                "storage" : {
                }
            }
        },
        "pre" : {
            "0x000f3df6d732807ef1319fb7b8bb8522d0beac02" : {
                "balance" : "0x00",
                "code" : "0x3373fffffffffffffffffffffffffffffffffffffffe14604d57602036146024575f5ffd5b5f35801560495762001fff810690815414603c575f5ffd5b62001fff01545f5260205ff35b5f5ffd5b62001fff42064281555f359062001fff015500",
                "nonce" : "0x01",
                "storage" : {
                }
            },
            "0xa94f5374fce5edbc8e2a8697c15331677e6ebf0b" : {
                "balance" : "0xe8d848c3a0",
                "code" : "0x",
                "nonce" : "0x01",
                "storage" : {
                }
            },
            "0xcccccccccccccccccccccccccccccccccccccccc" : {
                "balance" : "0x0de0b6b3a7640000",
                "code" : "0x60008060005580600155806002558060035580600455806005558060065560075500",
                "nonce" : "0x01",
                "storage" : {
                    "0x00" : "0x60a7",
                    "0x01" : "0x60a7",
                    "0x02" : "0x60a7",
                    "0x03" : "0x60a7",
                    "0x04" : "0x60a7",
                    "0x05" : "0x60a7",
                    "0x06" : "0x60a7",
                    "0x07" : "0x60a7"
                }
            }
        },
        "sealEngine" : "NoProof"
    }
}