{
    "test_modexp_12": {
        "_info": {
            "comment": "`execution-spec-tests` generated test",
            "description": "Test function documentation:\n\n    Test the MODEXP precompile",
            "filling-rpc-server": "evm version 1.14.4-unstable-3d8028a6-20240513",
            "filling-tool-version": "retesteth-0.3.2-cancun+commit.2a41f237.Linux.g++",
            "filling-transition-tool": "evm version 1.14.4-unstable-3d8028a6-20240513",
            "generatedTestHash": "012fe6fa67881061da1128cbb4a6d38597649351c2b047a7e127f8cb9d3ffddd",
            "hash": "0x5e853af69b2c7ec13c91a5fca7b6c4e26085a921a3cf3dd5961b9a576b577eda",
            "lllcversion": "Version: 0.5.14-develop.2023.7.11+commit.c58ab2c6.mod.Linux.g++",
            "solidity": "Version: 0.8.21+commit.d9974bed.Linux.g++",
            "source": "src/GeneralStateTestsFiller/Pyspecs/byzantium/eip198_modexp_precompile/test_modexpFiller_12.json",
            "sourceHash": "7a749d367206afbfbac09812d2dcfb8b80b65d4e2002444c3a0d0bd191e39d13",
            "url": "https://github.com/ethereum/execution-spec-tests/blob/87ef9bee36585b5b9f72d6eaafeeb1999b641d3c/tests/tmp/tmptest_c55892fd_7bca_450d_a74a_810bad241eab/test_modexp.py#L91"
        },
        "env": {
            "currentCoinbase": "0x2adc25665018aa1fe0e6bc666dac8fc2697ff9ba",
            "currentDifficulty": "0x020000",
            "currentGasLimit": "0x016345785d8a0000",
            "currentNumber": "0x01",
            "currentTimestamp": "0x03e8"
        },
        "post": {
            "Berlin": [
                {
                    "hash": "0xc5c9358089d2f9bebb37d889d9a23826a5a5b7e3e978d993cd5ebf199fdb8ba9",
                    "indexes": {
                        "data": 0,
                        "gas": 0,
                        "value": 0
                    },
                    "logs": "0x1dcc4de8dec75d7aab85b567b6ccd41ad312451b948a7413f0a142fd40d49347",
                    "txbytes": "0xf8c4800a8307a12094000000000000000000000000000000000000010080b86300000000000000000000000000000000000000000000000000000000000000010000000000000000000000000000000000000000000000000000000000000001000000000000000000000000000000000000000000000000000000000000000100000226a02b6a4a142c65d113e433fd1bc264cdf4043e68128135fd4d66857c7c4ad9a64da03122e566d619c10322998fa21b7346f8ce10257145018cdadf76da37ea76c19b"
                }
            ]
        },
        "pre": {
            "0x0000000000000000000000000000000000000100": {
                "balance": "0x00",
                "code": "0x36600060003760006000366000600060055af16000557f601038036010600039601038036000f3000000000000000000000000000000006000523d600060103e3d60100160006000f000",
                "nonce": "0x00",
                "storage": {}
            },
            "0xa94f5374fce5edbc8e2a8697c15331677e6ebf0b": {
                "balance": "0x3635c9adc5dea00000",
                "code": "0x",
                "nonce": "0x00",
                "storage": {}
            }
        },
        "transaction": {
            "data": [
                "0x000000000000000000000000000000000000000000000000000000000000000100000000000000000000000000000000000000000000000000000000000000010000000000000000000000000000000000000000000000000000000000000001000002"
            ],
            "gasLimit": [
                "0x07a120"
            ],
            "gasPrice": "0x0a",
            "nonce": "0x00",
            "secretKey": "0x45a915e4d060149eb4365960e6a7a45f334393093061116b197e3240065ff2d8",
            "sender": "0xa94f5374fce5edbc8e2a8697c15331677e6ebf0b",
            "to": "0x0000000000000000000000000000000000000100",
            "value": [
                "0x00"
            ]
        }
    }
}