{
    "test_modexp_66": {
        "_info": {
            "comment": "`execution-spec-tests` generated test",
            "description": "Test function documentation:\n\n    Test the MODEXP precompile",
            "filling-rpc-server": "evm version 1.14.4-unstable-3d8028a6-20240513",
            "filling-tool-version": "retesteth-0.3.2-cancun+commit.2a41f237.Linux.g++",
            "filling-transition-tool": "evm version 1.14.4-unstable-3d8028a6-20240513",
            "generatedTestHash": "df89cbc2eca2877c5049a35a6d286138918b66afbff88405ff9505a3366c13ab",
            "hash": "0x11f130a6b941593240b6ece66674bc2596ef264732883cc3cfa5bc0cea08f091",
            "lllcversion": "Version: 0.5.14-develop.2023.7.11+commit.c58ab2c6.mod.Linux.g++",
            "solidity": "Version: 0.8.21+commit.d9974bed.Linux.g++",
            "source": "src/GeneralStateTestsFiller/Pyspecs/byzantium/eip198_modexp_precompile/test_modexpFiller_66.json",
            "sourceHash": "7a749d367206afbfbac09812d2dcfb8b80b65d4e2002444c3a0d0bd191e39d13",
            "url": "https://github.com/ethereum/execution-spec-tests/blob/87ef9bee36585b5b9f72d6eaafeeb1999b641d3c/tests/tmp/tmptest_c55892fd_7bca_450d_a74a_810bad241eab/test_modexp.py#L91"
        },
        "env": {
            "currentCoinbase": "0x2adc25665018aa1fe0e6bc666dac8fc2697ff9ba",
            "currentDifficulty": "0x020000",
            "currentGasLimit": "0x016345785d8a0000",
            "currentNumber": "0x01",
            "currentTimestamp": "0x03e8"
        },
        "post": {
            "ConstantinopleFix": [
                {
                    "hash": "0xe189e4797036e72fa82effcf400e2af4fab4760f8e6909f7e1f36c07deb7d5a1",
                    "indexes": {
                        "data": 0,
                        "gas": 0,
                        "value": 0
                    },
                    "logs": "0x1dcc4de8dec75d7aab85b567b6ccd41ad312451b948a7413f0a142fd40d49347",
                    "txbytes": "0xf90101800a8307a12094000000000000000000000000000000000000010080b8a000000000000000000000000000000000000000000000000000000000000000000000000000000000000000000000000000000000000000000000000000000020fffffffffffffffffffffffffffffffffffffffffffffffffffffffffffffffffffffffffffffffffffffffffffffffffffffffffffffffffffffffffffffffefffffffffffffffffffffffffffffffffffffffffffffffffffffffffffffffd26a0b67a35a10327991934b720fc3ed7b79e27e7741427d36a26b984baa139e2a121a04785d6cc3b90c4cda7d398fcd3943e89e00a5093d59e810d6a21d30522b96873"
                }
            ]
        },
        "pre": {
            "0x0000000000000000000000000000000000000100": {
                "balance": "0x00",
                "code": "0x36600060003760006000366000600060055af16000557f601038036010600039601038036000f3000000000000000000000000000000006000523d600060103e3d60100160006000f000",
                "nonce": "0x00",
                "storage": {}
            },
            "0xa94f5374fce5edbc8e2a8697c15331677e6ebf0b": {
                "balance": "0x3635c9adc5dea00000",
                "code": "0x",
                "nonce": "0x00",
                "storage": {}
            }
        },
        "transaction": {
            "data": [
                "0x00000000000000000000000000000000000000000000000000000000000000000000000000000000000000000000000000000000000000000000000000000020fffffffffffffffffffffffffffffffffffffffffffffffffffffffffffffffffffffffffffffffffffffffffffffffffffffffffffffffffffffffffffffffefffffffffffffffffffffffffffffffffffffffffffffffffffffffffffffffd"
            ],
            "gasLimit": [
                "0x07a120"
            ],
            "gasPrice": "0x0a",
            "nonce": "0x00",
            "secretKey": "0x45a915e4d060149eb4365960e6a7a45f334393093061116b197e3240065ff2d8",
            "sender": "0xa94f5374fce5edbc8e2a8697c15331677e6ebf0b",
            "to": "0x0000000000000000000000000000000000000100",
            "value": [
                "0x00"
            ]
        }
    }
}