{
    "warm_coinbase_call_out_of_gas_0": {
        "_info": {
            "comment": "`execution-spec-tests` generated test",
            "description": "Test function documentation:\n\n    Test that the coinbase is warm by accessing the COINBASE with each\n    of the following opcodes:\n\n    - CALL\n    - CALLCODE\n    - DELEGATECALL\n    - STATICCALL",
            "filling-rpc-server": "evm version 1.14.4-unstable-3d8028a6-20240513",
            "filling-tool-version": "retesteth-0.3.2-cancun+commit.2a41f237.Linux.g++",
            "filling-transition-tool": "evm version 1.14.4-unstable-3d8028a6-20240513",
            "generatedTestHash": "24e5ac6812884f5d594d5cb64bf79390110e6528c390ae3c546c282dd9f5e9d1",
            "hash": "0x12fbfb7d44193feea06d13a771e16f876b2a82038b733fd4b0bcf2e06c1b2b14",
            "lllcversion": "Version: 0.5.14-develop.2023.7.11+commit.c58ab2c6.mod.Linux.g++",
            "solidity": "Version: 0.8.21+commit.d9974bed.Linux.g++",
            "source": "src/GeneralStateTestsFiller/Pyspecs/shanghai/eip3651_warm_coinbase/warm_coinbase_call_out_of_gas_0Filler_.json",
            "sourceHash": "961a89471e19003b28cfd6df3f0e86029f447e8df5de4e759bdbf09173838308",
            "url": "https://github.com/ethereum/execution-spec-tests/blob/87ef9bee36585b5b9f72d6eaafeeb1999b641d3c/tests/tmp/tmptest_2a61a9af_a2c6_4b41_adbb_b12ca4cf0338/test_warm_coinbase.py#L30"
        },
        "env": {
            "currentBaseFee": "0x07",
            "currentCoinbase": "0x2adc25665018aa1fe0e6bc666dac8fc2697ff9ba",
            "currentDifficulty": "0x00",
            "currentExcessBlobGas": "0x00",
            "currentGasLimit": "0x02540be400",
            "currentNumber": "0x01",
            "currentRandom": "0x0000000000000000000000000000000000000000000000000000000000000000",
            "currentTimestamp": "0x03e8"
        },
        "post": {
            "Cancun": [
                {
                    "hash": "0x5203650070a6b0d343c3f6e59e560bd8a311cc1950b5fd4f4c74a4ce0cbd2f19",
                    "indexes": {
                        "data": 0,
                        "gas": 0,
                        "value": 0
                    },
                    "logs": "0x1dcc4de8dec75d7aab85b567b6ccd41ad312451b948a7413f0a142fd40d49347",
                    "txbytes": "0xf861800a8405f5e10094cccccccccccccccccccccccccccccccccccccccc808026a0a21d414659f8de316c49fd7a032d045fe0ca73212ec59359904509978387d5dda05512789a10e2b952ea16a0e8bdb95b15c6a8a1ba983d082cd4ff2b051b6fa88b"
                }
            ]
        },
        "pre": {
            "0x0000000000000000000000000000000000000100": {
                "balance": "0x00",
                "code": "0x60006000600060006000416000f150",
                "nonce": "0x00",
                "storage": {}
            },
            "0xa94f5374fce5edbc8e2a8697c15331677e6ebf0b": {
                "balance": "0x3635c9adc5dea00000",
                "code": "0x",
                "nonce": "0x00",
                "storage": {}
            },
            "0xcccccccccccccccccccccccccccccccccccccccc": {
                "balance": "0x00",
                "code": "0x600060006000600060006101006079f1600055",
                "nonce": "0x00",
                "storage": {}
            }
        },
        "transaction": {
            "data": [
                "0x"
            ],
            "gasLimit": [
                "0x05f5e100"
            ],
            "gasPrice": "0x0a",
            "nonce": "0x00",
            "secretKey": "0x45a915e4d060149eb4365960e6a7a45f334393093061116b197e3240065ff2d8",
            "sender": "0xa94f5374fce5edbc8e2a8697c15331677e6ebf0b",
            "to": "0xcccccccccccccccccccccccccccccccccccccccc",
            "value": [
                "0x00"
            ]
        }
    }
}