{
    "test_dup_84": {
        "_info": {
            "comment": "`execution-spec-tests` generated test",
            "description": "Test function documentation:\n\n    Test the DUP1-DUP16 opcodes.\n\n    note: Test case ported from:\n\n        - [ethereum/tests/GeneralStateTests/VMTests/vmTests/dup.json](https://github.com/ethereum/tests/blob/develop/GeneralStateTests/VMTests/vmTests/dup.json)\n        by Ori Pomerantz.",
            "filling-rpc-server": "evm version 1.14.4-unstable-3d8028a6-20240513",
            "filling-tool-version": "retesteth-0.3.2-cancun+commit.2a41f237.Linux.g++",
            "filling-transition-tool": "evm version 1.14.4-unstable-3d8028a6-20240513",
            "generatedTestHash": "bd803cb277d048130ac2f5d44322354b03d29c8a9c1fce2dee68293d18658e1d",
            "hash": "0x97745280cdfe39a2182a4b18df69d981e45712d856df9bdb010e3856abb07b10",
            "lllcversion": "Version: 0.5.14-develop.2023.7.11+commit.c58ab2c6.mod.Linux.g++",
            "solidity": "Version: 0.8.21+commit.d9974bed.Linux.g++",
            "source": "src/GeneralStateTestsFiller/Pyspecs/frontier/opcodes/test_dupFiller_84.json",
            "sourceHash": "9e031def962ef8da83ef45cbe9cd1f52a64aa5f3f7f89ab3816e4f0af50e89e2",
            "url": "https://github.com/ethereum/execution-spec-tests/blob/87ef9bee36585b5b9f72d6eaafeeb1999b641d3c/tests/tmp/tmptest_e3b4cb46_aa29_4eb3_b69f_2c12fe218a80/test_dup.py#L14"
        },
        "env": {
            "currentCoinbase": "0x2adc25665018aa1fe0e6bc666dac8fc2697ff9ba",
            "currentDifficulty": "0x020000",
            "currentGasLimit": "0x016345785d8a0000",
            "currentNumber": "0x01",
            "currentTimestamp": "0x03e8"
        },
        "post": {
            "Frontier": [
                {
                    "hash": "0x7ee059c16e27a503446a12710c66599a34c081980f37ea6b68bae7f339218afc",
                    "indexes": {
                        "data": 0,
                        "gas": 0,
                        "value": 0
                    },
                    "logs": "0x1dcc4de8dec75d7aab85b567b6ccd41ad312451b948a7413f0a142fd40d49347",
                    "txbytes": "0xf860800a8307a12094000000000000000000000000000000000000010080801ca0f73b923883495dc2174285c8fa4176de3d45accfb11cc8034ea1dd09831a4ddfa01c6bccbcd655b4022bcc27de4b9d5cee9ce999cdb8459b0afec4f5054ea02243"
                }
            ]
        },
        "pre": {
            "0x0000000000000000000000000000000000000100": {
                "balance": "0x00",
                "code": "0x6000600160026003600460056006600760086009600a600b600c600d600e600f60108d600055600155600255600355600455600555600655600755600855600955600a55600b55600c55600d55600e55600f55601055",
                "nonce": "0x00",
                "storage": {}
            },
            "0xa94f5374fce5edbc8e2a8697c15331677e6ebf0b": {
                "balance": "0x3635c9adc5dea00000",
                "code": "0x",
                "nonce": "0x00",
                "storage": {}
            }
        },
        "transaction": {
            "data": [
                "0x"
            ],
            "gasLimit": [
                "0x07a120"
            ],
            "gasPrice": "0x0a",
            "nonce": "0x00",
            "secretKey": "0x45a915e4d060149eb4365960e6a7a45f334393093061116b197e3240065ff2d8",
            "sender": "0xa94f5374fce5edbc8e2a8697c15331677e6ebf0b",
            "to": "0x0000000000000000000000000000000000000100",
            "value": [
                "0x00"
            ]
        }
    }
}